:107000000C9434380C94D83A0C945D380C945D3858
:107010000C945D380C945D380C945D380C945D389C
:107020000C945D380C945D380C945D380C945D388C
:107030000C945D380C945D380C94AA3A0C945D382D
:107040000C945D380C945D380C94873D0C94B53DE0
:107050000C945D380C945D380C945D380C945D385C
:107060000C945D380C945D3811241FBECFEFD8E02E
:10707000DEBFCDBF14BE0FB6F894A8958091600016
:10708000886180936000109260000FBE11E0A0E064
:10709000B1E0E4E0FCE702C005900D92A431B10735
:1070A000D9F722E0A4E1B1E001C01D92A931B207F5
:1070B000E1F70E94BD380C94003E0C940038FC01AE
:1070C0008081871309C08181861306C08281851360
:1070D00003C081E09381941380E00895F89485B70C
:1070E000982F916095BF8D7F85BFE0911401F0913D
:1070F00015010994FF920F931F93CF93DF93CFB79E
:10710000F894F999FECF8B0123E0FB0120935700FF
:10711000E89507B600FCFDCF9A0120583F4FDA01F1
:10712000D1E0A8014A1B5B0BFC90FA01EA0FFB1FA0
:1071300011961C911197012F10E0102F00270F0DB1
:10714000111D0801D0935700E89511241296A2173B
:10715000B30751F725E0FB0120935700E89507B6E8
:1071600000FCFDCF81E180935700E895CFBFDF9110
:10717000CF911F910F91FF90089581E2E6E1F0E039
:10718000809357009491E7E1F0E080935700649179
:1071900070E0792B7093820160938101CB01A0E0B4
:1071A000B0E0BC01CD018C5B9C4B60937901709386
:1071B0007A0180937B0190937C010E94013B909324
:1071C00078018093770185B7982F916095BF826091
:1071D00085BF0E944C3C52985A9A80916900816008
:1071E00080936900E89A84B5826084BD89EF87BD89
:1071F00080916E00826080936E00789485B5836084
:1072000085BD80E480936A0181E080936B01809169
:1072100077019091780190936D0180936C0186E0E5
:1072200080936E018091790190917A0120917B0188
:1072300030917C0130936F01209370019093710124
:10724000809372011092750110927601219A299A09
:107250008FEF93E00E94E63D813069F580937301E2
:1072600081E5809374018AE691E00E94A43C87E066
:1072700080936E01809173018F5F809373011092F0
:10728000740180E8809375018AE691E00E94A43C35
:10729000809173018F5F809373011092740180EE6F
:1072A000809375018AE691E00E94A43C60E08FEF34
:1072B00093E00E94EE3D77E0F72EC1E0D2E08091AE
:1072C0001202813009F01BC18DE0EDE5F1E0A5E887
:1072D000B1E001900D928A95E1F71092120280912F
:1072E00085018831B9F480918601811108C14091EE
:1072F0007701509178016091790170917A018091C4
:107300007B0190917C0101E510E020E030E00E94DB
:10731000D43BF5C08D3191F5809186018111EFC08C
:107320004090790150907A0160907B0170907C01CF
:10733000B301A2018AE891E00E945F38882309F432
:10734000DEC080918E018111DAC00091810110911F
:10735000820120E030E0409177015091780190E087
:10736000892E91E0992E6DE0A62E61E0B62EC12CFB
:10737000E12CC301B2010E940F3BC1C0803409F06F
:10738000BEC08091840181113FC04091790150912C
:107390007A0160917B0170917C018AE891E00E9402
:1073A0005F38882309F4ABC080918901873019F5D3
:1073B00080918601813009F0A2C080918E018130D8
:1073C00009F09DC080919001813009F098C0C09370
:1073D00084018091150290911602A0911702B0913C
:1073E000180280937D0190937E01A0937F01B0935A
:1073F000800160E004C0843009F081C061E08FEF5B
:1074000093E00E94EE3D7BC0809189018830B1F409
:10741000809183018F5F80938301A0918701A150A8
:1074200028E0A29FD0011124AE56BE4F88E0EAE8C2
:10743000F1E001900D928A95E1F761C040917901E8
:1074400050917A0160917B0170917C018AE891E012
:107450000E945F38882309F452C080918E018530E4
:1074600081F050F48430D1F580918F0190E09093B9
:1074700014028093130243C0863081F18730E9F112
:107480002DC0F0926E018093730160918F01609323
:10749000740170E0809113029091140268177907CB
:1074A00021F480918301803119F0109275010FC091
:1074B0007695762F662777956795072E000C880BB3
:1074C000990B42E951E00E947A38C09375018AE62F
:1074D00091E00E94A43C1092830111C040E850E06A
:1074E0006FEF70E082E991E00E94DF3D42E951E0F8
:1074F00060E070E0CB010E947A38109284018091A4
:10750000150290911602A0911702B0911802803DC9
:107510009740A105B10530F080918401813011F0D0
:107520000E946E38209184013CE93203C00111248D
:1075300088539F4F20915B0130915C0128173907D8
:1075400008F4BDCE10925C0110925B0185B18D27CD
:1075500085B9B5CE1F920F920FB60F9211248F935B
:107560009F93AF93BF938091150290911602A091C3
:107570001702B09118020196A11DB11D809315024A
:1075800090931602A0931702B093180280915B01AA
:1075900090915C01019690935C0180935B01BF9197
:1075A000AF919F918F910F900FBE0F901F901895E4
:1075B0001F920F920FB60F9211242F933F934F9368
:1075C0005F936F937F938F939F93AF93BF93EF934B
:1075D000FF938DE591E00E94073D81E080931202C8
:1075E000FF91EF91BF91AF919F918F917F916F919B
:1075F0005F914F913F912F910F900FBE0F901F9071
:1076000018950F931F938C0122273327602771272A
:10761000CB018F779C7F93601F910F9108952F92DC
:107620003F924F925F926F927F928F929F92AF9212
:10763000BF92CF92DF92EF92FF920F931F93CF935F
:10764000DF93CDB7DEB72D970FB6F894DEBF0FBE30
:10765000CDBF362E472E582EF92E3A018DE1898363
:1076600081E08A8381E093E09C838B8388E08D8333
:10767000EE82CF82188619863A872B871C870D8762
:10768000CE0101960E94A43C90E0F501E90FF11DA6
:107690008081882311F09F5FF8CFF501DE011196FC
:1076A00080E0891728F4208115962C93159703C044
:1076B00015961C9215978F5F31961196883089F731
:1076C0008B819C8101969C838B83CE0101960E94C5
:1076D000A43C80E0A82EB12CF401EA0DFB1D9081A2
:1076E000992311F08F5FF6CF982F9770E82EE694CC
:1076F000E694E6949111E394212C6E0189E0C80E82
:10770000D11C01E010E00C0F1D1F080D191DE21423
:1077100019F1FE013196D401C401801B910B9C012B
:107720002E0F3F1F2A153B051CF42C91258301C009
:10773000158211963196EC15FD0589F78B819C8198
:1077400001969C838B83CE0101960E94A43C2394D6
:1077500088E0880E911CDBCF8B817C826B8296E067
:107760009D83FE825F82488639861A868B87CE018A
:1077700001960E94A43C2D960FB6F894DEBF0FBE72
:10778000CDBFDF91CF911F910F91FF90EF90DF90D0
:10779000CF90BF90AF909F908F907F906F905F90B1
:1077A0004F903F902F9008950F931F93CF93DF93A7
:1077B000CDB7DEB72D970FB6F894DEBF0FBECDBFA5
:1077C000E8E1E983E1E0EA835C834B8348E04D83B1
:1077D0009E838F83788769873A872B871C870D87DD
:1077E000CE0101960E94A43C2D960FB6F894DEBF00
:1077F0000FBECDBFDF91CF911F910F910895229AB7
:10780000239A259A24982A9A2B9A2D9A2C9A80E5C5
:107810008CBD81E08DBD08958EBD0DB407FEFDCFFA
:107820008EB50895CF93DF93D82FC62F2A9882E084
:107830000E940C3C8D2F0E940C3C8C2F0E940C3C13
:107840002A9ADF91CF9108951F93CF93DF93182F3A
:10785000D62FC42F2A9885E00E940C3C812F0E94CD
:107860000C3C8D2F0E940C3C8C2F0E940C3C2A9AC1
:10787000DF91CF911F910895CF932A9880EB0E94BA
:107880000C3C8FEF0E940C3CC82F8FEF0E940C3CE9
:107890002A9A8C2FCF9108950E94FF3B2A9880EC62
:1078A0000E940C3C8FE99FE00197F1F700C00000B7
:1078B0002A9A8FE39CE90197F1F700C0000061E488
:1078C0008AE20E94123C61EF89E20E94123C65E864
:1078D00088E20E94123C63E08BE20E94123C60E668
:1078E00080E60E94123C60E680E70E94123C60E065
:1078F00080E20E94123C60E081E20E94123C60E063
:1079000082E20E94123C60E083E20E94123C60E04E
:1079100084E20E94123C60E085E20E94123C60E03A
:1079200086E20E94123C60E087E20E94123C60E026
:107930008CE00E94123C60E08DE00E94123C40E02E
:1079400060EE8FE00C94243CCF92DF92EF92FF9296
:10795000CF93DF93EC01C880D12CE12CF12C81E195
:10796000CC0CDD1CEE1CFF1C8A95D1F78981A70188
:107970009601482BCA80DB80E12CF12CC22AD32A45
:10798000E42AF52A2A9880E40E940C3CD701C6011B
:1079900025E1B695A795979587952A95D1F70E94E9
:1079A0000C3CA70166277727842F837088604C7171
:1079B000440F440F440F842B0E940C3C8D2D0E94D9
:1079C0000C3C8C2D0E940C3C8C810E940C3C7E0156
:1079D00035E0E30EF11C2D96F70181917F010E94A5
:1079E0000C3CEC16FD06C1F72A9A2A9881E80E9401
:1079F0000C3C2A9A8FE39CE90197F1F700C0000044
:107A0000DF91CF91FF90EF90DF90CF900895CF92CC
:107A1000DF92EF92FF920F931F93CF93DF93EC01CE
:107A20000E943C3C182F082F007486FF03C02A9840
:107A300080E904C087FF61C02A9884E90E940C3C59
:107A40008FEF0E940C3C28E0829FC00111246C0142
:107A5000990FEE08FF088FEF0E940C3C982F92952B
:107A600096959770C92A92E0CC0CDD1CEE1CFF1C89
:107A70009A95D1F78370C82AFE2CED2CDC2CCC24EF
:107A80008FEF0E940C3CC82AFE2CED2CDC2CCC2461
:107A90008FEF0E940C3CB701A601482BDB01CA0105
:107AA00071E1B695A795979587957A95D1F78883D3
:107AB000862F817089835B834A838FEF0E940C3C01
:107AC0008F708C837E0185E0E80EF11C2D968FEF80
:107AD0000E940C3CF70181937F01EC17FD07B9F779
:107AE0002A9A40E0002311F061E001C062E08CE2DC
:107AF0000E94243C812F877001C08FEFDF91CF91CE
:107B00001F910F91FF90EF90DF90CF9008951F92FB
:107B10000F920FB60F9211242F938F939F93EF9391
:107B2000FF938091C0009091C6008C71E091180184
:107B3000EF5FEF7120911701E21739F0E093180120
:107B4000F0E0E55EFE4F908301C082E09091160167
:107B5000892B80931601FF91EF919F918F912F9127
:107B60000F900FBE0F901F9018951F920F920FB697
:107B70000F9211248F939F93EF93FF9390911A018B
:107B800080911901981769F0E0911901EF5FEF7189
:107B9000E0931901F0E0E55CFE4F80818093C60020
:107BA00005C08091C1008F7D8093C100FF91EF914E
:107BB0009F918F910F900FBE0F901F901895DC0131
:107BC00001C06D9341505040E0F70895F999FECF00
:107BD00092BD81BDF89A992780B50895262FF9990D
:107BE000FECF92BD81BDF89A019700B4021639F01C
:107BF0001FBA20BD0FB6F894FA9AF99A0FBE0895ED
:047C0000F894FFCF26
:107C0400427573616E6B6F70706C65720042414BAC
:047C14002D303100DE
:040000050080011462
:00000001FF
