:020000023000CC
:10F000000D9472F80D949FF80D949FF80D9439FBB0
:10F010000D949FF80D949FF80D949FF80D949FF810
:10F020000D949FF80D949FF80D949FF80D949FF800
:10F030000D949FF80D949FF80D949FF80D949FF8F0
:10F040000D949FF80D949FF80D949FF80D949FF8E0
:10F050000D949FF80D940BFB0D949FF80D949FF861
:10F060000D949FF80D94ECFD0D941EFE0D949FF8E9
:10F070000D949FF80D949FF80D949FF80D949FF8B0
:10F080000D949FF80D949FF80D949FF80D949FF8A0
:10F090000D944CFE0D947EFE0D949FF80D949FF8F8
:10F0A0000D949FF80D949FF80D949FF80D949FF880
:10F0B0000D949FF80D949FF80D949FF80D949FF870
:10F0C0000D949FF80D949FF80D949FF80D949FF860
:10F0D0000D949FF80D949FF80D949FF80D949FF850
:10F0E0000D949FF811241FBECFEFD1E2DEBFCDBF3C
:10F0F00001E00CBF14BE0FB6F894A8958091600093
:10F10000886180936000109260000FBE12E0A0E062
:10F11000B2E0EEE9FDEF03E00BBF02C007900D92F5
:10F12000A232B107D9F723E0A2E2B2E001C01D92FA
:10F13000AC3EB207E1F70F9409F90D94CDFE0D94A2
:10F1400000F8FC018081871309C08181861306C005
:10F150008281851303C081E09381941380E0089538
:10F16000F89485B7982F916095BF8D7F85BF1CBEA1
:10F17000E0912202F09123021994CF92DF92EF9254
:10F18000FF921F93CF93DF931FB7F894F999FECFA7
:10F1900023E0FB0180935B0020935700E89507B6BE
:10F1A00000FCFDCFDA0153956B017C0121E0EC916D
:10F1B00011963C911197C32FD0E0DC2FCC27CE0FB6
:10F1C000D11D0E01F601E0925B0020935700E895F7
:10F1D0001124129632E0C30ED11CE11CF11C4A1717
:10F1E0005B0729F725E0FB0180935B002093570024
:10F1F000E89507B600FCFDCF81E180935700E895C4
:10F200001FBFDF91CF911F91FF90EF90DF90CF90C4
:10F21000089581E2E6E1F0E0809357009491E7E100
:10F22000F0E080935700649170E0792B7093D502E1
:10F230006093D402CB01A0E0B0E0BC01CD018D5BB6
:10F24000924B6093CC027093CD028093CE02909348
:10F25000CF020F9466FB9093CB028093CA0285B7CE
:10F26000982F916095BF826085BF0F94B1FC80910B
:10F270006900806280936900809169008F7E80932D
:10F280006900EA9A52985A9A84B5826084BD89EFDF
:10F2900087BD80916E00826080936E00789485B502
:10F2A000836085BD80E48093BD0281E08093BE02CF
:10F2B0008091CA029091CB029093C0028093BF02CA
:10F2C00086E08093C1028091CC029091CD02209182
:10F2D000CE023091CF023093C2022093C3029093AA
:10F2E000C4028093C5021092C8021092C902539AB8
:10F2F0005B9A8FEF93E00F94B3FEC82F813069F5CE
:10F300008093C60282E58093C7028DEB92E00F9452
:10F3100009FD87E08093C1028091C6028F5F8093D0
:10F32000C602C093C7021092C8028DEB92E00F9400
:10F3300009FD8091C6028F5F8093C60283E08093AF
:10F34000C70280EF8093C8028DEB92E00F9409FD15
:10F3500060E08FEF93E00F94BBFE4091CA025091A2
:10F36000CB026091CC027091CD028091CE0290913F
:10F37000CF0202E510E020E030E00F9439FC77E0A6
:10F38000F72EC1E0D8E08091E503813009F018C183
:10F390008DE0E0EBF2E0A8EDB2E001900D928A95ED
:10F3A000E1F71092E5038091D8028831B9F4809199
:10F3B000D902811105C14091CA025091CB026091DE
:10F3C000CC027091CD028091CE029091CF0202E5E5
:10F3D00010E020E030E00F9439FCF2C08D3191F55F
:10F3E0008091D9028111ECC04090CC025090CD02A6
:10F3F0006090CE027090CF02B301A2018DED92E039
:10F400000F94A1F8882309F4DBC08091E1028111F7
:10F41000D7C00091D4021091D50220E030E0409195
:10F42000CA025091CB0290E0892E92E0992E6BE1B6
:10F43000A62E62E0B62EC12CE12CC301B2010F94BE
:10F4400074FBBEC0803409F0BBC08091D70281112B
:10F450003FC04091CC025091CD026091CE0270919C
:10F46000CF028DED92E00F94A1F8882309F4A8C093
:10F470008091DC02873019F58091D902813009F042
:10F480009FC08091E102813009F09AC08091E3022F
:10F49000813009F095C0C093D7028091E803909124
:10F4A000E903A091EA03B091EB038093D00290931B
:10F4B000D102A093D202B093D30260E004C08430A2
:10F4C00009F07EC061E08FEF93E00F94BBFE78C03F
:10F4D0008091DC028830B1F48091D6028F5F8093F6
:10F4E000D602A091DA02A15028E0A29FD0011124F7
:10F4F000AB51BD4F88E0EDEDF2E001900D928A95A1
:10F50000E1F75EC04091CC025091CD026091CE02F5
:10F510007091CF028DED92E00F94A1F8882309F449
:10F520004FC08091E102853081F050F48430B9F50C
:10F530008091E20290E09093E7038093E60340C05D
:10F54000863069F18730D1F12AC0F092C1028093F0
:10F55000C6026091E2026093C70270E08091E60308
:10F560009091E7036817790721F48091D6028032E1
:10F5700019F01092C8020CC0762F6627072E000CD7
:10F58000880B990B45EE52E00F94BDF8C093C8026A
:10F590008DEB92E00F9409FD1092D60211C040E06D
:10F5A00051E06FEF70E085EE92E00F94ACFE45EE17
:10F5B00052E060E070E0CB010F94BDF81092D702EA
:10F5C0008091E8039091E903A091EA03B091EB03E5
:10F5D000803D9740A105B10530F08091D702813080
:10F5E00011F00F94B0F82091D7023CE93203C0012A
:10F5F000112488539F4F2091AE023091AF022817FB
:10F60000390708F4C0CE1092AF021092AE028BB14F
:10F610008D278BB9B8CE1F920F920FB60F9211247F
:10F620008F939F93AF93BF938091E8039091E903E9
:10F63000A091EA03B091EB030196A11DB11D809347
:10F64000E8039093E903A093EA03B093EB0380915E
:10F65000AE029091AF0201969093AF028093AE02FA
:10F66000BF91AF919F918F910F900FBE0F901F9000
:10F6700018951F920F920FB60F9211240BB60F928E
:10F680002F933F934F935F936F937F938F939F93AA
:10F69000AF93BF93EF93FF9380EB92E00F946CFDD9
:10F6A00081E08093E503FF91EF91BF91AF919F912E
:10F6B0008F917F916F915F914F913F912F910F901B
:10F6C0000BBE0F900FBE0F901F9018950F931F93B6
:10F6D0008C012227332760277127CB018F779C7FEE
:10F6E00093601F910F9108952F923F924F925F92D6
:10F6F0006F927F928F929F92AF92BF92CF92DF9242
:10F70000EF92FF920F931F93CF93DF93CDB7DEB7A6
:10F710002D970FB6F894DEBF0FBECDBF362E472E05
:10F72000582EF92E3A018DE1898381E08A8381E0A8
:10F7300093E09C838B8388E08D83EE82CF82188652
:10F7400019863A872B871C870D87CE0101960F9467
:10F7500009FD90E0F501E90FF11D8081882311F08A
:10F760009F5FF8CFF501DE01119680E0891728F43C
:10F77000208115962C93159703C015961C9215970A
:10F780008F5F31961196883089F78B819C81019625
:10F790009C838B83CE0101960F9409FD80E0A82EF7
:10F7A000B12CF401EA0DFB1D9081992311F08F5FBC
:10F7B000F6CF982F9770E82EE694E694E694911190
:10F7C000E394212C6E0189E0C80ED11C01E010E009
:10F7D0000C0F1D1F080D191DE21419F1FE013196C1
:10F7E000D401C401801B910B9C012E0F3F1F2A15D1
:10F7F0003B051CF42C91258301C01582119631968E
:10F80000EC15FD0589F78B819C8101969C838B8388
:10F81000CE0101960F9409FD239488E0880E911C77
:10F82000DBCF8B817C826B8296E09D83FE825F8240
:10F83000488639861A868B87CE0101960F9409FD7A
:10F840002D960FB6F894DEBF0FBECDBFDF91CF91DE
:10F850001F910F91FF90EF90DF90CF90BF90AF90EE
:10F860009F908F907F906F905F904F903F902F90E0
:10F8700008950F931F93CF93DF93CDB7DEB72D97E6
:10F880000FB6F894DEBF0FBECDBFE8E1E983E1E03B
:10F89000EA835C834B8348E04D839E838F83788724
:10F8A00069873A872B871C870D87CE0101960F94B5
:10F8B00009FD2D960FB6F894DEBF0FBECDBFDF91C8
:10F8C000CF911F910F910895209A229A219A2398FF
:10F8D000289A2A9A299A2B9A80E58CBD81E08DBDC1
:10F8E00008958EBD0DB407FEFDCF8EB50895CF935C
:10F8F000DF93D82FC62F289882E00F9471FC8D2FAC
:10F900000F9471FC8C2F0F9471FC289ADF91CF918A
:10F9100008951F93CF93DF93182FD62FC42F2898C5
:10F9200085E00F9471FC812F0F9471FC8D2F0F9443
:10F9300071FC8C2F0F9471FC289ADF91CF911F914D
:10F940000895CF93289880EB0F9471FC8FEF0F945C
:10F9500071FCC82F8FEF0F9471FC289A8C2FCF91D8
:10F9600008950F9464FC289880EC0F9471FC8FE844
:10F9700091E00197F1F700C00000289A8FE99FE01D
:10F980000197F1F700C0000061E48AE20F9477FC70
:10F9900061EF89E20F9477FC65E888E20F9477FCC9
:10F9A00063E08BE20F9477FC60E680E60F9477FCCF
:10F9B00060E680E70F9477FC60E080E20F9477FCCC
:10F9C00060E081E20F9477FC60E082E20F9477FCC4
:10F9D00060E083E20F9477FC60E084E20F9477FCB0
:10F9E00060E085E20F9477FC60E086E20F9477FC9C
:10F9F00060E087E20F9477FC60E08CE00F9477FC86
:10FA000060E08DE00F9477FC40E060EE8FE00D94B5
:10FA100089FCCF92DF92EF92FF92CF93DF93EC01BC
:10FA2000C880D12CE12CF12C81E1CC0CDD1CEE1C2A
:10FA3000FF1C8A95D1F78981A7019601482BCA80BE
:10FA4000DB80E12CF12CC22AD32AE42AF52A28985B
:10FA500080E40F9471FCD701C60125E1B695A79506
:10FA6000979587952A95D1F70F9471FCA701662782
:10FA70007727842F837088604C71440F440F440FA4
:10FA8000842B0F9471FC8D2D0F9471FC8C2D0F9491
:10FA900071FC8C810F9471FC7E0135E0E30EF11C4A
:10FAA0002D96F70181917F010F9471FCEC16FD06F4
:10FAB000C1F7289A289881E80F9471FC289A8FE959
:10FAC0009FE00197F1F700C00000DF91CF91FF9018
:10FAD000EF90DF90CF900895CF92DF92EF92FF9258
:10FAE0000F931F93CF93DF93EC010F94A1FC182F7A
:10FAF000082F007486FF03C0289880E904C087FFA0
:10FB000061C0289884E90F9471FC8FEF0F9471FC09
:10FB100028E0829FC00111246C01990FEE08FF08B4
:10FB20008FEF0F9471FC982F929596959770C92A34
:10FB300092E0CC0CDD1CEE1CFF1C9A95D1F7837073
:10FB4000C82AFE2CED2CDC2CCC248FEF0F9471FCFA
:10FB5000C82AFE2CED2CDC2CCC248FEF0F9471FCEA
:10FB6000B701A601482BDB01CA0171E1B695A79543
:10FB7000979587957A95D1F78883862F81708983A9
:10FB80005B834A838FEF0F9471FC8F708C837E01AF
:10FB900085E0E80EF11C2D968FEF0F9471FCF701B4
:10FBA00081937F01EC17FD07B9F7289A40E0002305
:10FBB00011F061E001C062E08CE20F9489FC812FBA
:10FBC000877001C08FEFDF91CF911F910F91FF9050
:10FBD000EF90DF90CF9008951F920F920FB60F9283
:10FBE00011240BB60F922F938F939F93EF93FF9354
:10FBF0008091C0009091C6008C71E0916B02EF5F24
:10FC0000EF7120916A02E21739F0E0936B02F0E0A5
:10FC1000E259FD4F908301C082E090916902892BE7
:10FC200080936902FF91EF919F918F912F910F9097
:10FC30000BBE0F900FBE0F901F9018951F920F9242
:10FC40000FB60F9211240BB60F928F939F93EF93E1
:10FC5000FF9390916D0280916C02981769F0E0918A
:10FC60006C02EF5FEF71E0936C02F0E0E257FD4F42
:10FC700080818093C60005C08091C1008F7D8093F4
:10FC8000C100FF91EF919F918F910F900BBE0F904C
:10FC90000FBE0F901F9018951F920F920FB60F92E4
:10FCA00011240BB60F922F938F939F93EF93FF9393
:10FCB0008091C8009091CE008C71E0912602EF5F98
:10FCC000EF7120912502E21739F0E0932602F0E06F
:10FCD000E75DFD4F908301C082E090912402892B63
:10FCE00080932402FF91EF919F918F912F910F901C
:10FCF0000BBE0F900FBE0F901F9018951F920F9282
:10FD00000FB60F9211240BB60F928F939F93EF9320
:10FD1000FF939091280280912702981769F0E09153
:10FD20002702EF5FEF71E0932702F0E0E75BFD4F02
:10FD300080818093CE0005C08091C9008F7D809323
:10FD4000C900FF91EF919F918F910F900BBE0F9083
:10FD50000FBE0F901F901895DC0101C06D934150AC
:10FD60005040E0F70895F999FECF92BD81BDF89A11
:10FD7000992780B50895262FF999FECF92BD81BDB0
:10FD8000F89A019700B4021639F01FBA20BD0FB6D9
:0EFD9000F894FA9AF99A0FBE0895F894FFCFEE
:10FD9E004DC3A443414E2031362D66616368204D1C
:10FDAE0050352D4465636F646572004D5035783162
:02FDBE0036000D
:040000050080022253
:00000001FF
