:020000023000CC
:10F000000D9472F80D949FF80D949FF80D9427FBC2
:10F010000D949FF80D949FF80D949FF80D949FF810
:10F020000D949FF80D949FF80D949FF80D949FF800
:10F030000D949FF80D949FF80D949FF80D949FF8F0
:10F040000D949FF80D949FF80D949FF80D949FF8E0
:10F050000D949FF80D94F9FA0D949FF80D949FF874
:10F060000D949FF80D94DAFD0D940CFE0D949FF80D
:10F070000D949FF80D949FF80D949FF80D949FF8B0
:10F080000D949FF80D949FF80D949FF80D949FF8A0
:10F090000D943AFE0D946CFE0D949FF80D949FF81C
:10F0A0000D949FF80D949FF80D949FF80D949FF880
:10F0B0000D949FF80D949FF80D949FF80D949FF870
:10F0C0000D949FF80D949FF80D949FF80D949FF860
:10F0D0000D949FF80D949FF80D949FF80D949FF850
:10F0E0000D949FF811241FBECFEFD1E2DEBFCDBF3C
:10F0F00001E00CBF14BE0FB6F894A8958091600093
:10F10000886180936000109260000FBE12E0A0E062
:10F11000B2E0EAE7FDEF03E00BBF02C007900D92FB
:10F12000A232B107D9F723E0A2E2B2E001C01D92FA
:10F13000AC3EB207E1F70F9409F90D94BBFE0D94B4
:10F1400000F8FC018081871309C08181861306C005
:10F150008281851303C081E09381941380E0089538
:10F16000F89485B7982F916095BF8D7F85BF1CBEA1
:10F17000E0912202F09123021994CF92DF92EF9254
:10F18000FF921F93CF93DF931FB7F894F999FECFA7
:10F1900023E0FB0180935B0020935700E89507B6BE
:10F1A00000FCFDCFDA0153956B017C0121E0EC916D
:10F1B00011963C911197C32FD0E0DC2FCC27CE0FB6
:10F1C000D11D0E01F601E0925B0020935700E895F7
:10F1D0001124129632E0C30ED11CE11CF11C4A1717
:10F1E0005B0729F725E0FB0180935B002093570024
:10F1F000E89507B600FCFDCF81E180935700E895C4
:10F200001FBFDF91CF911F91FF90EF90DF90CF90C4
:10F21000089581E2E6E1F0E0809357009491E7E100
:10F22000F0E080935700649170E0792B7093D502E1
:10F230006093D402CB01A0E0B0E0BC01CD018D5BB6
:10F24000924B6093CC027093CD028093CE02909348
:10F25000CF020F9454FB9093CB028093CA0285B7E0
:10F26000982F916095BF826085BF0F949FFC80911D
:10F270006900806280936900809169008F7E80932D
:10F280006900EA9A52985A9A84B5826084BD89EFDF
:10F2900087BD80916E00826080936E00789485B502
:10F2A000836085BD80E48093BD0281E08093BE02CF
:10F2B0008091CA029091CB029093C0028093BF02CA
:10F2C00086E08093C1028091CC029091CD02209182
:10F2D000CE023091CF023093C2022093C3029093AA
:10F2E000C4028093C5021092C8021092C902539AB8
:10F2F0005B9A8FEF93E00F94A1FEC82F813069F5E0
:10F300008093C60282E58093C7028DEB92E00F9452
:10F31000F7FC87E08093C1028091C6028F5F8093E3
:10F32000C602C093C7021092C8028DEB92E00F9400
:10F33000F7FC8091C6028F5F8093C60283E08093C2
:10F34000C70280EF8093C8028DEB92E00F94F7FC28
:10F3500060E08FEF93E00F94A9FE77E0F72EC1E015
:10F36000D8E08091E503813009F018C18DE0E0EB31
:10F37000F2E0A8EDB2E001900D928A95E1F71092CB
:10F38000E5038091D8028831B9F48091D9028111C6
:10F3900005C14091CA025091CB026091CC0270919C
:10F3A000CD028091CE029091CF0202E510E020E0E4
:10F3B00030E00F9427FCF2C08D3191F58091D90295
:10F3C0008111ECC04090CC025090CD026090CE02F2
:10F3D0007090CF02B301A2018DED92E00F94A1F8DD
:10F3E000882309F4DBC08091E1028111D7C000912C
:10F3F000D4021091D50220E030E04091CA02509131
:10F40000CB0290E0892E92E0992E6BE1A62E62E06D
:10F41000B62EC12CE12CC301B2010F9462FBBEC019
:10F42000803409F0BBC08091D70281113FC0409168
:10F43000CC025091CD026091CE027091CF028DED41
:10F4400092E00F94A1F8882309F4A8C08091DC020F
:10F45000873019F58091D902813009F09FC08091E1
:10F46000E102813009F09AC08091E302813009F015
:10F4700095C0C093D7028091E8039091E903A091D1
:10F48000EA03B091EB038093D0029093D102A09352
:10F49000D202B093D30260E004C0843009F07EC091
:10F4A00061E08FEF93E00F94A9FE78C08091DC02B9
:10F4B0008830B1F48091D6028F5F8093D602A091FC
:10F4C000DA02A15028E0A29FD0011124AB51BD4F18
:10F4D00088E0EDEDF2E001900D928A95E1F75EC0D3
:10F4E0004091CC025091CD026091CE027091CF023A
:10F4F0008DED92E00F94A1F8882309F44FC080911C
:10F50000E102853081F050F48430B9F58091E20257
:10F5100090E09093E7038093E60340C0863069F162
:10F520008730D1F12AC0F092C1028093C602609167
:10F53000E2026093C70270E08091E6039091E703D6
:10F540006817790721F48091D602803219F0109261
:10F55000C8020CC0762F6627072E000C880B990B6B
:10F5600045EE52E00F94BDF8C093C8028DEB92E0D7
:10F570000F94F7FC1092D60211C040E051E06FEFFB
:10F5800070E085EE92E00F949AFE45EE52E060E066
:10F5900070E0CB010F94BDF81092D7028091E80380
:10F5A0009091E903A091EA03B091EB03803D97406D
:10F5B000A105B10530F08091D702813011F00F9490
:10F5C000B0F82091D7023CE93203C00111248853DE
:10F5D0009F4F2091AE023091AF022817390708F4EF
:10F5E000C0CE1092AF021092AE028BB18D278BB9B4
:10F5F000B8CE1F920F920FB60F9211248F939F9344
:10F60000AF93BF938091E8039091E903A091EA033F
:10F61000B091EB030196A11DB11D8093E803909377
:10F62000E903A093EA03B093EB038091AE029091BB
:10F63000AF0201969093AF028093AE02BF91AF915B
:10F640009F918F910F900FBE0F901F9018951F9252
:10F650000F920FB60F9211240BB60F922F933F9378
:10F660004F935F936F937F938F939F93AF93BF93CA
:10F67000EF93FF9380EB92E00F945AFD81E080932B
:10F68000E503FF91EF91BF91AF919F918F917F9192
:10F690006F915F914F913F912F910F900BBE0F9003
:10F6A0000FBE0F901F9018950F931F938C01222768
:10F6B000332760277127CB018F779C7F93601F9141
:10F6C0000F9108952F923F924F925F926F927F9287
:10F6D0008F929F92AF92BF92CF92DF92EF92FF9262
:10F6E0000F931F93CF93DF93CDB7DEB72D970FB650
:10F6F000F894DEBF0FBECDBF362E472E582EF92E02
:10F700003A018DE1898381E08A8381E093E09C83E3
:10F710008B8388E08D83EE82CF82188619863A87A4
:10F720002B871C870D87CE0101960F94F7FC90E084
:10F73000F501E90FF11D8081882311F09F5FF8CF5B
:10F74000F501DE01119680E0891728F420811596D5
:10F750002C93159703C015961C9215978F5F3196C1
:10F760001196883089F78B819C8101969C838B83CD
:10F77000CE0101960F94F7FC80E0A82EB12CF40185
:10F78000EA0DFB1D9081992311F08F5FF6CF982F22
:10F790009770E82EE694E694E6949111E394212C78
:10F7A0006E0189E0C80ED11C01E010E00C0F1D1F96
:10F7B000080D191DE21419F1FE013196D401C4019E
:10F7C000801B910B9C012E0F3F1F2A153B051CF43B
:10F7D0002C91258301C0158211963196EC15FD05FB
:10F7E00089F78B819C8101969C838B83CE01019646
:10F7F0000F94F7FC239488E0880E911CDBCF8B815B
:10F800007C826B8296E09D83FE825F824886398689
:10F810001A868B87CE0101960F94F7FC2D960FB6B2
:10F82000F894DEBF0FBECDBFDF91CF911F910F9136
:10F83000FF90EF90DF90CF90BF90AF909F908F9010
:10F840007F906F905F904F903F902F9008950F930F
:10F850001F93CF93DF93CDB7DEB72D970FB6F894F4
:10F86000DEBF0FBECDBFE8E1E983E1E0EA835C8360
:10F870004B8348E04D839E838F83788769873A87DF
:10F880002B871C870D87CE0101960F94F7FC2D96D0
:10F890000FB6F894DEBF0FBECDBFDF91CF911F91A1
:10F8A0000F910895209A229A219A2398289A2A9AA9
:10F8B000299A2B9A80E58CBD81E08DBD08958EBD7F
:10F8C0000DB407FEFDCF8EB50895CF93DF93D82FEB
:10F8D000C62F289882E00F945FFC8D2F0F945FFC59
:10F8E0008C2F0F945FFC289ADF91CF9108951F937E
:10F8F000CF93DF93182FD62FC42F289885E00F942D
:10F900005FFC812F0F945FFC8D2F0F945FFC8C2F79
:10F910000F945FFC289ADF91CF911F910895CF93A8
:10F92000289880EB0F945FFC8FEF0F945FFCC82F3B
:10F930008FEF0F945FFC289A8C2FCF9108950F942E
:10F9400052FC289880EC0F945FFC8FE99FE00197B0
:10F95000F1F700C00000289A8FE39CE90197F1F7C6
:10F9600000C0000061E48AE20F9465FC61EF89E267
:10F970000F9465FC65E888E20F9465FC63E08BE218
:10F980000F9465FC60E680E60F9465FC60E680E716
:10F990000F9465FC60E080E20F9465FC60E081E21A
:10F9A0000F9465FC60E082E20F9465FC60E083E206
:10F9B0000F9465FC60E084E20F9465FC60E085E2F2
:10F9C0000F9465FC60E086E20F9465FC60E087E2DE
:10F9D0000F9465FC60E08CE00F9465FC60E08DE0C6
:10F9E0000F9465FC40E060EE8FE00D9477FCCF92C1
:10F9F000DF92EF92FF92CF93DF93EC01C880D12C7E
:10FA0000E12CF12C81E1CC0CDD1CEE1CFF1C8A9555
:10FA1000D1F78981A7019601482BCA80DB80E12CB0
:10FA2000F12CC22AD32AE42AF52A289880E40F94DC
:10FA30005FFCD701C60125E1B695A79597958795F7
:10FA40002A95D1F70F945FFCA70166277727842FAB
:10FA5000837088604C71440F440F440F842B0F94C3
:10FA60005FFC8D2D0F945FFC8C2D0F945FFC8C81BF
:10FA70000F945FFC7E0135E0E30EF11C2D96F7013B
:10FA800081917F010F945FFCEC16FD06C1F7289A67
:10FA9000289881E80F945FFC289A8FE39CE90197EE
:10FAA000F1F700C00000DF91CF91FF90EF90DF9061
:10FAB000CF900895CF92DF92EF92FF920F931F9312
:10FAC000CF93DF93EC010F948FFC182F082F007455
:10FAD00086FF03C0289880E904C087FF61C028988A
:10FAE00084E90F945FFC8FEF0F945FFC28E0829F06
:10FAF000C00111246C01990FEE08FF088FEF0F94DD
:10FB00005FFC982F929596959770C92A92E0CC0C3D
:10FB1000DD1CEE1CFF1C9A95D1F78370C82AFE2CC1
:10FB2000ED2CDC2CCC248FEF0F945FFCC82AFE2C2C
:10FB3000ED2CDC2CCC248FEF0F945FFCB701A601D9
:10FB4000482BDB01CA0171E1B695A795979587957A
:10FB50007A95D1F78883862F817089835B834A8366
:10FB60008FEF0F945FFC8F708C837E0185E0E80E31
:10FB7000F11C2D968FEF0F945FFCF70181937F01AD
:10FB8000EC17FD07B9F7289A40E0002311F061E077
:10FB900001C062E08CE20F9477FC812F877001C076
:10FBA0008FEFDF91CF911F910F91FF90EF90DF903A
:10FBB000CF9008951F920F920FB60F9211240BB69B
:10FBC0000F922F938F939F93EF93FF938091C00099
:10FBD0009091C6008C71E0916B02EF5FEF71209104
:10FBE0006A02E21739F0E0936B02F0E0E259FD4F50
:10FBF000908301C082E090916902892B8093690211
:10FC0000FF91EF919F918F912F910F900BBE0F90CD
:10FC10000FBE0F901F9018951F920F920FB60F9264
:10FC200011240BB60F928F939F93EF93FF939091B4
:10FC30006D0280916C02981769F0E0916C02EF5FA1
:10FC4000EF71E0936C02F0E0E257FD4F808180930A
:10FC5000C60005C08091C1008F7D8093C100FF91D7
:10FC6000EF919F918F910F900BBE0F900FBE0F9051
:10FC70001F9018951F920F920FB60F9211240BB67A
:10FC80000F922F938F939F93EF93FF938091C800D0
:10FC90009091CE008C71E0912602EF5FEF71209180
:10FCA0002502E21739F0E0932602F0E0E75DFD4F10
:10FCB000908301C082E090912402892B80932402DA
:10FCC000FF91EF919F918F912F910F900BBE0F900D
:10FCD0000FBE0F901F9018951F920F920FB60F92A4
:10FCE00011240BB60F928F939F93EF93FF939091F4
:10FCF000280280912702981769F0E0912702EF5FB0
:10FD0000EF71E0932702F0E0E75BFD4F8081809385
:10FD1000CE0005C08091C9008F7D8093C900FF91FE
:10FD2000EF919F918F910F900BBE0F900FBE0F9090
:10FD30001F901895DC0101C06D9341505040E0F7D1
:10FD40000895F999FECF92BD81BDF89A992780B5A3
:10FD50000895262FF999FECF92BD81BDF89A01979B
:10FD600000B4021639F01FBA20BD0FB6F894FA9A03
:0AFD7000F99A0FBE0895F894FFCF32
:10FD7A004DC3A443414E2031362D66616368204D40
:10FD8A0050352D4465636F646572004D5035783186
:02FD9A00360031
:040000050080022253
:00000001FF
