:107000000C9434380C94F73C0C945D380C945D3837
:107010000C945D380C945D380C945D380C945D389C
:107020000C945D380C945D380C945D380C945D388C
:107030000C945D380C945D380C94883A0C945D384F
:107040000C945D380C945D380C94BD3D0C94EB3D74
:107050000C945D380C945D380C945D380C945D385C
:107060000C945D380C945D3811241FBECFEFD8E02E
:10707000DEBFCDBF14BE0FB6F894A8958091600016
:10708000886180936000109260000FBE11E0A0E064
:10709000B1E0E2E6FCE702C005900D92A431B10731
:1070A000D9F722E0A4E1B1E001C01D92AF3DB207E3
:1070B000E1F70E94C0380C942F3E0C940038F894ED
:1070C00085B7982F916095BF8D7F85BFE0911401A2
:1070D000F091150109942FB7F894F999FECF33E098
:1070E000FB0130935700E89507B600FCFDCF91E116
:1070F00090935700E8952FBF0895FF920F931F9329
:10710000CF93DF93CFB7F894F999FECF8B0123E0AB
:10711000FB0120935700E89507B600FCFDCF9A01CC
:1071200020583F4FDA01D1E0A8014A1B5B0BFC90CD
:10713000FA01EA0FFB1F11961C911197012F10E025
:10714000102F00270F0D111D0801D0935700E8954F
:1071500011241296A217B30751F725E0FB012093E3
:107160005700E89507B600FCFDCF81E180935700FA
:10717000E895CFBFDF91CF911F910F91FF900895B8
:1071800081E2E6E1F0E0809357009491E7E1F0E0DE
:1071900080935700E491F0E0F92BF0934502E093DF
:1071A000440285B7982F916095BF826085BF60913A
:1071B000440270914502CB01A0E0B0E0BC01CD01DA
:1071C0008C5B9C4B0E94E33A84B5826084BD89EF5E
:1071D00087BD80916E00826080936E00789485B543
:1071E000836085BD80E48093310281E08093320228
:1071F00080912F0290913002909334028093330259
:1072000086E0809335028091D7029091D802209138
:10721000D9023091DA0230933602209337029093EC
:1072200038028093390210923C0210923D02219A5A
:10723000299A8FEF93E00E94153E813069F5809383
:107240003A0281E580933B0281E392E00E94CC3BCD
:1072500087E08093350280913A028F5F80933A02F3
:1072600010923B0280E880933C0281E392E00E940E
:10727000CC3B80913A028F5F80933A0210923B029E
:1072800080EE80933C0281E392E00E94CC3B60E080
:107290008FEF93E00E941D3EDCE937E0D32ECC2433
:1072A000C394C2E088E492E00E94CE3B882309F4B4
:1072B00004C180914802883159F4809149028111BA
:1072C00030C061E570E080E090E00E94C43CF5C011
:1072D0008D3139F580914902811123C04091D70247
:1072E0005091D8026091D9027091DA028DE492E057
:1072F0000E94F13B8823A9F080915102811111C0B5
:10730000609144027091450280E090E020E0E22E1E
:1073100021E0F22E0DE011E020E040E00E94003C70
:10732000CCC080914802803409F0C7C080914702E8
:1073300081112FC04091D7025091D8026091D9029B
:107340007091DA028DE492E00E94F13B882309F407
:10735000B4C080914C02873099F480914902813009
:1073600009F0ABC080915102813009F0A6C0809134
:107370005302813009F0A1C08093470260E004C04D
:10738000843009F09AC061E08FEF93E00E941D3EC7
:1073900094C080914C028830B1F4809146028F5F96
:1073A00080934602A0914A02A15028E0A29FD001FA
:1073B0001124AB5ABD4F88E0EDE4F2E001900D924C
:1073C0008A95E1F77AC04091D7025091D802609136
:1073D000D9027091DA028DE492E00E94F13B882399
:1073E00009F46BC080915102853091F058F48430DB
:1073F00009F050C08091520290E09093D6028093A1
:10740000D5025BC0863089F1873009F440C042C0A4
:10741000D092350280933A026091520260933B020F
:1074200070E08091D5029091D6026817790721F417
:1074300080914602803119F010923C020FC076957F
:10744000762F662777956795072E000C880B990B8A
:1074500045E552E00E947D38C0923C0281E392E013
:107460000E94CC3B1092460228C0812C912C5401E2
:10747000C501B4010E946B3830E8830E911CA11C39
:10748000B11C811480E79806A104B10489F7109219
:10749000470213C0812C912C5401C501B4010E94F4
:1074A0006B3820E8820E911CA11CB11C811430E7BE
:1074B0009306A104B10489F7EACF8091DB02909191
:1074C000DC02A091DD02B091DE02803D9740A10573
:1074D000B10530F080914702813011F00E945F3891
:1074E000209147023D2F3203C001112488539F4F42
:1074F00020912D0230912E022817390708F4D2CEA0
:1075000010922E0210922D0285B18C2785B9CACE19
:107510001F920F920FB60F9211248F939F93AF93E8
:10752000BF938091DB029091DC02A091DD02B091CB
:10753000DE020196A11DB11D8093DB029093DC0257
:10754000A093DD02B093DE0280912D0290912E0275
:10755000019690932E0280932D02BF91AF919F913F
:107560008F910F900FBE0F901F9018958EBD0DB488
:1075700007FEFDCF8EB50895CF93DF93D82FC62F8A
:107580002A9882E00E94B63A8D2F0E94B63A8C2F3C
:107590000E94B63A2A9ADF91CF910895CF93DF9354
:1075A000D82FC62F2A9885E00E94B63A8D2F0E94C8
:1075B000B63A8C2F0E94B63A80E00E94B63A2A9AD8
:1075C000DF91CF9108950F931F936093D70270932B
:1075D000D8028093D9029093DA028C0122273327B4
:1075E000602771276F777C7F7360709330026093A0
:1075F0002F02229A239A259A24982A9A2B9A2D9A16
:107600002C9A80E58CBD81E08DBD2A9880EC0E948B
:10761000B63A8FE891E00197F1F700C000002A9A8E
:107620008FE99FE00197F1F700C0000061E48AE272
:107630000E94BC3A61EF89E20E94BC3A65E888E2A8
:107640000E94BC3A63E08BE20E94BC3A60E680E6AE
:107650000E94BC3A60E680E70E94BC3A60E080E2AB
:107660000E94BC3A60E081E20E94BC3A60E082E2A3
:107670000E94BC3A60E083E20E94BC3A60E084E28F
:107680000E94BC3A60E085E20E94BC3A60E086E27B
:107690000E94BC3A60E087E20E94BC3A60E08CE065
:1076A0000E94BC3A60E08DE00E94BC3A60EE8FE040
:1076B0000E94CE3A52985A9AE9E6F0E080818160C1
:1076C0008083E89A52985A9A1F910F910895CF9209
:1076D000DF92EF92FF92CF93DF93EC01C880D12C21
:1076E000E12CF12C81E1CC0CDD1CEE1CFF1C8A95F9
:1076F000D1F78981A7019601482BCA80DB80E12C54
:10770000F12CC22AD32AE42AF52AF8942A9880E494
:107710000E94B63AD701C60125E1B695A79597957F
:1077200087952A95D1F70E94B63AA7016627772751
:10773000842F8C71880F880F880F43704860842BCA
:107740000E94B63A8D2D0E94B63A8C2D0E94B63A10
:107750008C810E94B63A7E0135E0E30EF11C2D9635
:10776000F70181917F010E94B63ACE15DF05C1F77E
:107770002A9A2A9881E80E94B63A2A9A78948FE940
:107780009FE00197F1F700C00000DF91CF91FF90DB
:10779000EF90DF90CF9008950C94673BDC019091BF
:1077A0001701809116019817B1F0F894E091170134
:1077B0009DE09E9FF0011124E85EFE4F01900D9226
:1077C0009A95E1F77894809117018F5F803128F0C6
:1077D0001092170104C080E008958093170181E0A2
:1077E0000895FC018081871309C08181861306C03A
:1077F0008281851303C081E09381941380E0089512
:107800008F929F92AF92BF92CF92DF92EF92FF92B0
:107810000F931F93CF93DF93CDB7DEB72D970FB69E
:10782000F894DEBF0FBECDBF3DE1398331E03A832E
:10783000E1E0F3E0FC83EB8338E03D834E832F836C
:10784000188619869A878B877C876D87CE0101966B
:107850000E94673B90E0F801E90FF11D80818823C9
:1078600011F09F5FF8CFF801DE01119680E08917D3
:1078700028F4208115962C93159703C015961C9219
:1078800015978F5F31961196883089F78B819C818F
:1078900001969C838B83CE0101960E94673B80E01A
:1078A000C82ED12CF701EC0DFD1D9081992311F00C
:1078B0008F5FF6CF982F977086958695869599233A
:1078C00019F011E0180F01C0182F00E04E0189E0F7
:1078D000880E911CAA24A394B12CAC0EBD1EAE0C34
:1078E000BF1C101719F1FE013196D701C7018A1983
:1078F0009B099C012E0F3F1F2C153D051CF42C915C
:10790000258301C0158211963196E815F90589F78E
:107910008B819C8101969C838B83CE0101960E9472
:10792000673B0F5F88E0E80EF11CDBCF8B81209175
:107930002F02309130023C832B8396E09D839091FF
:10794000D7022091D8023091D9024091DA024E83B9
:107950003F83288799871A868B87CE0101960E94DC
:10796000673B2D960FB6F894DEBF0FBECDBFDF91FB
:10797000CF911F910F91FF90EF90DF90CF90BF902C
:10798000AF909F908F900895CF93DF93CDB7DEB7E0
:107990002D970FB6F894DEBF0FBECDBF28E1298327
:1079A00021E02A8320912F02309130023C832B83E7
:1079B00028E02D832091D7023091D8024091D9023E
:1079C0005091DA025E834F83388729879A878B87A5
:1079D0007C876D87CE0101960E94673B2D960FB67E
:1079E000F894DEBF0FBECDBFDF91CF9108951F92F7
:1079F0000F920FB60F921124BF92CF92DF92EF92A7
:107A0000FF920F931F932F933F934F935F936F9327
:107A10007F938F939F93AF93BF93CF93DF93EF9316
:107A2000FF931091160101E0010F0F708091170173
:107A3000081709F488C02A9880EB0E94B63A8FEFA5
:107A40000E94B63AC82F8FEF0E94B63A2A9A2C2F7E
:107A50002074B22EC6FF03C02A9880E904C0C7FF75
:107A600070C02A9884E90E94B63A1F70C12FD0E0F6
:107A70008FEF0E94B63A38E0839FC00111246C0159
:107A8000990FEE08FF088FEF0E94B63A982F929553
:107A900096959770C92A92E0CC0CDD1CEE1CFF1C59
:107AA0009A95D1F78370C82AFE2CED2CDC2CCC24BF
:107AB0008FEF0E94B63AC82AFE2CED2CDC2CCC2489
:107AC0008FEF0E94B63AA7019601282BDA01C9016F
:107AD0004DE04C9F90014D9F300D1124E901C85E8F
:107AE000DE4FAC01BD01E1E176956795579547956D
:107AF000EA95D1F748832A2F217029839B838A83B3
:107B00008FEF0E94B63A8F708C833DE0139F700117
:107B10001124C0E0D0E08FEF0E94B63AF701EC0FDD
:107B2000FD1FE85EFE4F85832196C830D10599F789
:107B30002A9ABB2011F061E001C062E08CE20E9451
:107B4000CE3A00931601FF91EF91DF91CF91BF9153
:107B5000AF919F918F917F916F915F914F913F91E5
:107B60002F911F910F91FF90EF90DF90CF90BF90DA
:107B70000F900FBE0F901F9018951F920F920FB687
:107B80000F9211242F938F939F93EF93FF938091E4
:107B9000C0009091C6008C71E091EA01EF5FEF7137
:107BA0002091E901E21739F0E093EA01F0E0E351B6
:107BB000FE4F908301C082E09091E801892B809371
:107BC000E801FF91EF919F918F912F910F900FBE40
:107BD0000F901F9018951F920F920FB60F921124BD
:107BE0008F939F93EF93FF939091EC018091EB0122
:107BF000981769F0E091EB01EF5FEF71E093EB0113
:107C0000F0E0E35FFD4F80818093C60005C0809166
:107C1000C1008F7D8093C100FF91EF919F918F9163
:107C20000F900FBE0F901F901895F999FECF92BD3F
:107C300081BDF89A992780B50895262FF999FECF2E
:107C400092BD81BDF89A019700B4021639F01FBAAF
:107C500020BD0FB6F894FA9AF99A0FBE0895F894D9
:027C6000FFCF54
:107C6200427573616E6B6F70706C65720042414B4E
:047C72002D30310080
:040000050080011462
:00000001FF
