:020000023000CC
:10F000000D9472F80D949FF80D949FF80D94DEFD09
:10F010000D949FF80D949FF80D949FF80D949FF810
:10F020000D949FF80D949FF80D949FF80D949FF800
:10F030000D949FF80D949FF80D949FF80D949FF8F0
:10F040000D949FF80D949FF80D949FF80D949FF8E0
:10F050000D949FF80D94D3FA0D949FF80D949FF89A
:10F060000D949FF80D9406FE0D9438FE0D949FF8B4
:10F070000D949FF80D949FF80D949FF80D949FF8B0
:10F080000D949FF80D949FF80D949FF80D949FF8A0
:10F090000D9466FE0D9498FE0D949FF80D949FF8C4
:10F0A0000D949FF80D949FF80D949FF80D949FF880
:10F0B0000D949FF80D949FF80D949FF80D949FF870
:10F0C0000D949FF80D949FF80D949FF80D949FF860
:10F0D0000D949FF80D949FF80D949FF80D949FF850
:10F0E0000D949FF811241FBECFEFD1E2DEBFCDBF3C
:10F0F00001E00CBF14BE0FB6F894A8958091600093
:10F10000886180936000109260000FBE12E0A0E062
:10F11000B2E0E2EDFDEF03E00BBF02C007900D92FD
:10F12000A232B107D9F724E0A2E2B2E001C01D92F9
:10F13000AC3AB207E1F70F9409F90D94E7FE0D948C
:10F1400000F8FC018081871309C08181861306C005
:10F150008281851303C081E09381941380E0089538
:10F16000F89485B7982F916095BF8D7F85BF1CBEA1
:10F17000E0912202F09123021994CF92DF92EF9254
:10F18000FF921F93CF93DF931FB7F894F999FECFA7
:10F1900023E0FB0180935B0020935700E89507B6BE
:10F1A00000FCFDCFDA0153956B017C0121E0EC916D
:10F1B00011963C911197C32FD0E0DC2FCC27CE0FB6
:10F1C000D11D0E01F601E0925B0020935700E895F7
:10F1D0001124129632E0C30ED11CE11CF11C4A1717
:10F1E0005B0729F725E0FB0180935B002093570024
:10F1F000E89507B600FCFDCF81E180935700E895C4
:10F200001FBFDF91CF911F91FF90EF90DF90CF90C4
:10F21000089581E2E6E1F0E0809357009491E7E100
:10F22000F0E080935700649170E0792B709396031F
:10F2300060939503CB01A0E0B0E0BC01CD018D5BF4
:10F24000924B6093910370939203809393039093F6
:10F2500094030F9401FB9093900380938F0385B7E1
:10F26000982F916095BF826085BF0F944CFC84B548
:10F27000826084BD89EF87BD80916E00826080933B
:10F280006E00789485B5836085BD80E480938203A9
:10F2900081E08093830380918F03909190039093FA
:10F2A00085038093840386E0809386038091910395
:10F2B00090919203209193033091940330938703AC
:10F2C000209388039093890380938A0310928D037F
:10F2D00010928E03539A5B9A8FEF93E00F94CDFEBA
:10F2E000C82F813069F580938B0382E580938C036E
:10F2F00082E893E00F9417FD87E080938603809166
:10F300008B038F5F80938B03C0938C0310928D03CC
:10F3100082E893E00F9417FD80918B038F5F8093B9
:10F320008B0383E080938C0380EF80938D0382E8CE
:10F3300093E00F9417FD60E08FEF93E00F94D5FEFC
:10F3400077E0F72EC1E0D8E089E993E00F94D6FD8D
:10F35000882309F4FDC0809199038831B9F4809124
:10F360009A038111F5C040918F03509190036091F1
:10F37000910370919203809193039091940302E51D
:10F3800010E020E030E00F94D4FBE2C08D3191F525
:10F3900080919A038111DCC04090910350909203B8
:10F3A0006090930370909403B301A2018EE993E0FF
:10F3B0000F94A1F8882309F4CBC08091A203811196
:10F3C000C7C0009195031091960320E030E0409172
:10F3D0008F035091900390E0892E92E0992E6BE17B
:10F3E000A62E62E0B62EC12CE12CC301B2010F940F
:10F3F0000FFBAEC0803409F0ABC08091980381113F
:10F400002FC04091910350919203609193037091AA
:10F4100094038EE993E00F94A1F8882309F498C02F
:10F4200080919D03873099F480919A03813009F08F
:10F430008FC08091A203813009F08AC08091A4031B
:10F44000813009F085C0C093980360E004C0843027
:10F4500009F07EC061E08FEF93E00F94D5FE78C095
:10F4600080919D038830B1F4809197038F5F8093E2
:10F470009703A0919B03A15028E0A29FD0011124E3
:10F48000AA55BC4F88E0EEE9F3E001900D928A9511
:10F49000E1F75EC040919103509192036091930314
:10F4A000709194038EE993E00F94A1F8882309F4F6
:10F4B0004FC08091A203853081F050F48430B9F5BB
:10F4C0008091A30390E09093A7048093A60440C08A
:10F4D000863069F18730D1F12AC0F092860380939B
:10F4E0008B036091A30360938C0370E08091A6046A
:10F4F0009091A7046817790721F4809197038032CF
:10F5000019F010928D030CC0762F6627072E000C81
:10F51000880B990B46EA53E00F94BDF8C0938D0316
:10F5200082E893E00F9417FD1092970311C040E01A
:10F5300051E06FEF70E086EA93E00F94C6FE46EA72
:10F5400053E060E070E0CB010F94BDF81092980397
:10F550008091A8049091A904A091AA04B091AB0451
:10F56000803D9740A105B10530F08091980381302E
:10F5700011F00F94B0F8209198033CE93203C001D8
:10F58000112488539F4F20918003309181032817C5
:10F59000390708F4D9CE10928103109280038BB101
:10F5A0008D278BB9D1CE1F920F920FB60F921124D7
:10F5B0008F939F93AF93BF938091A8049091A904D8
:10F5C000A091AA04B091AB040196A11DB11D809336
:10F5D000A8049093A904A093AA04B093AB048091CB
:10F5E000800390918103019690938103809380031F
:10F5F000BF91AF919F918F910F900FBE0F901F9071
:10F6000018950F931F938C012227332760277127AA
:10F61000CB018F779C7F93601F910F9108952F925C
:10F620003F924F925F926F927F928F929F92AF9292
:10F63000BF92CF92DF92EF92FF920F931F93CF93DF
:10F64000DF93CDB7DEB72D970FB6F894DEBF0FBEB0
:10F65000CDBF362E472E582EF92E3A018DE18983E3
:10F6600081E08A8381E093E09C838B8388E08D83B3
:10F67000EE82CF82188619863A872B871C870D87E2
:10F68000CE0101960F9417FD90E0F501E90FF11DF1
:10F690008081882311F09F5FF8CFF501DE0111967C
:10F6A00080E0891728F4208115962C93159703C0C4
:10F6B00015961C9215978F5F31961196883089F7B1
:10F6C0008B819C8101969C838B83CE0101960F9444
:10F6D00017FD80E0A82EB12CF401EA0DFB1D9081EE
:10F6E000992311F08F5FF6CF982F9770E82EE6944C
:10F6F000E694E6949111E394212C6E0189E0C80E02
:10F70000D11C01E010E00C0F1D1F080D191DE214A3
:10F7100019F1FE013196D401C401801B910B9C01AB
:10F720002E0F3F1F2A153B051CF42C91258301C089
:10F73000158211963196EC15FD0589F78B819C8118
:10F7400001969C838B83CE0101960F9417FD239421
:10F7500088E0880E911CDBCF8B817C826B8296E0E7
:10F760009D83FE825F82488639861A868B87CE010A
:10F7700001960F9417FD2D960FB6F894DEBF0FBEBD
:10F78000CDBFDF91CF911F910F91FF90EF90DF9050
:10F79000CF90BF90AF909F908F907F906F905F9031
:10F7A0004F903F902F9008950F931F93CF93DF9327
:10F7B000CDB7DEB72D970FB6F894DEBF0FBECDBF25
:10F7C000E8E1E983E1E0EA835C834B8348E04D8331
:10F7D0009E838F83788769873A872B871C870D875D
:10F7E000CE0101960F9417FD2D960FB6F894DEBF4B
:10F7F0000FBECDBFDF91CF911F910F910895209A39
:10F80000229A219A2398289A2A9A299A2B9A80E553
:10F810008CBD81E08DBD08958EBD0DB407FEFDCF7A
:10F820008EB50895CF93DF93D82FC62F289882E006
:10F830000F940CFC8D2F0F940CFC8C2F0F940CFC50
:10F84000289ADF91CF9108951F93CF93DF93182FBC
:10F85000D62FC42F289885E00F940CFC812F0F948D
:10F860000CFC8D2F0F940CFC8C2F0F940CFC289A01
:10F87000DF91CF911F910895CF93289880EB0F943B
:10F880000CFC8FEF0F940CFCC82F8FEF0F940CFC27
:10F89000289A8C2FCF9108950F94FFFB289880EC25
:10F8A0000F940CFC8FE891E00197F1F700C0000085
:10F8B000289A8FE99FE00197F1F700C0000061E40A
:10F8C0008AE20F9412FC61EF89E20F9412FC65E862
:10F8D00088E20F9412FC63E08BE20F9412FC60E666
:10F8E00080E60F9412FC60E680E70F9412FC60E063
:10F8F00080E20F9412FC60E081E20F9412FC60E061
:10F9000082E20F9412FC60E083E20F9412FC60E04C
:10F9100084E20F9412FC60E085E20F9412FC60E038
:10F9200086E20F9412FC60E087E20F9412FC60E024
:10F930008CE00F9412FC60E08DE00F9412FC40E02C
:10F9400060EE8FE00F9424FCE9E6F0E080818062B5
:10F95000808380818F7E8083EA9A52985A9A529847
:10F960005A9A0895CF92DF92EF92FF92CF93DF934E
:10F97000EC01C880D12CE12CF12C81E1CC0CDD1CF8
:10F98000EE1CFF1C8A95D1F78981A7019601482BAF
:10F99000CA80DB80E12CF12CC22AD32AE42AF52A82
:10F9A000F894289880E40F940CFCD701C60125E157
:10F9B000B695A795979587952A95D1F70F940CFC46
:10F9C000A70166277727842F8C71880F880F880FEF
:10F9D00043704860842B0F940CFC8D2D0F940CFC0D
:10F9E0008C2D0F940CFC8C810F940CFC7E0135E067
:10F9F000E30EF11C2D96F70181917F010F940CFC11
:10FA0000CE15DF05C1F7289A289881E80F940CFCE1
:10FA1000289A78948FE99FE00197F1F700C00000E1
:10FA2000DF91CF91FF90EF90DF90CF9008950D94EC
:10FA3000B2FCCF92DF92EF92FF920F931F93CF937E
:10FA4000DF93EC010F943CFC182F082F007486FF05
:10FA500003C0289880E904C087FF61C0289884E922
:10FA60000F940CFC8FEF0F940CFC28E0829FC001D8
:10FA700011246C01990FEE08FF088FEF0F940CFC16
:10FA8000982F929596959770C92A92E0CC0CDD1C20
:10FA9000EE1CFF1C9A95D1F78370C82AFE2CED2C22
:10FAA000DC2CCC248FEF0F940CFCC82AFE2CED2C00
:10FAB000DC2CCC248FEF0F940CFCB701A601482B53
:10FAC000DB01CA0171E1B695A795979587957A955F
:10FAD000D1F78883862F817089835B834A838FEF78
:10FAE0000F940CFC8F708C837E0185E0E80EF11C76
:10FAF0002D968FEF0F940CFCF70181937F01EC178B
:10FB0000FD07B9F7289A40E0002311F061E001C039
:10FB100062E08CE20F9424FC812F877001C08FEF8C
:10FB2000DF91CF911F910F91FF90EF90DF90CF90D9
:10FB30000895CF9380912402C1E0C80FCF709091B7
:10FB40002502C91769F08F702DE0829FC001112432
:10FB50008A5D9D4F0F9419FDC093240281E001C07E
:10FB600080E0CF910895DC019091250280912402DC
:10FB70009817D1F0F894E09125029DE09E9FF00146
:10FB80001124EA5DFD4F01900D929A95E1F778946A
:10FB9000809125028F5F803118F48093250202C086
:10FBA0001092250281E0089580E008950F94B3FD3E
:10FBB00091E0813009F090E0892F08951F920F9213
:10FBC0000FB60F9211240BB60F922F933F934F93C2
:10FBD0005F936F937F938F939F93AF93BF93EF93B5
:10FBE000FF930F9499FDFF91EF91BF91AF919F917A
:10FBF0008F917F916F915F914F913F912F910F90D6
:10FC00000BBE0F900FBE0F901F9018951F920F9272
:10FC10000FB60F9211240BB60F922F938F939F93D1
:10FC2000EF93FF938091C0009091C6008C71E0919A
:10FC30003D03EF5FEF7120913C03E21739F0E09351
:10FC40003D03F0E0E05CFC4F908301C082E09091C6
:10FC50003B03892B80933B03FF91EF919F918F9101
:10FC60002F910F900BBE0F900FBE0F901F90189505
:10FC70001F920F920FB60F9211240BB60F928F9313
:10FC80009F93EF93FF9390913F0380913E039817CA
:10FC900069F0E0913E03EF5FEF71E0933E03F0E027
:10FCA000E05AFC4F80818093C60005C08091C1005E
:10FCB0008F7D8093C100FF91EF919F918F910F9065
:10FCC0000BBE0F900FBE0F901F9018951F920F92B2
:10FCD0000FB60F9211240BB60F922F938F939F9311
:10FCE000EF93FF938091C8009091CE008C71E091CA
:10FCF000F802EF5FEF712091F702E21739F0E0931D
:10FD0000F802F0E0E550FD4F908301C082E0909151
:10FD1000F602892B8093F602FF91EF919F918F91CC
:10FD20002F910F900BBE0F900FBE0F901F90189544
:10FD30001F920F920FB60F9211240BB60F928F9352
:10FD40009F93EF93FF939091FA028091F902981795
:10FD500069F0E091F902EF5FEF71E093F902F0E0F2
:10FD6000E55EFC4F80818093CE0005C08091C90084
:10FD70008F7D8093C900FF91EF919F918F910F909C
:10FD80000BBE0F900FBE0F901F901895DC0101C0A5
:10FD90006D9341505040E0F70895F999FECF92BD20
:10FDA00081BDF89A992780B50895262FF999FECF3D
:10FDB00092BD81BDF89A019700B4021639F01FBABE
:10FDC00020BD0FB6F894FA9AF99A0FBE0895F894E8
:02FDD000FFCF63
:10FDD2004DC3A443414E2031362D66616368204DE8
:10FDE20050352D4465636F646572004D503578312E
:02FDF2003600D9
:040000050080022253
:00000001FF
