:020000023000CC
:10F000000D9472F80D949FF80D949FF80D94A2FD45
:10F010000D949FF80D949FF80D949FF80D949FF810
:10F020000D949FF80D949FF80D949FF80D949FF800
:10F030000D949FF80D949FF80D949FF80D949FF8F0
:10F040000D949FF80D949FF80D949FF80D949FF8E0
:10F050000D949FF80D9431FB0D949FF80D949FF83B
:10F060000D949FF80D9482FE0D94B4FE0D949FF8BC
:10F070000D949FF80D949FF80D949FF80D949FF8B0
:10F080000D949FF80D949FF80D949FF80D949FF8A0
:10F090000D94E2FE0D9414FF0D949FF80D949FF8CB
:10F0A0000D949FF80D949FF80D949FF80D949FF880
:10F0B0000D949FF80D949FF80D949FF80D949FF870
:10F0C0000D949FF80D949FF80D949FF80D949FF860
:10F0D0000D949FF80D949FF80D949FF80D949FF850
:10F0E0000D949FF811241FBECFEFD1E2DEBFCDBF3C
:10F0F00001E00CBF14BE0FB6F894A8958091600093
:10F10000886180936000109260000FBE12E0A0E062
:10F11000B2E0ECEBFEEF03E00BBF02C007900D92F4
:10F12000A232B107D9F724E0A2E2B2E001C01D92F9
:10F13000A33BB207E1F70F940EF90D945CFF0D9419
:10F1400000F8F89485B7982F916095BF8D7F85BFA3
:10F150001CBEE0912202F091230219942FB7F8947B
:10F16000F999FECF33E0FB0180935B0030935700A9
:10F17000E89507B600FCFDCF91E190935700E89524
:10F180002FBF0895CF92DF92EF92FF921F93CF93FC
:10F19000DF931FB7F894F999FECF23E0FB0180932A
:10F1A0005B0020935700E89507B600FCFDCFDA011D
:10F1B00053956B017C0121E0EC9111963C911197E4
:10F1C000C32FD0E0DC2FCC27CE0FD11D0E01F601CE
:10F1D000E0925B0020935700E8951124129632E0EC
:10F1E000C30ED11CE11CF11C4A175B0729F725E06F
:10F1F000FB0180935B0020935700E89507B600FC65
:10F20000FDCF81E180935700E8951FBFDF91CF913B
:10F210001F91FF90EF90DF90CF90089581E2E6E19B
:10F22000F0E0809357009491E7E1F0E0809357007D
:10F23000E491F0E0F92BF0939903E093980385B7FC
:10F24000982F916095BF826085BF609198037091FF
:10F250009903CB01A0E0B0E0BC01CD018D5B924BE6
:10F260000F948CFB84B5826084BD89EF87BD80914B
:10F270006E00826080936E00789485B5836085BD52
:10F2800080E48093850381E08093860380918303EB
:10F29000909184039093880380938703D7E0D09361
:10F2A00089038091AB049091AC042091AD0430911E
:10F2B000AE0430938A0320938B0390938C03809346
:10F2C0008D031092900310929103539A5B9A8FEFE3
:10F2D00093E00F9442FFC82F813071F580938E0325
:10F2E00082E580938F03C093900385E893E00F94A9
:10F2F00078FCD093890380918E038F5F80938E0377
:10F30000C0938F031092900385E893E00F9478FCEC
:10F3100080918E038F5F80938E0383E080938F03B1
:10F3200080EF8093900385E893E00F9478FC60E091
:10F330008FEF93E00F944AFF35E0D32ED7E0C1E082
:10F3400042E5C42E53E0B52E60EFA62E8CE993E083
:10F350000F947AFC882309F458C180919C0388316A
:10F3600059F480919D03811130C062E570E080E026
:10F3700090E00F946FFD49C18D3139F580919D0367
:10F38000811123C04091AB045091AC046091AD0455
:10F390007091AE0481EA93E00F949CFC8823A9F05D
:10F3A0008091A503811111C0609198037091990318
:10F3B00080E090E020E0E22E22E0F22E0BE112E06D
:10F3C00020E040E00F94ABFC20C180919C0380348E
:10F3D00009F01BC180919B03811154C04091AB0483
:10F3E0005091AC046091AD047091AE0481EA93E059
:10F3F0000F949CFC882309F408C18091A0038730F6
:10F40000B9F480919D03813009F0FFC08091A5037C
:10F41000813009F0FAC08091A703813009F0F5C06E
:10F4200080939B0360E08FEF93E00F944AFFEDC061
:10F43000843009F0EAC0C0938E03C0928F03C0935A
:10F44000900385E893E00F9478FCD0938903809132
:10F450008E038F5F80938E03C0938F03109290036F
:10F4600085E893E00F9478FC80918E038F5F809302
:10F470008E03B0928F03A092900385E893E00F94DF
:10F4800078FCC3C08091A0038830B1F480919A03C6
:10F490008F5F80939A03A0919E03A15028E0A29FC2
:10F4A000D0011124A755BC4F88E0E1EAF3E00190B8
:10F4B0000D928A95E1F7A9C04091AB045091AC043C
:10F4C0006091AD047091AE0481EA93E00F949CFCCE
:10F4D000882309F49AC08091A503863009F46DC091
:10F4E00028F4843059F0853069F07CC08431A1F172
:10F4F0008531F1F1873009F075C071C08091A603A4
:10F5000090E031C0D093890380938E036091A6036D
:10F5100060938F0370E08091A9049091AA0468170A
:10F52000790721F480919A03803219F010929003A8
:10F530000CC0762F6627072E000C880B990B49EA22
:10F5400053E00F94C2F8C093900385E893E00F94C2
:10F5500078FC10929A0359C08091A6039091A7035A
:10F560009827892798279093AA048093A9044DC0CF
:10F5700080938E038091A60380938F036091A703ED
:10F580006093900370E0782B8091A9049091AA0475
:10F590006817790721F480919A03803219F0D0928C
:10F5A0008903D3CFD0938903762F662780E090E03C
:10F5B00049EA53E00F94C2F8C8CF412C512C3201D4
:10F5C000C301B2010F94AEF83FEF531A630A730AF6
:10F5D000411480EF580683E06806710489F71092A1
:10F5E0009B0313C0412C512C3201C301B2010F9473
:10F5F000AEF82FEF521A620A720A411430EF530626
:10F6000033E06306710489F7EACF8091AF049091EB
:10F61000B004A091B104B091B204803D9740A1051F
:10F62000B10530F080919B03813011F00F94A1F867
:10F6300020919B033CE93203C001112488539F4F62
:10F6400020918103309182032817390708F47ECE78
:10F6500010928203109281039BB188E089278BB9B5
:10F6600075CE1F920F920FB60F9211248F939F9316
:10F67000AF93BF938091AF049091B004A091B10477
:10F68000B091B2040196A11DB11D8093AF04909377
:10F69000B004A093B104B093B2048091810390911F
:10F6A000820301969093820380938103BF91AF916F
:10F6B0009F918F910F900FBE0F901F9018958EBD48
:10F6C0000DB407FEFDCF8EB50895CF93DF93D82FED
:10F6D000C62F289882E00F945FFB8D2F0F945FFB5D
:10F6E0008C2F0F945FFB289ADF91CF910895CF93D1
:10F6F000DF93D82FC62F289885E00F945FFB8D2FBE
:10F700000F945FFB8C2F0F945FFB80E00F945FFBE7
:10F71000289ADF91CF9108950F931F936093AB04C4
:10F720007093AC048093AD049093AE048C012227B7
:10F730003327602771276F777C7F73607093840312
:10F7400060938303209A229A219A2398289A2A9ACE
:10F75000299A2B9A80E58CBD81E08DBD289880EC9C
:10F760000F945FFB8FE891E00197F1F700C0000074
:10F77000289A8FE99FE00197F1F700C0000061E44B
:10F780008AE20F9465FB61EF89E20F9465FB65E8FF
:10F7900088E20F9465FB63E08BE20F9465FB60E603
:10F7A00080E60F9465FB60E680E70F9465FB60E000
:10F7B00080E20F9465FB60E081E20F9465FB60E0FE
:10F7C00082E20F9465FB60E083E20F9465FB60E0EA
:10F7D00084E20F9465FB60E085E20F9465FB60E0D6
:10F7E00086E20F9465FB60E087E20F9465FB60E0C2
:10F7F0008CE00F9465FB60E08DE00F9465FB60EE9C
:10F800008FE00F9477FBE9E6F0E0808180628083EF
:10F8100080818F7E8083EA9A52985A9A52985A9A97
:10F820001F910F910895CF92DF92EF92FF92CF93A5
:10F83000DF93EC01C880D12CE12CF12C81E1CC0CC0
:10F84000DD1CEE1CFF1C8A95D1F78981A70196016A
:10F85000482BCA80DB80E12CF12CC22AD32AE42A6F
:10F86000F52AF894289880E40F945FFBD701C6012D
:10F8700025E1B695A795979587952A95D1F70F9489
:10F880005FFBA70166277727842F8C71880F880F6D
:10F89000880F43704860842B0F945FFB8D2D0F946D
:10F8A0005FFB8C2D0F945FFB8C810F945FFB7E01BF
:10F8B00035E0E30EF11C2D96F70181917F010F9445
:10F8C0005FFBCE15DF05C1F7289A289881E80F94D1
:10F8D0005FFB289A78948FE99FE00197F1F700C0C9
:10F8E0000000DF91CF91FF90EF90DF90CF900895CF
:10F8F0000D9413FCDC01F8943DE0209124022223B6
:10F90000B1F090912602399FF0011124E95DFD4F7D
:10F9100001900D923A95E1F72150209324029F5FC8
:10F9200090932602903128F01092260202C080E0C7
:10F9300001C081E078940895FC018081871309C09B
:10F940008181861306C08281851303C081E0938183
:10F95000941380E008958F929F92AF92BF92CF92BE
:10F96000DF92EF92FF920F931F93CF93DF93CDB768
:10F97000DEB72D970FB6F894DEBF0FBECDBF3DE1C9
:10F98000398331E03A83E1E0F3E0FC83EB8338E054
:10F990003D834E832F83188619869A878B877C87B1
:10F9A0006D87CE0101960F9413FC90E0F801E90FEA
:10F9B000F11D8081882311F09F5FF8CFF801DE01EF
:10F9C000119680E0891728F4208115962C931597BD
:10F9D00003C015961C9215978F5F3196119688304B
:10F9E00089F78B819C8101969C838B83CE01019644
:10F9F0000F9413FC80E0C82ED12CF701EC0DFD1DF7
:10FA00009081992311F08F5FF6CF982F977086958C
:10FA100086958695992319F011E0180F01C0182FCB
:10FA200000E04E0189E0880E911CAA24A394B12C19
:10FA3000AC0EBD1EAE0CBF1C101719F1FE013196A5
:10FA4000D701C7018A199B099C012E0F3F1F2C1556
:10FA50003D051CF42C91258301C015821196319629
:10FA6000E815F90589F78B819C8101969C838B832E
:10FA7000CE0101960F9413FC0F5F88E0E80EF11C95
:10FA8000DBCF8B8120918303309184033C832B83D4
:10FA900096E09D839091AB042091AC043091AD042D
:10FAA0004091AE044E833F83288799871A868B87BF
:10FAB000CE0101960F9413FC2D960FB6F894DEBF7D
:10FAC0000FBECDBFDF91CF911F910F91FF90EF90AF
:10FAD000DF90CF90BF90AF909F908F900895CF937D
:10FAE000DF93CDB7DEB72D970FB6F894DEBF0FBE0C
:10FAF000CDBF28E1298321E02A832091830330911F
:10FB000084033C832B8328E02D832091AB04309128
:10FB1000AC044091AD045091AE045E834F833887AE
:10FB200029879A878B877C876D87CE0101960F94F2
:10FB300013FC2D960FB6F894DEBF0FBECDBFDF913C
:10FB4000CF9108951F920F920FB60F9211240BB60A
:10FB50000F92CF92DF92EF92FF920F931F932F930A
:10FB60003F934F935F936F937F938F939F93AF9345
:10FB7000BF93CF93DF93EF93FF93F8948091250287
:10FB80008F5F803118F48093250202C01092250205
:10FB900010912502289880EB0F945FFB8FEF0F9454
:10FBA0005FFBC82F8FEF0F945FFB289A0C2F007418
:10FBB000C6FF03C0289880E904C0C7FF72C0289818
:10FBC00084E90F945FFBC12FD0E08FEF0F945FFBB0
:10FBD00028E0829FC00111246C01990FEE08FF08F4
:10FBE0008FEF0F945FFB982F929596959770C92A87
:10FBF00092E0CC0CDD1CEE1CFF1C9A95D1F78370B3
:10FC0000C82AFE2CED2CDC2CCC248FEF0F945FFB4C
:10FC1000C82AFE2CED2CDC2CCC248FEF0F945FFB3C
:10FC2000A7019601282BDA01C9014DE04C9F9001F4
:10FC30004D9F300D1124E901C95DDD4FAC01BD01BF
:10FC4000E1E17695679557954795EA95D1F7FE01DD
:10FC500041932A2F21702083FE0132969183808365
:10FC60008FEF0F945FFB8F708C833DE0139F7001CB
:10FC70001124C0E0D0E08FEF0F945FFBFE01EE0D8A
:10FC8000FF1DE95DFD4F85832196C830D10599F7A9
:10FC9000289A002311F061E001C062E08CE20F9429
:10FCA00077FB80912402803118F48F5F80932402C7
:10FCB000809124028031E0F47894FF91EF91DF91FC
:10FCC000CF91BF91AF919F918F917F916F915F91F4
:10FCD0004F913F912F911F910F91FF90EF90DF90E7
:10FCE000CF900F900BBE0F900FBE0F901F901895E6
:10FCF000809126028F5F809326028031E8F2109275
:10FD00002602DACF1F920F920FB60F9211240BB674
:10FD10000F922F938F939F93EF93FF938091C00047
:10FD20009091C6008C71E0913E03EF5FEF712091DE
:10FD30003D03E21739F0E0933E03F0E0EF5BFC4F48
:10FD4000908301C082E090913C03892B80933C0317
:10FD5000FF91EF919F918F912F910F900BBE0F907C
:10FD60000FBE0F901F9018951F920F920FB60F9213
:10FD700011240BB60F928F939F93EF93FF93909163
:10FD8000400380913F03981769F0E0913F03EF5FD4
:10FD9000EF71E0933F03F0E0EF59FC4F80818093D7
:10FDA000C60005C08091C1008F7D8093C100FF9186
:10FDB000EF919F918F910F900BBE0F900FBE0F9000
:10FDC0001F9018951F920F920FB60F9211240BB629
:10FDD0000F922F938F939F93EF93FF938091C8007F
:10FDE0009091CE008C71E091F902EF5FEF7120915C
:10FDF000F802E21739F0E093F902F0E0E450FD4F29
:10FE0000908301C082E09091F702892B8093F702E2
:10FE1000FF91EF919F918F912F910F900BBE0F90BB
:10FE20000FBE0F901F9018951F920F920FB60F9252
:10FE300011240BB60F928F939F93EF93FF939091A2
:10FE4000FB028091FA02981769F0E091FA02EF5FE5
:10FE5000EF71E093FA02F0E0E45EFC4F8081809362
:10FE6000CE0005C08091C9008F7D8093C900FF91AD
:10FE7000EF919F918F910F900BBE0F900FBE0F903F
:10FE80001F901895F999FECF92BD81BDF89A9927D8
:10FE900080B50895262FF999FECF92BD81BDF89ABD
:10FEA000019700B4021639F01FBA20BD0FB6F894BE
:0CFEB000FA9AF99A0FBE0895F894FFCF5B
:10FEBC004DC3A443414E2031362D66616368204DFD
:10FECC0050352D4465636F646572004D5035783143
:02FEDC003600EE
:040000050080022253
:00000001FF
