:020000021000EC
:10E000000C9472F00C949DF00C949DF00C944FF8CD
:10E010000C949DF00C949DF00C949DF00C949DF04C
:10E020000C949DF00C949DF00C949DF00C949DF03C
:10E030000C949DF00C949DF00C949DF00C949DF02C
:10E040000C949DF00C949DF00C949DF00C949DF01C
:10E050000C949DF00C942DF30C949DF00C949DF079
:10E060000C949DF00C942FF90C9461F90C949DF094
:10E070000C949DF00C949DF00C949DF00C949DF0EC
:10E080000C949DF00C949DF00C949DF00C949DF0DC
:10E090000C94DBF90C940DFA0C949DF00C949DF00B
:10E0A0000C949DF00C949DF00C949DF00C949DF0BC
:10E0B0000C949DF00C949DF00C949DF00C949DF0AC
:10E0C0000C949DF00C949DF00C949DF00C949DF09C
:10E0D0000C949DF00C949DF00C949DF00C949DF08C
:10E0E0000C949DF011241FBECFEFD1E2DEBFCDBF57
:10E0F00014BE0FB6F894A895809160008861809353
:10E100006000109260000FBE12E0A0E0B2E0EEEA04
:10E11000F4EF01E00BBF02C007900D92AE36B107DD
:10E12000D9F725E0AEE6B2E001C01D92AA31B207F0
:10E13000E1F70E940CF10C9455FA0C9400F0F8945D
:10E1400085B7982F916095BF8D7F85BF1CBEE091EC
:10E150006E02F0916F0209942FB7F894F999FECFEF
:10E1600033E0FB0180935B0030935700E89507B6DE
:10E1700000FCFDCF91E190935700E8952FBF0895E3
:10E18000CF92DF92EF92FF921F93CF93DF931FB74F
:10E19000F894F999FECF23E0FB0180935B00209374
:10E1A0005700E89507B600FCFDCFDA0153956B01E7
:10E1B0007C0121E0EC9111963C911197C32FD0E0A6
:10E1C000DC2FCC27CE0FD11D0E01F601E0925B00B3
:10E1D00020935700E8951124129632E0C30ED11C0B
:10E1E000E11CF11C4A175B0729F725E0FB0180932E
:10E1F0005B0020935700E89507B600FCFDCF81E156
:10E2000080935700E8951FBFDF91CF911F91FF903A
:10E21000EF90DF90CF90089581E2E6E1F0E0809307
:10E2200057009491E7E1F0E080935700E491F0E02B
:10E23000F92BF0930004E093FF0385B7982F9160CA
:10E2400095BF826085BF6091FF0370910004CB0190
:10E25000A0E0B0E0BC01CD018D5B924B0E941BF5AC
:10E2600084B5826084BD89EF87BD80916E00826035
:10E2700080936E00789485B5836085BD80E480933B
:10E28000EC0381E08093ED038091EA039091EB032E
:10E290009093EF038093EE03D7E0D093F003809147
:10E2A00012059091130520911405309115053093B6
:10E2B000F1032093F2039093F3038093F4031092FD
:10E2C000F7031092F803539A5B9A8FEF93E00E9442
:10E2D0003BFAC82F813069F58093F50383E580937D
:10E2E000F603C093F7038CEE93E00E940AF6D093F6
:10E2F000F0038091F5038F5F8093F503C093F603DD
:10E300001092F7038CEE93E00E940AF68091F503D9
:10E310008F5F8093F503C093F60380EF8093F7033C
:10E320008CEE93E00E940AF660E08FEF93E00E948B
:10E3300043FA35E0C32ED7E0C1E043E5B42E50EFF9
:10E34000A52E68E0D62E83E094E00E9414F6882380
:10E3500009F458C180910304883159F48091040470
:10E36000811130C063E570E080E090E00E941CF80D
:10E3700049C18D3139F580910404811123C0409148
:10E38000120550911305609114057091150588E0F0
:10E3900094E00E9449F78823A9F080910C04811130
:10E3A00011C06091FF037091000480E090E020E0D4
:10E3B000E22E22E0F22E01E212E020E040E00E9494
:10E3C00058F720C180910304803409F01BC180916B
:10E3D0000204811154C040911205509113056091BF
:10E3E00014057091150588E094E00E9449F7882390
:10E3F00009F408C1809107048730B9F480910404BE
:10E40000813009F0FFC080910C04813009F0FAC01E
:10E4100080910E04813009F0F5C08093020460E021
:10E420008FEF93E00E9443FAEDC0843009F0EAC018
:10E43000C093F503B092F603C093F7038CEE93E01C
:10E440000E940AF6D093F0038091F5038F5F8093CA
:10E45000F503C093F6031092F7038CEE93E00E944D
:10E460000AF68091F5038F5F8093F503C093F6035E
:10E47000A092F7038CEE93E00E940AF6C3C080914D
:10E4800007048830B1F4809101048F5F8093010408
:10E49000A0910504A15028E0A29FD0011124A05F03
:10E4A000BB4F88E0E8E0F4E001900D928A95E1F737
:10E4B000A9C0409112055091130560911405709107
:10E4C000150588E094E00E9449F7882309F49AC072
:10E4D00080910C04863009F46DC028F4843059F022
:10E4E000853069F07CC08431A1F18531F1F187304C
:10E4F00009F075C071C080910D0490E031C0D093D7
:10E50000F0038093F50360910D046093F60370E0CF
:10E5100080911005909111056817790721F4809179
:10E520000104803219F01092F7030CC0762F662791
:10E53000072E000C880B990B40E154E00E94C0F0BC
:10E54000C093F7038CEE93E00E940AF61092010448
:10E5500059C080910D0490910E049827892798271F
:10E5600090931105809310054DC08093F503809121
:10E570000D048093F60360910E046093F70370E03E
:10E58000782B80911005909111056817790721F477
:10E5900080910104803219F0C092F003D3CFD09360
:10E5A000F003762F662780E090E040E154E00E947F
:10E5B000C0F0C8CF412C512C3201C301B2010E94DE
:10E5C000ACF03FEF531A630A730A411480EF580608
:10E5D00081E06806710489F71092020413C0412C8F
:10E5E000512C3201C301B2010E94ACF02FEF521A3C
:10E5F000620A720A411430EF530631E06306710477
:10E6000089F7EACF8091160590911705A09118051A
:10E61000B0911905803D9740A105B10530F080917A
:10E620000204813011F00E949FF0209102043CE925
:10E630003203C001112488539F4F2091E803309189
:10E64000E9032817390708F47ECE1092E9031092E7
:10E65000E8038BB18D258BB976CE1F920F920FB642
:10E660000F9211248F939F93AF93BF9380911605C0
:10E6700090911705A0911805B09119050196A11D5B
:10E68000B11D8093160590931705A0931805B093BC
:10E6900019058091E8039091E90301969093E903AD
:10E6A0008093E803BF91AF919F918F910F900FBE20
:10E6B0000F901F9018958EBD0DB407FEFDCF8EB53F
:10E6C0000895CF93DF93D82FC62F289882E00E9419
:10E6D0005BF38D2F0E945BF38C2F0E945BF3289AD3
:10E6E000DF91CF9108958053873330F4E82FF0E025
:10E6F000EA5DFD4F8081089580E008958F929F929A
:10E70000AF92BF92CF92DF92EF92FF920F931F933F
:10E71000CF93DF93CDB7DEB76A970FB6F894DEBF1D
:10E720000FBECDBF8C01DC018C9190E0A0E0B0E089
:10E7300051E1880F991FAA1FBB1F5A95D1F7F80105
:10E740002181AC01BD01622B82819381A0E0B0E008
:10E75000842B952BA62BB72B24E5298320E32A8332
:10E760004B2F552766277727FA01E35AFD4FA080E4
:10E77000AB82AC01BD01E4E176956795579547956D
:10E78000EA95D1F74F70552766277727FA01E35AA4
:10E79000FD4FB080BC82AD01662777274F705527AB
:10E7A00066277727FA01E35AFD4FC080CD82AC017E
:10E7B000BD012CE076956795579547952A95D1F739
:10E7C0004F70552766277727FA01E35AFD4FD0800F
:10E7D000DE82492F5A2F6B2F77274F7055276627D8
:10E7E0007727FA01E35AFD4FE080EF82AC01BD01CB
:10E7F000E4E07695679557954795EA95D1F74F7080
:10E80000552766277727FA01E35AFD4FF080F886EF
:10E810008F709927AA27BB27FC01E35AFD4F808000
:10E820008986D8011496EC911497F0E0E35AFD4FD5
:10E8300090809A861596EC91AE2FA295AF70B0E0BD
:10E84000A35ABD4F8C918B87EF70F0E0E35AFD4FD8
:10E8500080818C87D8011696EC91AE2FA295AF706F
:10E86000B0E0A35ABD4F8C918D87EF70F0E0E35A72
:10E87000FD4F80818E87D8011796EC91AE2FA2951F
:10E88000AF70B0E0A35ABD4F8C918F87EF70F0E06E
:10E89000E35AFD4F8081888BD8011896EC91AE2FFA
:10E8A000A295AF70B0E0A35ABD4F8C91898BEF70E9
:10E8B000F0E0E35AFD4F80818A8BD8011996EC91E4
:10E8C000AE2FA295AF70B0E0A35ABD4F8C918B8B49
:10E8D000EF70F0E0E35AFD4F80818C8BD8011A96DF
:10E8E000EC91AE2FA295AF70B0E0A35ABD4F8C91C2
:10E8F0008D8BEF70F0E0E35AFD4F80818E8BD80155
:10E900001B96EC91AE2FA295AF70B0E0A35ABD4F0D
:10E910008C918F8BEF70F0E0E35AFD4F8081888FF0
:10E92000D8011C96EC91AE2FA295AF70B0E0A35A1F
:10E93000BD4F8C91898FEF70F0E0E35AFD4F8081DD
:10E940008A8F84E50E94C6F980E30E94C6F98A2D69
:10E950000E94C6F98B2D0E94C6F98C2D0E94C6F923
:10E960008D2D0E94C6F98E2D0E94C6F98F2D0E9412
:10E97000C6F9882D0E94C6F9892D0E94C6F9FAE0D1
:10E98000FF2E2F2D30E0F801848190E00596880F4E
:10E99000991F281739075CF4E1E0F0E0EC0FFD1F48
:10E9A000E20FF31F80810E94C6F9F394EACF8DE055
:10E9B0000E94C6F9809170028130A9F48AE06A96BB
:10E9C0000FB6F894DEBF0FBECDBFDF91CF911F9180
:10E9D0000F91FF90EF90DF90CF90BF90AF909F90FE
:10E9E0008F900C94C6F96A960FB6F894DEBF0FBEEE
:10E9F000CDBFDF91CF911F910F91FF90EF90DF90EE
:10EA0000CF90BF90AF909F908F900895CF93DF935A
:10EA1000D82FC62F289885E00E945BF38D2F0E9487
:10EA20005BF38C2F0E945BF380E00E945BF3289ADB
:10EA3000DF91CF9108950F931F9360931205709308
:10EA4000130580931405909315058C012227332715
:10EA5000602771276F777C7F73607093EB036093FF
:10EA6000EA03209A229A219A2398289A2A9A299A84
:10EA70002B9A80E58CBD81E08DBD289880EC0E94AA
:10EA80005BF38FE891E00197F1F700C00000289A4E
:10EA90008FE99FE00197F1F700C0000061E48AE28E
:10EAA0000E9461F361EF89E20E9461F365E888E208
:10EAB0000E9461F363E08BE20E9461F360E680E60E
:10EAC0000E9461F360E680E70E9461F360E080E20B
:10EAD0000E9461F360E081E20E9461F360E082E203
:10EAE0000E9461F360E083E20E9461F360E084E2EF
:10EAF0000E9461F360E085E20E9461F360E086E2DB
:10EB00000E9461F360E087E20E9461F360E08CE0C4
:10EB10000E9461F360E08DE00E9461F360EE8FE09F
:10EB20000E9406F5E9E6F0E08081806280838081C2
:10EB30008F7E8083EA9A52985A9A52985A9A81E024
:10EB400090E01F910F910C948FF9CF92DF92EF928A
:10EB5000FF92CF93DF93EC01C880D12CE12CF12CF4
:10EB600081E1CC0CDD1CEE1CFF1C8A95D1F789815C
:10EB7000A7019601482BCA80DB80E12CF12CC22A28
:10EB8000D32AE42AF52AF894289880E40E945BF3BB
:10EB9000D701C60125E1B695A795979587952A9542
:10EBA000D1F70E945BF3A70166277727842F8C712A
:10EBB000880F880F880F43704860842B0E945BF396
:10EBC0008D2D0E945BF38C2D0E945BF38C810E9443
:10EBD0005BF37E0135E0E30EF11C2D96F701819188
:10EBE0007F010E945BF3CE15DF05C1F7289A2898B4
:10EBF00081E80E945BF3289A78948FE99FE001975F
:10EC0000F1F700C00000DF91CF91FF90EF90DF900F
:10EC1000CF900895CF93DF93EC010E94A5F5CE012C
:10EC2000DF91CF910C947EF34F925F926F927F921F
:10EC30008F929F92AF92BF92CF92DF92EF92FF920C
:10EC40000F931F93CF93DF93EC01F8942DE09091F5
:10EC50008B029923B9F080918D02289FF001112435
:10EC6000E257FD4FDE0101900D922A95E1F7915098
:10EC700090938B028F5F80938D02803128F01092E9
:10EC80008D0202C080E001C081E07894813021F4DF
:10EC9000CE010E947EF3E9C00E94A8F99C01892F51
:10ECA0009927892B19F52435310519F41092710231
:10ECB000DEC0909171022D30310519F02A303105F6
:10ECC00051F49A3140F4993010F089E101C08AE1A1
:10ECD00080937102CCC0993148F4E92FF0E0EE58EE
:10ECE000FD4F20839F5F90937102C1C0809171029C
:10ECF000893109F0BCC08AE180937102809172026F
:10ED00000E9473F3882E809173020E9473F3912CFA
:10ED1000A12CB12C9CE1880C991CAA1CBB1C9A95B7
:10ED2000D1F790E0A0E0B0E0B82FAA279927882774
:10ED3000880E991EAA1EBB1E809174020E9473F356
:10ED4000C82E809175020E9473F3482E809176023E
:10ED50000E9473F3082F809177020E9473F3F82EBC
:10ED6000809178020E9473F3E82E809179020E94CC
:10ED700073F3880E911CA11CB11C4C2D50E060E077
:10ED800070E034E1440F551F661F771F3A95D1F7A5
:10ED9000480D591D6A1D7B1D512C612C712C3201AF
:10EDA00055244424440D551D661D771D10E020E0B8
:10EDB00030E0FCE0000F111F221F331FFA95D1F73E
:10EDC000400F511F621F731F8F2D90E0A0E0B0E035
:10EDD000BA2FA92F982F8827480F591F6A1F7B1F0A
:10EDE000CE2CD12CE12CF12C04E0CC0CDD1CEE1C43
:10EDF000FF1C0A95D1F7C40ED51EE61EF71E8091A2
:10EE00007A020E9473F3B82E8C83D701C60121E1E8
:10EE1000B695A795979587952A95D1F788838E2DD6
:10EE200081708983DB82CA8202E712E06E0185E08D
:10EE3000C80ED11CF12C0E5F1F4FBF1499F0F801C2
:10EE400087810E9473F3E82EF80180850E9473F396
:10EE50008F70F0E1EF9E800D1124F60181936F0118
:10EE6000F394E9CFCE010E94A5F581E001C080E0D6
:10EE7000DF91CF911F910F91FF90EF90DF90CF9096
:10EE8000BF90AF909F908F907F906F905F904F90CA
:10EE90000895FC018081871309C08181861306C013
:10EEA0008281851303C081E09381941380E00895EB
:10EEB0008F929F92AF92BF92CF92DF92EF92FF928A
:10EEC0000F931F93CF93DF93CDB7DEB72D970FB678
:10EED000F894DEBF0FBECDBF3DE1398331E03A8308
:10EEE000E1E0F3E0FC83EB8338E03D834E832F8346
:10EEF000188619869A878B877C876D87CE01019645
:10EF00000E940AF690E0F801E90FF11D8081882344
:10EF100011F09F5FF8CFF801DE01119680E08917AC
:10EF200028F4208115962C93159703C015961C92F2
:10EF300015978F5F31961196883089F78B819C8168
:10EF400001969C838B83CE0101960E940AF680E095
:10EF5000C82ED12CF701EC0DFD1D9081992311F0E5
:10EF60008F5FF6CF982F9770869586958695992313
:10EF700019F011E0180F01C0182F00E04E0189E0D0
:10EF8000880E911CAA24A394B12CAC0EBD1EAE0C0D
:10EF9000BF1C101719F1FE013196D701C7018A195C
:10EFA0009B099C012E0F3F1F2C153D051CF42C9135
:10EFB000258301C0158211963196E815F90589F768
:10EFC0008B819C8101969C838B83CE0101960E944C
:10EFD0000AF60F5F88E0E80EF11CDBCF8B812091F1
:10EFE000EA033091EB033C832B8396E09D83909161
:10EFF00012052091130530911405409115054E839B
:10F000003F83288799871A868B87CE0101960E94B5
:10F010000AF62D960FB6F894DEBF0FBECDBFDF9176
:10F02000CF911F910F91FF90EF90DF90CF90BF9005
:10F03000AF909F908F900895CF93DF93CDB7DEB7B9
:10F040002D970FB6F894DEBF0FBECDBF28E1298300
:10F0500021E02A832091EA033091EB033C832B8348
:10F0600028E02D832091120530911305409114055D
:10F07000509115055E834F83388729879A878B8740
:10F080007C876D87CE0101960E940AF62D960FB6F9
:10F09000F894DEBF0FBECDBFDF91CF9108951F92D0
:10F0A0000F920FB60F9211240BB60F92CF92DF92F0
:10F0B000EF92FF920F931F932F933F934F935F9382
:10F0C0006F937F938F939F93AF93BF93CF93DF9370
:10F0D000EF93FF93F89480918C028F5F803118F446
:10F0E00080938C0202C010928C0210918C0228989E
:10F0F00080EB0E945BF38FEF0E945BF3C82F8FEFD2
:10F100000E945BF3289A0C2F0074C6FF03C0289856
:10F1100080E904C0C7FF72C0289884E90E945BF3AD
:10F12000C12FD0E08FEF0E945BF328E0829FC001E7
:10F1300011246C01990FEE08FF088FEF0E945BF31A
:10F14000982F929596959770C92A92E0CC0CDD1C69
:10F15000EE1CFF1C9A95D1F78370C82AFE2CED2C6B
:10F16000DC2CCC248FEF0E945BF3C82AFE2CED2C04
:10F17000DC2CCC248FEF0E945BF3A7019601282B97
:10F18000DA01C9014DE04C9F90014D9F300D1124D3
:10F19000E901C257DD4FAC01BD01E1E1769567950C
:10F1A00057954795EA95D1F7FE0141932A2F217093
:10F1B0002083FE013296918380838FEF0E945BF360
:10F1C0008F708C833DE0139F70011124C0E0D0E06C
:10F1D0008FEF0E945BF3FE01EE0DFF1DE257FD4F26
:10F1E00085832196C830D10599F7289A002311F01C
:10F1F00061E001C062E08CE20E9406F580918B0222
:10F20000803118F48F5F80938B0280918B02803164
:10F21000E0F47894FF91EF91DF91CF91BF91AF919E
:10F220009F918F917F916F915F914F913F912F911E
:10F230001F910F91FF90EF90DF90CF900F900BBE3A
:10F240000F900FBE0F901F90189580918D028F5FC9
:10F2500080938D028031E8F210928D02DACF1F92F6
:10F260000F920FB60F9211240BB60F922F938F931C
:10F270009F93EF93FF938091C0009091C6008C7193
:10F28000E091A503EF5FEF712091A403E21739F03D
:10F29000E093A503F0E0E855FC4F908301C082E0C5
:10F2A0009091A303892B8093A303FF91EF919F91EA
:10F2B0008F912F910F900BBE0F900FBE0F901F904C
:10F2C00018951F920F920FB60F9211240BB60F9242
:10F2D0008F939F93EF93FF939091A7038091A60341
:10F2E000981769F0E091A603EF5FEF71E093A60332
:10F2F000F0E0E853FC4F80818093C60005C0809108
:10F30000C1008F7D8093C100FF91EF919F918F91FC
:10F310000F900BBE0F900FBE0F901F90189510927C
:10F32000A7031092A6031092A5031092A40397FFBF
:10F3300003C022E02093C00090789093C500809392
:10F34000C40088E98093C10086E08093C2000895DC
:10F350009091A5038091A4039817A9F09091A4031C
:10F360009F5F9F71E92FF0E0E855FC4F208180916D
:10F37000A3039093A4031092A30390E0982F8827EF
:10F38000820F911D089580E091E008959091A70368
:10F390009F5F9F712091A6039217E1F3E92FF0E0A0
:10F3A000E853FC4F80839093A7038091C100806253
:10F3B0008093C10008951F920F920FB60F921124EF
:10F3C0000BB60F922F938F939F93EF93FF938091A0
:10F3D000C8009091CE008C71E0916003EF5FEF71F7
:10F3E00020915F03E21739F0E0936003F0E0ED59FC
:10F3F000FC4F908301C082E090915E03892B809343
:10F400005E03FF91EF919F918F912F910F900BBE13
:10F410000F900FBE0F901F9018951F920F920FB66E
:10F420000F9211240BB60F928F939F93EF93FF933C
:10F430009091620380916103981769F0E0916103F4
:10F44000EF5FEF71E0936103F0E0ED57FC4F8081D7
:10F450008093CE0005C08091C9008F7D8093C90044
:10F46000FF91EF919F918F910F900BBE0F900FBE68
:10F470000F901F901895F999FECF92BD81BDF89A13
:10F48000992780B50895262FF999FECF92BD81BDA9
:10F49000F89A019700B4021639F01FBA20BD0FB6D2
:0EF4A000F894FA9AF99A0FBE0895F894FFCFE7
:10F4AE004DC3A443414E2033322D6661636820471D
:10F4BE006C65697362656C6567746D656C646572A5
:10F4CE0000447833320000010203040506070809E0
:10F4DE00000000000000000A0B0C0D0E0F000000D3
:10F4EE00000000000000000000000000000000000E
:10F4FE00000000000000000A0B0C0D0E0F30313220
:0EF50E003334353637383941424344454600E0
:040000050080026E07
:00000001FF
