:020000023000CC
:10F000000D9472F80D949FF80D949FF80D9419FDCE
:10F010000D949FF80D949FF80D949FF80D949FF810
:10F020000D949FF80D949FF80D949FF80D949FF800
:10F030000D949FF80D949FF80D949FF80D949FF8F0
:10F040000D949FF80D949FF80D949FF80D949FF8E0
:10F050000D949FF80D94A7FA0D949FF80D949FF8C6
:10F060000D949FF80D94E3FD0D9415FE0D949FF8FB
:10F070000D949FF80D949FF80D949FF80D949FF8B0
:10F080000D949FF80D949FF80D949FF80D949FF8A0
:10F090000D9443FE0D9475FE0D949FF80D949FF80A
:10F0A0000D949FF80D949FF80D949FF80D949FF880
:10F0B0000D949FF80D949FF80D949FF80D949FF870
:10F0C0000D949FF80D949FF80D949FF80D949FF860
:10F0D0000D949FF80D949FF80D949FF80D949FF850
:10F0E0000D949FF811241FBECFEFD1E2DEBFCDBF3C
:10F0F00001E00CBF14BE0FB6F894A8958091600093
:10F10000886180936000109260000FBE12E0A0E062
:10F11000B2E0ECE8FDEF03E00BBF02C007900D92F8
:10F12000A232B107D9F724E0A2E2B2E001C01D92F9
:10F13000A23BB207E1F70F94FAF80D94C4FE0D94C8
:10F1400000F8F89485B7982F916095BF8D7F85BFA3
:10F150001CBEE0912202F09123021994CF92DF921B
:10F16000EF92FF921F93CF93DF931FB7F894F99913
:10F17000FECF23E0FB0180935B0020935700E895CE
:10F1800007B600FCFDCFDA0153956B017C0121E04D
:10F19000EC9111963C911197C32FD0E0DC2FCC2736
:10F1A000CE0FD11D0E01F601E0925B0020935700B7
:10F1B000E8951124129632E0C30ED11CE11CF11C1B
:10F1C0004A175B0729F725E0FB0180935B0020933A
:10F1D0005700E89507B600FCFDCF81E1809357000A
:10F1E000E8951FBFDF91CF911F91FF90EF90DF90C7
:10F1F000CF90089581E2E6E1F0E08093570094918A
:10F20000E7E1F0E080935700E491F0E0F92BF09310
:10F210009803E093970385B7982F916095BF82601C
:10F2200085BF6091970370919803CB01A0E0B0E097
:10F23000BC01CD018D5B924B0F9402FB84B58260C3
:10F2400084BD89EF87BD80916E00826080936E00DF
:10F25000789485B5836085BD80E48093840381E0E4
:10F260008093850380918203909183039093870319
:10F270008093860386E0809388038091AA0490910E
:10F28000AB042091AC043091AD04309389032093FA
:10F290008A0390938B0380938C0310928F031092B8
:10F2A0009003539A5B9A8FEF93E00F94AAFEC82FB6
:10F2B000813069F580938D0382E580938E0384E825
:10F2C00093E00F94EEFB87E08093880380918D0399
:10F2D0008F5F80938D03C0938E0310928F0384E819
:10F2E00093E00F94EEFB80918D038F5F80938D03ED
:10F2F00083E080938E0380EF80938F0384E893E014
:10F300000F94EEFB60E08FEF93E00F94B2FEDCE928
:10F3100037E0D32ECC24C394C8E08BE993E00F945C
:10F32000F0FB882309F4E8C080919B03883159F4ED
:10F3300080919C03811130C062E570E080E090E034
:10F340000F94E6FCD9C08D3139F580919C03811171
:10F3500023C0409193035091940360919503709161
:10F36000960380EA93E00F9413FC8823A9F0809120
:10F37000A403811111C0609197037091980380E0FC
:10F3800090E020E0E22E22E0F22E0BE112E020E0FD
:10F3900040E00F9422FCB0C080919B03803409F0C0
:10F3A000ABC080919A0381112FC04091930350917B
:10F3B0009403609195037091960380EA93E00F9413
:10F3C00013FC882309F498C080919F03873099F437
:10F3D00080919C03813009F08FC08091A40381301B
:10F3E00009F08AC08091A603813009F085C080931E
:10F3F0009A0360E004C0843009F07EC061E08FEFC2
:10F4000093E00F94B2FE78C080919F038830B1F4EE
:10F41000809199038F5F80939903A0919D03A150E0
:10F4200028E0A29FD0011124A855BC4F88E0E0EA53
:10F43000F3E001900D928A95E1F75EC0409193034D
:10F4400050919403609195037091960380EA93E044
:10F450000F9413FC882309F44FC08091A4038530D6
:10F4600081F050F48430B9F58091A50390E0909339
:10F47000A9048093A80440C0863069F18730D1F197
:10F480002AC0D092880380938D036091A503609376
:10F490008E0370E08091A8049091A9046817790701
:10F4A00021F480919903803219F010928F030CC0DF
:10F4B000762F6627072E000C880B990B48EA53E03D
:10F4C0000F94AEF8C0928F0384E893E00F94EEFBA4
:10F4D0001092990311C040E051E06FEF70E088EAAC
:10F4E00093E00F94A3FE48EA53E060E070E0CB01A4
:10F4F0000F94AEF810929A038091AE049091AF04ED
:10F50000A091B004B091B104803D9740A105B10530
:10F5100030F080919A03813011F00F94A1F820917E
:10F520009A033D2F3203C001112488539F4F20912D
:10F530008003309181032817390708F4EECE10922A
:10F540008103109280038BB18C278BB9E6CE1F927A
:10F550000F920FB60F9211248F939F93AF93BF9387
:10F560008091AE049091AF04A091B004B091B10429
:10F570000196A11DB11D8093AE049093AF04A0939A
:10F58000B004B093B10480918003909181030196FF
:10F590009093810380938003BF91AF919F918F914E
:10F5A0000F900FBE0F901F9018958EBD0DB407FEE3
:10F5B000FDCF8EB50895CF93DF93D82FC62F28980F
:10F5C00082E00F94D5FA8D2F0F94D5FA8C2F0F94DB
:10F5D000D5FA289ADF91CF910895CF93DF93D82F52
:10F5E000C62F289885E00F94D5FA8D2F0F94D5FA61
:10F5F0008C2F0F94D5FA80E00F94D5FA289ADF91DA
:10F60000CF9108950F931F936093AA047093AB0456
:10F610008093AC049093AD048C012227332760279C
:10F6200071276F777C7F736070938303609382038D
:10F63000209A229A219A2398289A2A9A299A2B9AD0
:10F6400080E58CBD81E08DBD289880EC0F94D5FAC3
:10F650008FE891E00197F1F700C00000289A8FE948
:10F660009FE00197F1F700C0000061E48AE20F9487
:10F67000DBFA61EF89E20F94DBFA65E888E20F9428
:10F68000DBFA63E08BE20F94DBFA60E680E60F942E
:10F69000DBFA60E680E70F94DBFA60E080E20F942B
:10F6A000DBFA60E081E20F94DBFA60E082E20F9423
:10F6B000DBFA60E083E20F94DBFA60E084E20F940F
:10F6C000DBFA60E085E20F94DBFA60E086E20F94FB
:10F6D000DBFA60E087E20F94DBFA60E08CE00F94E5
:10F6E000DBFA60E08DE00F94DBFA60EE8FE00F94C0
:10F6F000EDFAE9E6F0E080818062808380818F7E90
:10F700008083EA9A52985A9A52985A9A1F910F9166
:10F710000895CF92DF92EF92FF92CF93DF93EC01A7
:10F72000C880D12CE12CF12C81E1CC0CDD1CEE1C2D
:10F73000FF1C8A95D1F78981A7019601482BCA80C1
:10F74000DB80E12CF12CC22AD32AE42AF52AF89492
:10F75000289880E40F94D5FAD701C60125E1B69523
:10F76000A795979587952A95D1F70F94D5FAA70174
:10F7700066277727842F8C71880F880F880F437036
:10F780004860842B0F94D5FA8D2D0F94D5FA8C2DCB
:10F790000F94D5FA8C810F94D5FA7E0135E0E30EF3
:10F7A000F11C2D96F70181917F010F94D5FACE15AA
:10F7B000DF05C1F7289A289881E80F94D5FA289A8E
:10F7C00078948FE99FE00197F1F700C00000DF9186
:10F7D000CF91FF90EF90DF90CF9008950D9489FB2B
:10F7E000DC0190912502809124029817B1F0F894E1
:10F7F000E09125029DE09E9FF0011124EA5DFD4FFE
:10F8000001900D929A95E1F77894809125028F5F8F
:10F81000803128F01092250204C080E00895809382
:10F82000250281E00895FC018081871309C0818150
:10F83000861306C08281851303C081E093819413EF
:10F8400080E008958F929F92AF92BF92CF92DF9205
:10F85000EF92FF920F931F93CF93DF93CDB7DEB755
:10F860002D970FB6F894DEBF0FBECDBF3DE13983B3
:10F8700031E03A83E1E0F3E0FC83EB8338E03D8361
:10F880004E832F83188619869A878B877C876D878E
:10F89000CE0101960F9489FB90E0F801E90FF11D6C
:10F8A0008081882311F09F5FF8CFF801DE01119667
:10F8B00080E0891728F4208115962C93159703C0B2
:10F8C00015961C9215978F5F31961196883089F79F
:10F8D0008B819C8101969C838B83CE0101960F9432
:10F8E00089FB80E0C82ED12CF701EC0DFD1D908125
:10F8F000992311F08F5FF6CF982F97708695869594
:10F900008695992319F011E0180F01C0182F00E017
:10F910004E0189E0880E911CAA24A394B12CAC0E50
:10F92000BD1EAE0CBF1C101719F1FE013196D70198
:10F93000C7018A199B099C012E0F3F1F2C153D05FD
:10F940001CF42C91258301C0158211963196E8157F
:10F95000F90589F78B819C8101969C838B83CE016D
:10F9600001960F9489FB0F5F88E0E80EF11CDBCF56
:10F970008B8120918203309183033C832B8396E01B
:10F980009D839091AA042091AB043091AC044091E6
:10F99000AD044E833F83288799871A868B87CE01D3
:10F9A00001960F9489FB2D960FB6F894DEBF0FBE1B
:10F9B000CDBFDF91CF911F910F91FF90EF90DF901E
:10F9C000CF90BF90AF909F908F900895CF93DF938B
:10F9D000CDB7DEB72D970FB6F894DEBF0FBECDBF03
:10F9E00028E1298321E02A83209182033091830337
:10F9F0003C832B8328E02D832091AA043091AB0413
:10FA00004091AC045091AD045E834F8338872987C1
:10FA10009A878B877C876D87CE0101960F9489FB2F
:10FA20002D960FB6F894DEBF0FBECDBFDF91CF91FC
:10FA300008951F920F920FB60F9211240BB60F92DA
:10FA4000BF92CF92DF92EF92FF920F931F932F936B
:10FA50003F934F935F936F937F938F939F93AF9356
:10FA6000BF93CF93DF93EF93FF931091240201E0B4
:10FA7000010F0F7080912502081709F488C028989B
:10FA800080EB0F94D5FA8FEF0F94D5FAC82F8FEF34
:10FA90000F94D5FA289A2C2F2074B22EC6FF03C0DB
:10FAA000289880E904C0C7FF70C0289884E90F94A3
:10FAB000D5FA1F70C12FD0E08FEF0F94D5FA38E040
:10FAC000839FC00111246C01990FEE08FF088FEF8E
:10FAD0000F94D5FA982F929596959770C92A92E02F
:10FAE000CC0CDD1CEE1CFF1C9A95D1F78370C82A44
:10FAF000FE2CED2CDC2CCC248FEF0F94D5FAC82AE9
:10FB0000FE2CED2CDC2CCC248FEF0F94D5FAA70122
:10FB10009601282BDA01C9014DE04C9F90014D9FC1
:10FB2000300D1124E901CA5DDD4FAC01BD01E1E1F9
:10FB30007695679557954795EA95D1F748832A2F8B
:10FB4000217029839B838A838FEF0F94D5FA8F705E
:10FB50008C833DE0139F70011124C0E0D0E08FEF53
:10FB60000F94D5FAF701EC0FFD1FEA5DFD4F858379
:10FB70002196C830D10599F7289ABB2011F061E091
:10FB800001C062E08CE20F94EDFA00932402FF9131
:10FB9000EF91DF91CF91BF91AF919F918F917F9125
:10FBA0006F915F914F913F912F911F910F91FF9016
:10FBB000EF90DF90CF90BF900F900BBE0F900FBED5
:10FBC0000F901F9018951F920F920FB60F9211244D
:10FBD0000BB60F922F938F939F93EF93FF93809188
:10FBE000C0009091C6008C71E0913D03EF5FEF7112
:10FBF00020913C03E21739F0E0933D03F0E0E05C34
:10FC0000FC4F908301C082E090913B03892B80934D
:10FC10003B03FF91EF919F918F912F910F900BBE1E
:10FC20000F900FBE0F901F9018951F920F920FB656
:10FC30000F9211240BB60F928F939F93EF93FF9324
:10FC400090913F0380913E03981769F0E0913E0345
:10FC5000EF5FEF71E0933E03F0E0E05AFC4F8081EC
:10FC60008093C60005C08091C1008F7D8093C10044
:10FC7000FF91EF919F918F910F900BBE0F900FBE50
:10FC80000F901F9018951F920F920FB60F9211248C
:10FC90000BB60F922F938F939F93EF93FF938091C7
:10FCA000C8009091CE008C71E091F802EF5FEF7187
:10FCB0002091F702E21739F0E093F802F0E0E55006
:10FCC000FD4F908301C082E09091F602892B8093D2
:10FCD000F602FF91EF919F918F912F910F900BBEA4
:10FCE0000F900FBE0F901F9018951F920F920FB696
:10FCF0000F9211240BB60F928F939F93EF93FF9364
:10FD00009091FA028091F902981769F0E091F90256
:10FD1000EF5FEF71E093F902F0E0E55EFC4F808168
:10FD20008093CE0005C08091C9008F7D8093C9006B
:10FD3000FF91EF919F918F910F900BBE0F900FBE8F
:10FD40000F901F901895DC0101C06D9341505040F9
:10FD5000E0F70895F999FECF92BD81BDF89A9927F1
:10FD600080B50895262FF999FECF92BD81BDF89AEE
:10FD7000019700B4021639F01FBA20BD0FB6F894EF
:0CFD8000FA9AF99A0FBE0895F894FFCF8C
:10FD8C004DC3A443414E2031362D66616368204D2E
:10FD9C0050352D4465636F646572004D5035783174
:02FDAC0036001F
:040000050080022253
:00000001FF
