:020000021000EC
:10E000000C9472F00C949DF00C949DF00C94CEF74F
:10E010000C949DF00C949DF00C949DF00C949DF04C
:10E020000C949DF00C949DF00C949DF00C949DF03C
:10E030000C949DF00C949DF00C949DF00C949DF02C
:10E040000C949DF00C949DF00C949DF00C949DF01C
:10E050000C949DF00C94D0F20C949DF00C949DF0D7
:10E060000C949DF00C9498F80C94CAF80C949DF0C4
:10E070000C949DF00C949DF00C949DF00C949DF0EC
:10E080000C949DF00C949DF00C949DF00C949DF0DC
:10E090000C9444F90C9476F90C949DF00C949DF03A
:10E0A0000C949DF00C949DF00C949DF00C949DF0BC
:10E0B0000C949DF00C949DF00C949DF00C949DF0AC
:10E0C0000C949DF00C949DF00C949DF00C949DF09C
:10E0D0000C949DF00C949DF00C949DF00C949DF08C
:10E0E0000C949DF011241FBECFEFD1E2DEBFCDBF57
:10E0F00014BE0FB6F894A895809160008861809353
:10E100006000109260000FBE12E0A0E0B2E0EEE806
:10E11000F3EF01E00BBF02C007900D92AE36B107DE
:10E12000D9F725E0AEE6B2E001C01D92A331B207F7
:10E13000E1F70E9407F10C94C5F90C9400F0FC0182
:10E140008081871309C08181861306C0828185136F
:10E1500003C081E09381941380E00895F89485B71B
:10E16000982F916095BF8D7F85BF1CBEE0916E0298
:10E17000F0916F020994CF92DF92EF92FF921F937A
:10E18000CF93DF931FB7F894F999FECF23E0FB01FB
:10E1900080935B0020935700E89507B600FCFDCF05
:10E1A000DA0153956B017C0121E0EC9111963C91D1
:10E1B0001197C32FD0E0DC2FCC27CE0FD11D0E013D
:10E1C000F601E0925B0020935700E8951124129627
:10E1D00032E0C30ED11CE11CF11C4A175B0729F782
:10E1E00025E0FB0180935B0020935700E89507B67C
:10E1F00000FCFDCF81E180935700E8951FBFDF91C0
:10E20000CF911F91FF90EF90DF90CF90089581E222
:10E21000E6E1F0E0809357009491E7E1F0E080932D
:10E220005700649170E0792B7093FD036093FC03B9
:10E23000CB01A0E0B0E0BC01CD018D5B924B6093BF
:10E24000F8037093F9038093FA039093FB030E9401
:10E25000D0F69093F7038093F60385B7982F9160DB
:10E2600095BF826085BF0E94BEF484B5826084BD84
:10E2700089EF87BD80916E00826080936E007894F4
:10E2800085B5836085BD80E48093E90381E0809358
:10E29000EA038091F6039091F7039093EC03809347
:10E2A000EB0386E08093ED038091F8039091F903EE
:10E2B0002091FA033091FB033093EE032093EF0398
:10E2C0009093F0038093F1031092F4031092F503FE
:10E2D000539A5B9A8FEF93E00E94ABF9C82F81307D
:10E2E00061F58093F20383E58093F30389EE93E075
:10E2F0000E9495F587E08093ED038091F2038F5F94
:10E300008093F203C093F3031092F40389EE93E039
:10E310000E9495F58091F2038F5F8093F203C09382
:10E32000F30380EF8093F40389EE93E00E9495F568
:10E3300060E08FEF93E00E94B3F977E0F72EC1E041
:10E34000D8E080E094E00E949FF5882309F4FDC0A6
:10E35000809100048831B9F4809101048111F5C0E5
:10E360004091F6035091F7036091F8037091F9031F
:10E370008091FA039091FB0303E510E020E030E088
:10E380000E94A3F7E2C08D3191F5809101048111C3
:10E39000DCC04090F8035090F9036090FA0370904D
:10E3A000FB03B301A20185E094E00E949FF0882363
:10E3B00009F4CBC0809109048111C7C00091FC030E
:10E3C0001091FD0320E030E04091F6035091F703F7
:10E3D00090E0892E92E0992E61E2A62E62E0B62EA0
:10E3E000C12CE12CC301B2010E94DEF6AEC0803424
:10E3F00009F0ABC08091FF0381112FC04091F80359
:10E400005091F9036091FA037091FB0385E094E069
:10E410000E949FF0882309F498C0809104048730FB
:10E4200099F480910104813009F08FC08091090432
:10E43000813009F08AC080910B04813009F085C0D9
:10E44000C093FF0360E004C0843009F07EC061E047
:10E450008FEF93E00E94B3F978C080910404883074
:10E46000B1F48091FE038F5F8093FE03A0910204BC
:10E47000A15028E0A29FD0011124A35FBB4F88E0E8
:10E48000E5E0F4E001900D928A95E1F75EC04091DD
:10E49000F8035091F9036091FA037091FB0385E052
:10E4A00094E00E949FF0882309F44FC080910904F2
:10E4B000853081F050F48430B9F580910A0490E001
:10E4C00090930E0580930D0540C0863069F187302A
:10E4D000D1F12AC0F092ED038093F20360910A0417
:10E4E0006093F30370E080910D0590910E0568171D
:10E4F000790721F48091FE03803219F01092F40321
:10E500000CC0762F6627072E000C880B990B4DE068
:10E5100054E00E94BBF0C093F40389EE93E00E94A4
:10E5200095F51092FE0311C040E051E06FEF70E0EE
:10E530008DE094E00E94A4F94DE054E060E070E0CA
:10E54000CB010E94BBF01092FF0380910F059091C8
:10E550001005A0911105B0911205803D9740A105CD
:10E56000B10530F08091FF03813011F00E94AEF0D0
:10E570002091FF033CE93203C001112488539F4FCF
:10E580002091E7033091E8032817390708F4D9CE22
:10E590001092E8031092E7038BB18D278BB9D1CE8F
:10E5A0001F920F920FB60F9211248F939F93AF93E8
:10E5B000BF9380910F0590911005A0911105B09126
:10E5C00012050196A11DB11D80930F0590931005B2
:10E5D000A0931105B09312058091E7039091E80391
:10E5E00001969093E8038093E703BF91AF919F91C9
:10E5F0008F910F900FBE0F901F9018958EBD0DB488
:10E6000007FEFDCF8EB50895CF93DF93D82FC62F89
:10E61000289882E00E94FEF28D2F0E94FEF28C2F3D
:10E620000E94FEF2289ADF91CF910895805387339C
:10E6300030F4E82FF0E0EA5DFD4F8081089580E03E
:10E6400008958F929F92AF92BF92CF92DF92EF92F6
:10E65000FF920F931F93CF93DF93CDB7DEB76A97E7
:10E660000FB6F894DEBF0FBECDBF8C01DC018C91DC
:10E6700090E0A0E0B0E051E1880F991FAA1FBB1FF6
:10E680005A95D1F7F8012181AC01BD01622B82813D
:10E690009381A0E0B0E0842B952BA62BB72B24E52B
:10E6A000298320E32A834B2F552766277727FA01F2
:10E6B000E35AFD4FA080AB82AC01BD01E4E1769549
:10E6C000679557954795EA95D1F74F705527662777
:10E6D0007727FA01E35AFD4FB080BC82AD0166276F
:10E6E00077274F70552766277727FA01E35AFD4FA2
:10E6F000C080CD82AC01BD012CE076956795579521
:10E7000047952A95D1F74F70552766277727FA0145
:10E71000E35AFD4FD080DE82492F5A2F6B2F772787
:10E720004F70552766277727FA01E35AFD4FE0809F
:10E73000EF82AC01BD01E4E076956795579547956A
:10E74000EA95D1F74F70552766277727FA01E35AE4
:10E75000FD4FF080F8868F709927AA27BB27FC0110
:10E76000E35AFD4F80808986D8011496EC91149766
:10E77000F0E0E35AFD4F90809A861596EC91AE2F0B
:10E78000A295AF70B0E0A35ABD4F8C918B87EF700C
:10E79000F0E0E35AFD4F80818C87D8011696EC910A
:10E7A000AE2FA295AF70B0E0A35ABD4F8C918D876C
:10E7B000EF70F0E0E35AFD4F80818E87D801179605
:10E7C000EC91AE2FA295AF70B0E0A35ABD4F8C91E3
:10E7D0008F87EF70F0E0E35AFD4F8081888BD8017E
:10E7E0001896EC91AE2FA295AF70B0E0A35ABD4F32
:10E7F0008C91898BEF70F0E0E35AFD4F80818A8B1A
:10E80000D8011996EC91AE2FA295AF70B0E0A35A43
:10E81000BD4F8C918B8BEF70F0E0E35AFD4F808100
:10E820008C8BD8011A96EC91AE2FA295AF70B0E008
:10E83000A35ABD4F8C918D8BEF70F0E0E35AFD4FE2
:10E8400080818E8BD8011B96EC91AE2FA295AF7074
:10E85000B0E0A35ABD4F8C918F8BEF70F0E0E35A7C
:10E86000FD4F8081888FD8011C96EC91AE2FA29528
:10E87000AF70B0E0A35ABD4F8C91898FEF70F0E07C
:10E88000E35AFD4F80818A8F84E50E942FF980E34F
:10E890000E942FF98A2D0E942FF98B2D0E942FF9AB
:10E8A0008C2D0E942FF98D2D0E942FF98E2D0E9404
:10E8B0002FF98F2D0E942FF9882D0E942FF9892D75
:10E8C0000E942FF9FAE0FF2E2F2D30E0F80184810D
:10E8D00090E00596880F991F281739075CF4E1E04E
:10E8E000F0E0EC0FFD1FE20FF31F80810E942FF973
:10E8F000F394EACF8DE00E942FF98091700281306D
:10E90000A9F48AE06A960FB6F894DEBF0FBECDBFB9
:10E91000DF91CF911F910F91FF90EF90DF90CF90FB
:10E92000BF90AF909F908F900C942FF96A960FB67E
:10E93000F894DEBF0FBECDBFDF91CF911F910F9135
:10E94000FF90EF90DF90CF90BF90AF909F908F900F
:10E950000895CF93DF93D82FC62F289885E00E9483
:10E96000FEF28D2F0E94FEF28C2F0E94FEF280E0BC
:10E970000E94FEF2289ADF91CF910895209A229A60
:10E98000219A2398289A2A9A299A2B9A80E58CBD55
:10E9900081E08DBD289880EC0E94FEF28FE891E026
:10E9A0000197F1F700C00000289A8FE99FE00197D6
:10E9B000F1F700C0000061E48AE20E9404F361EF15
:10E9C00089E20E9404F365E888E20E9404F363E0B0
:10E9D0008BE20E9404F360E680E60E9404F360E6A6
:10E9E00080E70E9404F360E080E20E9404F360E0AC
:10E9F00081E20E9404F360E082E20E9404F360E09E
:10EA000083E20E9404F360E084E20E9404F360E089
:10EA100085E20E9404F360E086E20E9404F360E075
:10EA200087E20E9404F360E08CE00E9404F360E05F
:10EA30008DE00E9404F360EE8FE00E94A9F4E9E605
:10EA4000F0E080818062808380818F7E8083EA9A7B
:10EA500052985A9A52985A9A81E090E00C94F8F899
:10EA6000CF92DF92EF92FF92CF93DF93EC01C880B9
:10EA7000D12CE12CF12C81E1CC0CDD1CEE1CFF1C17
:10EA80008A95D1F78981A7019601482BCA80DB803E
:10EA9000E12CF12CC22AD32AE42AF52AF8942898EA
:10EAA00080E40E94FEF2D701C60125E1B695A79544
:10EAB000979587952A95D1F70E94FEF2A7016627C0
:10EAC0007727842F8C71880F880F880F43704860D8
:10EAD000842B0E94FEF28D2D0E94FEF28C2D0E944E
:10EAE000FEF28C810E94FEF27E0135E0E30EF11C05
:10EAF0002D96F70181917F010E94FEF2CE15DF0570
:10EB0000C1F7289A289881E80E94FEF2289A789402
:10EB10008FE99FE00197F1F700C00000DF91CF91EE
:10EB2000FF90EF90DF90CF900895CF93DF93EC01AB
:10EB30000E9430F5CE01DF91CF910C9421F34F92DA
:10EB40005F926F927F928F929F92AF92BF92CF927D
:10EB5000DF92EF92FF920F931F93CF93DF93EC011D
:10EB600090918C0280918B029817F1F0F894E091CB
:10EB70008C028DE08E9FF0011124E357FD4FDE01E2
:10EB800001900D928A95E1F7789480918C028F5FC5
:10EB9000803118F010928C0202C080938C02CE015A
:10EBA0000E9421F381E0EBC00E9411F99C01832FA8
:10EBB0009927892B19F52435310519F41092710222
:10EBC000DDC0909171022D30310519F02A303105E8
:10EBD00051F49A3140F4993010F089E101C08AE192
:10EBE00080937102CBC0993148F4E92FF0E0EE58E0
:10EBF000FD4F20839F5F90937102C0C0809171028E
:10EC0000893109F0BBC08AE1809371028091720260
:10EC10000E9416F3882E809173020E9416F3912CA5
:10EC2000A12CB12C9CE1880C991CAA1CBB1C9A95A8
:10EC3000D1F790E0A0E0B0E0B82FAA279927882765
:10EC4000880E991EAA1EBB1E809174020E9416F3A4
:10EC5000C82E809175020E9416F3482E809176028C
:10EC60000E9416F3082F809177020E9416F3F82E67
:10EC7000809178020E9416F3E82E809179020E941A
:10EC800016F34C2D50E060E070E034E1440F551F66
:10EC9000661F771F3A95D1F7880E911CA11CB11CF5
:10ECA000480D591D6A1D7B1D512C612C712C3201A0
:10ECB00055244424440D551D661D771D10E020E0A9
:10ECC00030E0FCE0000F111F221F331FFA95D1F72F
:10ECD000400F511F621F731F8F2D90E0A0E0B0E026
:10ECE000BA2FA92F982F8827480F591F6A1F7B1FFB
:10ECF000CE2CD12CE12CF12C04E0CC0CDD1CEE1C34
:10ED0000FF1C0A95D1F7C40ED51EE61EF71E809192
:10ED10007A020E9416F3B82E8C83D701C60121E136
:10ED2000B695A795979587952A95D1F788838E2DC7
:10ED300081708983DB82CA8202E712E06E0185E07E
:10ED4000C80ED11CF12C0E5F1F4FBF1499F0F801B3
:10ED500087810E9416F3E82EF80180850E9416F341
:10ED60008F70F0E1EF9E800D1124F60181936F0109
:10ED7000F394E9CFCE010E9430F514CF80E0DF910B
:10ED8000CF911F910F91FF90EF90DF90CF90BF90A8
:10ED9000AF909F908F907F906F905F904F9008956D
:10EDA0000F931F938C012227332760277127CB01F4
:10EDB0008F779C7F93601F910F9108952F923F92C0
:10EDC0004F925F926F927F928F929F92AF92BF927B
:10EDD000CF92DF92EF92FF920F931F93CF93DF9327
:10EDE000CDB7DEB72D970FB6F894DEBF0FBECDBFFF
:10EDF000362E472E582EF92E3A018DE1898381E077
:10EE00008A8381E093E09C838B8388E08D83EE820C
:10EE1000CF82188619863A872B871C870D87CE01EB
:10EE200001960E9495F590E0F501E90FF11D8081B2
:10EE3000882311F09F5FF8CFF501DE01119680E085
:10EE4000891728F4208115962C93159703C01596E1
:10EE50001C9215978F5F31961196883089F78B81B8
:10EE60009C8101969C838B83CE0101960E9495F52F
:10EE700080E0A82EB12CF401EA0DFB1D90819923AE
:10EE800011F08F5FF6CF982F9770E82EE694E694F6
:10EE9000E6949111E394212C6E0189E0C80ED11CF7
:10EEA00001E010E00C0F1D1F080D191DE21419F1EF
:10EEB000FE013196D401C401801B910B9C012E0FE1
:10EEC0003F1F2A153B051CF42C91258301C0158298
:10EED00011963196EC15FD0589F78B819C81019681
:10EEE0009C838B83CE0101960E9495F5239488E044
:10EEF000880E911CDBCF8B817C826B8296E09D8398
:10EF0000FE825F82488639861A868B87CE010196FB
:10EF10000E9495F52D960FB6F894DEBF0FBECDBFBB
:10EF2000DF91CF911F910F91FF90EF90DF90CF90E5
:10EF3000BF90AF909F908F907F906F905F904F9019
:10EF40003F902F9008950F931F93CF93DF93CDB7EA
:10EF5000DEB72D970FB6F894DEBF0FBECDBFE8E148
:10EF6000E983E1E0EA835C834B8348E04D839E8341
:10EF70008F83788769873A872B871C870D87CE0117
:10EF800001960E9495F52D960FB6F894DEBF0FBE40
:10EF9000CDBFDF91CF911F910F9108951F920F92D6
:10EFA0000FB60F9211240BB60F92BF92CF92DF9241
:10EFB000EF92FF920F931F932F933F934F935F9383
:10EFC0006F937F938F939F93AF93BF93CF93DF9371
:10EFD000EF93FF9310918B0201E0010F0F7080916E
:10EFE0008C02081709F488C0289880EB0E94FEF272
:10EFF0008FEF0E94FEF2C82F8FEF0E94FEF2289A38
:10F000002C2F2074B22EC6FF03C0289880E904C0BC
:10F01000C7FF70C0289884E90E94FEF21F70C12FBC
:10F02000D0E08FEF0E94FEF238E0839FC0011124F0
:10F030006C01990FEE08FF088FEF0E94FEF2982FE7
:10F04000929596959770C92A92E0CC0CDD1CEE1C27
:10F05000FF1C9A95D1F78370C82AFE2CED2CDC2C6E
:10F06000CC248FEF0E94FEF2C82AFE2CED2CDC2C63
:10F07000CC248FEF0E94FEF2A7019601282BDA0123
:10F08000C9014DE04C9F90014D9F300D1124E901C5
:10F09000C357DD4FAC01BD01E1E17695679557950A
:10F0A0004795EA95D1F748832A2F217029839B83BE
:10F0B0008A838FEF0E94FEF28F708C833DE0139F56
:10F0C00070011124C0E0D0E08FEF0E94FEF2F70142
:10F0D000EC0FFD1FE357FD4F85832196C830D10506
:10F0E00099F7289ABB2011F061E001C062E08CE240
:10F0F0000E94A9F400938B02FF91EF91DF91CF91D1
:10F10000BF91AF919F918F917F916F915F914F913F
:10F110003F912F911F910F91FF90EF90DF90CF9033
:10F12000BF900F900BBE0F900FBE0F901F901895C1
:10F130001F920F920FB60F9211240BB60F922F93BE
:10F140008F939F93EF93FF938091C0009091C6009F
:10F150008C71E091A403EF5FEF712091A303E2179C
:10F1600039F0E093A403F0E0E955FC4F908301C02F
:10F1700082E09091A203892B8093A203FF91EF91EB
:10F180009F918F912F910F900BBE0F900FBE0F90FC
:10F190001F9018951F920F920FB60F9211240BB665
:10F1A0000F928F939F93EF93FF939091A60380917B
:10F1B000A503981769F0E091A503EF5FEF71E09365
:10F1C000A503F0E0E953FC4F80818093C60005C0A1
:10F1D0008091C1008F7D8093C100FF91EF919F913D
:10F1E0008F910F900BBE0F900FBE0F901F90189530
:10F1F0001092A6031092A5031092A4031092A303E9
:10F2000097FF03C022E02093C00090789093C50040
:10F210008093C40088E98093C10086E08093C20097
:10F2200008959091A4038091A3039817A9F0909159
:10F23000A3039F5F9F71E92FF0E0E955FC4F208108
:10F240008091A2039093A3031092A20390E0982FC1
:10F250008827820F911D089580E091E00895909194
:10F26000A6039F5F9F712091A5039217E1F3E92FF9
:10F27000F0E0E953FC4F80839093A6038091C10096
:10F2800080628093C10008951F920F920FB60F9273
:10F2900011240BB60F922F938F939F93EF93FF93AD
:10F2A0008091C8009091CE008C71E0915F03EF5F78
:10F2B000EF7120915E03E21739F0E0935F03F0E015
:10F2C000EE59FC4F908301C082E090915D03892B41
:10F2D00080935D03FF91EF919F918F912F910F90FC
:10F2E0000BBE0F900FBE0F901F9018951F920F929C
:10F2F0000FB60F9211240BB60F928F939F93EF933B
:10F30000FF939091610380916003981769F0E091F9
:10F310006003EF5FEF71E0936003F0E0EE57FC4FA6
:10F3200080818093CE0005C08091C9008F7D80933D
:10F33000C900FF91EF919F918F910F900BBE0F909D
:10F340000FBE0F901F901895DC0101C06D934150C6
:10F350005040E0F70895F999FECF92BD81BDF89A2B
:10F36000992780B50895262FF999FECF92BD81BDCA
:10F37000F89A019700B4021639F01FBA20BD0FB6F3
:0EF38000F894FA9AF99A0FBE0895F894FFCF08
:10F38E004DC3A443414E2033322D6661636820473E
:10F39E006C65697362656C6567746D656C646572C6
:10F3AE000044783332000001020304050607080901
:10F3BE00000000000000000A0B0C0D0E0F000000F4
:10F3CE00000000000000000000000000000000002F
:10F3DE00000000000000000A0B0C0D0E0F30313241
:0EF3EE00333435363738394142434445460002
:040000050080026E07
:00000001FF
