:107000000C9434380C94573D0C945D380C945D38D6
:107010000C945D380C945D380C945D380C945D389C
:107020000C945D380C945D380C945D380C945D388C
:107030000C945D380C945D380C94E93A0C945D38EE
:107040000C945D380C945D380C94333E0C94613E86
:107050000C945D380C945D380C945D380C945D385C
:107060000C945D380C945D3811241FBECFEFD8E02E
:10707000DEBFCDBF14BE0FB6F894A8958091600016
:10708000886180936000109260000FBE11E0A0E064
:10709000B1E0EEE4FDE702C005900D92A431B10726
:1070A000D9F722E0A4E1B1E001C01D92A03EB207F1
:1070B000E1F70E94C0380C94A53E0C940038F89477
:1070C00085B7982F916095BF8D7F85BFE0911401A2
:1070D000F091150109942FB7F894F999FECF33E098
:1070E000FB0130935700E89507B600FCFDCF91E116
:1070F00090935700E8952FBF0895FF920F931F9329
:10710000CF93DF93CFB7F894F999FECF8B0123E0AB
:10711000FB0120935700E89507B600FCFDCF9A01CC
:1071200020583F4FDA01D1E0A8014A1B5B0BFC90CD
:10713000FA01EA0FFB1F11961C911197012F10E025
:10714000102F00270F0D111D0801D0935700E8954F
:1071500011241296A217B30751F725E0FB012093E3
:107160005700E89507B600FCFDCF81E180935700FA
:10717000E895CFBFDF91CF911F910F91FF900895B8
:1071800081E2E6E1F0E0809357009491E7E1F0E0DE
:1071900080935700E491F0E0F92BF0934602E093DE
:1071A000450285B7982F916095BF826085BF609139
:1071B000450270914602CB01A0E0B0E0BC01CD01D8
:1071C0008C5B9C4B0E94443B84B5826084BD89EFFC
:1071D00087BD80916E00826080936E00789485B543
:1071E000836085BD80E48093320281E08093330226
:1071F0008091300290913102909335028093340255
:10720000C7E0C09336028091D8029091D9022091B4
:10721000DA023091DB0230933702209338029093E8
:10722000390280933A0210923D0210923E02219A56
:10723000299A8FEF93E00E948B3E813071F5809305
:107240003B0291E590933C0280933D0282E392E001
:107250000E942D3CC093360280913B028F5F809349
:107260003B0210923C0280E880933D0282E392E070
:107270000E942D3C80913B028F5F80933B021092D5
:107280003C0280EE80933D0282E392E00E942D3C1E
:1072900060E08FEF93E00E94933E35E0D32EC7E08D
:1072A000D1E041E5C42E50E8B52E60EEA62E89E46B
:1072B00092E00E942F3C882309F45FC1809149022B
:1072C000883159F480914A02811130C061E570E043
:1072D00080E090E00E94243D50C18D3139F58091CD
:1072E0004A02811123C04091D8025091D902609185
:1072F000DA027091DB028EE492E00E94513C882316
:10730000A9F080915202811111C0609145027091E3
:10731000460280E090E020E0E22E21E0F22E0DE037
:1073200011E020E040E00E94603C27C180914902CA
:10733000803409F022C180914802811154C04091EB
:10734000D8025091D9026091DA027091DB028EE48A
:1073500092E00E94513C882309F40FC180914D02B4
:107360008730B9F480914A02813009F006C18091DA
:107370005202813009F001C180915402813009F03C
:10738000FCC08093480260E08FEF93E00E94933E40
:10739000F4C0843009F0F1C0D0933B02C0923C02AB
:1073A000D0933D0282E392E00E942D3CC0933602CE
:1073B00080913B028F5F80933B0210923C02B0921F
:1073C0003D0282E392E00E942D3C80913B028F5F60
:1073D00080933B0210923C02A0923D0282E392E035
:1073E0000E942D3CCAC080914D028830B1F480913A
:1073F00047028F5F80934702A0914B02A15028E083
:10740000A29FD0011124AA5ABD4F88E0EEE4F2E019
:1074100001900D928A95E1F7B0C04091D802509149
:10742000D9026091DA027091DB028EE492E00E9450
:10743000513C882309F4A1C080915202863009F49E
:1074400074C028F4843061F0853071F083C08431D9
:10745000C1F1853109F441C0873009F07BC077C0A4
:107460008091530290E034C0C093360280933B0277
:107470006091530260933C0270E08091D60290913B
:10748000D7026817790721F480914702803119F0FB
:1074900010923D020FC07695762F662777956795F7
:1074A000072E000C880B990B46E552E00E947D38B0
:1074B000D0933D0282E392E00E942D3C109247025D
:1074C0005CC0809153029091540298278927982795
:1074D0009093D7028093D60250C080933B02809154
:1074E000530280933C026091540260933D0270E02D
:1074F000782B8091D6029091D7026817790721F4F2
:1075000080914702803119F0D0923602D3CFC093D8
:1075100036027695762F66277795679580E090E01E
:1075200046E552E00E947D38C5CF412C512C3201F6
:10753000C301B2010E946B3830E8430E511C611C3C
:10754000711C411480E758066104710489F7109298
:10755000480213C0412C512C3201C301B2010E94D8
:107560006B3820E8420E511C611C711C411430E73D
:1075700053066104710489F7EACF8091DC0290918F
:10758000DD02A091DE02B091DF02803D9740A105AF
:10759000B10530F080914802813011F00E945F38CF
:1075A000209148023CE93203C001112488539F4FC7
:1075B00020912E0230912F022817390708F477CE38
:1075C00010922F0210922E0295B182E0892785B980
:1075D0006ECE1F920F920FB60F9211248F939F932E
:1075E000AF93BF938091DC029091DD02A091DE0207
:1075F000B091DF020196A11DB11D8093DC02909332
:10760000DD02A093DE02B093DF0280912E02909102
:107610002F02019690932F0280932E02BF91AF917B
:107620009F918F910F900FBE0F901F9018958EBD58
:107630000DB407FEFDCF8EB50895CF93DF93D82FFD
:10764000C62F2A9882E00E94173B8D2F0E94173B7D
:107650008C2F0E94173B2A9ADF91CF910895CF93E8
:10766000DF93D82FC62F2A9885E00E94173B8D2FD5
:107670000E94173B8C2F0E94173B80E00E94173B13
:107680002A9ADF91CF9108950F931F936093D802A8
:107690007093D9028093DA029093DB028C01222747
:1076A0003327602771276F777C7F73607093310277
:1076B00060933002229A239A259A24982A9A2B9A28
:1076C0002D9A2C9A80E58CBD81E08DBD2A9880ECA6
:1076D0000E94173B8FE891E00197F1F700C000008E
:1076E0002A9A8FE99FE00197F1F700C0000061E45A
:1076F0008AE20E941D3B61EF89E20E941D3B65E822
:1077000088E20E941D3B63E08BE20E941D3B60E625
:1077100080E60E941D3B60E680E70E941D3B60E022
:1077200080E20E941D3B60E081E20E941D3B60E020
:1077300082E20E941D3B60E083E20E941D3B60E00C
:1077400084E20E941D3B60E085E20E941D3B60E0F8
:1077500086E20E941D3B60E087E20E941D3B60E0E4
:107760008CE00E941D3B60E08DE00E941D3B60EEBE
:107770008FE00E942F3B52985A9AE9E6F0E0808110
:1077800081608083E89A52985A9A1F910F910895C8
:10779000CF92DF92EF92FF92CF93DF93EC01C880FC
:1077A000D12CE12CF12C81E1CC0CDD1CEE1CFF1C5A
:1077B0008A95D1F78981A7019601482BCA80DB8081
:1077C000E12CF12CC22AD32AE42AF52AF8942A982B
:1077D00080E40E94173BD701C60125E1B695A79525
:1077E000979587952A95D1F70E94173BA7016627A1
:1077F0007727842F8C71880F880F880F437048601B
:10780000842B0E94173B8D2D0E94173B8C2D0E94CC
:10781000173B8C810E94173B7E0135E0E30EF11C83
:107820002D96F70181917F010E94173BCE15DF0550
:10783000C1F72A9A2A9881E80E94173B2A9A7894DD
:107840008FE99FE00197F1F700C00000DF91CF9131
:10785000FF90EF90DF90CF9008950C94C83BDC012F
:10786000F8943DE0209116012223B1F09091180187
:10787000399FF0011124E75EFE4F01900D923A9579
:10788000E1F72150209316019F5F909318019031EA
:1078900028F01092180102C080E001C081E07894C5
:1078A0000895FC018081871309C08181861306C079
:1078B0008281851303C081E09381941380E0089551
:1078C0008F929F92AF92BF92CF92DF92EF92FF92F0
:1078D0000F931F93CF93DF93CDB7DEB72D970FB6DE
:1078E000F894DEBF0FBECDBF3DE1398331E03A836E
:1078F000E1E0F3E0FC83EB8338E03D834E832F83AC
:10790000188619869A878B877C876D87CE010196AA
:107910000E94C83B90E0F801E90FF11D80818823A7
:1079200011F09F5FF8CFF801DE01119680E0891712
:1079300028F4208115962C93159703C015961C9258
:1079400015978F5F31961196883089F78B819C81CE
:1079500001969C838B83CE0101960E94C83B80E0F8
:10796000C82ED12CF701EC0DFD1D9081992311F04B
:107970008F5FF6CF982F9770869586958695992379
:1079800019F011E0180F01C0182F00E04E0189E036
:10799000880E911CAA24A394B12CAC0EBD1EAE0C73
:1079A000BF1C101719F1FE013196D701C7018A19C2
:1079B0009B099C012E0F3F1F2C153D051CF42C919B
:1079C000258301C0158211963196E815F90589F7CE
:1079D0008B819C8101969C838B83CE0101960E94B2
:1079E000C83B0F5F88E0E80EF11CDBCF8B81209154
:1079F0003002309131023C832B8396E09D8390913D
:107A0000D8022091D9023091DA024091DB024E83F4
:107A10003F83288799871A868B87CE0101960E941B
:107A2000C83B2D960FB6F894DEBF0FBECDBFDF91D9
:107A3000CF911F910F91FF90EF90DF90CF90BF906B
:107A4000AF909F908F900895CF93DF93CDB7DEB71F
:107A50002D970FB6F894DEBF0FBECDBF28E1298366
:107A600021E02A8320913002309131023C832B8324
:107A700028E02D832091D8023091D9024091DA027A
:107A80005091DB025E834F83388729879A878B87E3
:107A90007C876D87CE0101960E94C83B2D960FB65C
:107AA000F894DEBF0FBECDBFDF91CF9108951F9236
:107AB0000F920FB60F921124CF92DF92EF92FF92A6
:107AC0000F931F932F933F934F935F936F937F93E6
:107AD0008F939F93AF93BF93CF93DF93EF93FF93D6
:107AE000F894809117018F5F803118F4809317010B
:107AF00002C010921701109117012A9880EB0E9482
:107B0000173B8FEF0E94173BC82F8FEF0E94173B48
:107B10002A9A0C2F0074C6FF03C02A9880E904C07B
:107B2000C7FF72C02A9884E90E94173BC12FD0E09A
:107B30008FEF0E94173B28E0829FC00111246C0147
:107B4000990FEE08FF088FEF0E94173B982F929530
:107B500096959770C92A92E0CC0CDD1CEE1CFF1C98
:107B60009A95D1F78370C82AFE2CED2CDC2CCC24FE
:107B70008FEF0E94173BC82AFE2CED2CDC2CCC2466
:107B80008FEF0E94173BA7019601282BDA01C9014C
:107B90004DE04C9F90014D9F300D1124E901C75ECF
:107BA000DE4FAC01BD01E1E17695679557954795AC
:107BB000EA95D1F7FE0141932A2F21702083FE011F
:107BC0003296918380838FEF0E94173B8F708C8356
:107BD0003DE0139F70011124C0E0D0E08FEF0E94C0
:107BE000173BFE01EE0DFF1DE75EFE4F85832196DC
:107BF000C830D10599F72A9A002311F061E001C03D
:107C000062E08CE20E942F3B80911601803118F4D3
:107C10008F5F80931601809116018031D0F47894A3
:107C2000FF91EF91DF91CF91BF91AF919F918F9194
:107C30007F916F915F914F913F912F911F910F9184
:107C4000FF90EF90DF90CF900F900FBE0F901F909E
:107C50001895809118018F5F809318018031F8F298
:107C600010921801DCCF1F920F920FB60F921124C1
:107C70002F938F939F93EF93FF938091C0009091E8
:107C8000C6008C71E091EB01EF5FEF712091EA018A
:107C9000E21739F0E093EB01F0E0E251FE4F908300
:107CA00001C082E09091E901892B8093E901FF9165
:107CB000EF919F918F912F910F900FBE0F901F907A
:107CC00018951F920F920FB60F9211248F939F93C6
:107CD000EF93FF939091ED018091EC01981769F07B
:107CE000E091EC01EF5FEF71E093EC01F0E0E25F17
:107CF000FD4F80818093C60005C08091C1008F7DBB
:107D00008093C100FF91EF919F918F910F900FBED3
:107D10000F901F901895F999FECF92BD81BDF89AEA
:107D2000992780B50895262FF999FECF92BD81BD80
:107D3000F89A019700B4021639F01FBA20BD0FB6A9
:0E7D4000F894FA9AF99A0FBE0895F894FFCFBE
:107D4E00427573616E6B6F70706C65720042414B61
:047D5E002D30310093
:040000050080011462
:00000001FF
