:107000000C9434380C94913D0C945D380C945D389C
:107010000C945D380C945D380C945D380C945D389C
:107020000C945D380C945D380C945D380C945D388C
:107030000C945D380C945D380C94893A0C945D384E
:107040000C945D380C945D380C94B53D0C94E33D84
:107050000C945D380C945D380C945D380C945D385C
:107060000C945D380C945D3811241FBECFEFD8E02E
:10707000DEBFCDBF14BE0FB6F894A8958091600016
:10708000886180936000109260000FBE11E0A0E064
:10709000B1E0E0E6FCE702C005900D92A431B10733
:1070A000D9F722E0A4E1B1E001C01D92A93DB207E9
:1070B000E1F70E94BD380C942E3E0C940038FC0180
:1070C0008081871309C08181861306C08281851360
:1070D00003C081E09381941380E00895F89485B70C
:1070E000982F916095BF8D7F85BFE0911401F0913D
:1070F00015010994FF920F931F93CF93DF93CFB79E
:10710000F894F999FECF8B0123E0FB0120935700FF
:10711000E89507B600FCFDCF9A0120583F4FDA01F1
:10712000D1E0A8014A1B5B0BFC90FA01EA0FFB1FA0
:1071300011961C911197012F10E0102F00270F0DB1
:10714000111D0801D0935700E89511241296A2173B
:10715000B30751F725E0FB0120935700E89507B6E8
:1071600000FCFDCF81E180935700E895CFBFDF9110
:10717000CF911F910F91FF90089581E2E6E1F0E039
:10718000809357009491E7E1F0E080935700649179
:1071900070E0792B7093430260934202CB01A0E030
:1071A000B0E0BC01CD018C5B9C4B60933E027093C0
:1071B0003F0280934002909341020E94B73A90931D
:1071C0003D0280933C0285B7982F916095BF826005
:1071D00085BF0E94023C84B5826084BD89EF87BD73
:1071E00080916E00826080936E00789485B5836094
:1071F00085BD80E480932F0281E0809330028091EE
:107200003C0290913D02909332028093310286E0DD
:107210008093330280913E0290913F022091400280
:10722000309141023093340220933502909336021C
:107230008093370210923A0210923B02219A299AC7
:107240008FEF93E00E94143E813069F580933802FD
:1072500081E5809339028FE292E00E94CA3C87E088
:1072600080933302809138028F5F809338021092AE
:10727000390280E880933A028FE292E00E94CA3C91
:10728000809138028F5F809338021092390280EE2D
:1072900080933A028FE292E00E94CA3C60E08FEF56
:1072A00093E00E941C3E77E0F72EC1E0D2E086E436
:1072B00092E00E94893D882309F400C18091460232
:1072C0008831B9F4809147028111F8C040913C02A5
:1072D00050913D0260913E0270913F0280914002C8
:1072E0009091410201E510E020E030E00E948A3BED
:1072F000E5C08D3191F5809147028111DFC040904A
:107300003E0250903F026090400270904102B301F3
:10731000A2018BE492E00E945F38882309F4CEC07A
:1073200080914F028111CAC0009142021091430224
:1073300020E030E040913C0250913D0290E0892EE7
:1073400091E0992E6DE0A62E61E0B62EC12CE12CC5
:10735000C301B2010E94C53AB1C0803409F0AEC089
:107360008091450281112FC040913E0250913F0211
:1073700060914002709141028BE492E00E945F387C
:10738000882309F49BC080914A02873099F4809148
:107390004702813009F092C080914F02813009F09C
:1073A0008DC080915102813009F088C0C0934502A0
:1073B00060E004C0843009F081C061E08FEF93E0A9
:1073C0000E941C3E7BC080914A028830B1F48091BB
:1073D00044028F5F80934402A0914802A15028E0AC
:1073E000A29FD0011124AD5ABD4F88E0EBE4F2E03A
:1073F00001900D928A95E1F761C040913E02509153
:107400003F0260914002709141028BE492E00E9441
:107410005F38882309F452C080914F02853081F093
:1074200050F48430D1F58091500290E09093D402D2
:107430008093D30243C0863081F18730E9F12DC0BB
:10744000F0923302809338026091500260933902C7
:1074500070E08091D3029091D4026817790721F4EB
:1074600080914402803119F010923A020FC0769553
:10747000762F662777956795072E000C880B990B5A
:1074800043E552E00E947A38C0933A028FE292E0DC
:107490000E94CA3C1092440211C040E850E06FEFD5
:1074A00070E083E592E00E940D3E43E552E060E02B
:1074B00070E0CB010E947A38109245028091D5028B
:1074C0009091D602A091D702B091D802803D97400A
:1074D000A105B10530F080914502813011F00E9484
:1074E0006E38209145023CE93203C00111248853D3
:1074F0009F4F20912D0230912E022817390708F452
:10750000D6CE10922E0210922D0285B18D2785B90C
:10751000CECE1F920F920FB60F9211248F939F938E
:10752000AF93BF938091D5029091D602A091D702DC
:10753000B091D8020196A11DB11D8093D502909300
:10754000D602A093D702B093D80280912D029091D9
:107550002E02019690932E0280932D02BF91AF913F
:107560009F918F910F900FBE0F901F9018950F93C2
:107570001F938C012227332760277127CB018F7738
:107580009C7F93601F910F9108952F923F924F928D
:107590005F926F927F928F929F92AF92BF92CF92A3
:1075A000DF92EF92FF920F931F93CF93DF93CDB7AC
:1075B000DEB72D970FB6F894DEBF0FBECDBF362EC7
:1075C000472E582EF92E3A018DE1898381E08A8376
:1075D00081E093E09C838B8388E08D83EE82CF8271
:1075E000188619863A872B871C870D87CE0101964E
:1075F0000E94CA3C90E0F501E90FF11D80818823CB
:1076000011F09F5FF8CFF501DE01119680E0891738
:1076100028F4208115962C93159703C015961C927B
:1076200015978F5F31961196883089F78B819C81F1
:1076300001969C838B83CE0101960E94CA3C80E018
:10764000A82EB12CF401EA0DFB1D9081992311F0B5
:107650008F5FF6CF982F9770E82EE694E694E69425
:107660009111E394212C6E0189E0C80ED11C01E038
:1076700010E00C0F1D1F080D191DE21419F1FE0179
:107680003196D401C401801B910B9C012E0F3F1F2A
:107690002A153B051CF42C91258301C015821196F7
:1076A0003196EC15FD0589F78B819C8101969C83B1
:1076B0008B83CE0101960E94CA3C239488E0880EF9
:1076C000911CDBCF8B817C826B8296E09D83FE8256
:1076D0005F82488639861A868B87CE0101960E9482
:1076E000CA3C2D960FB6F894DEBF0FBECDBFDF911A
:1076F000CF911F910F91FF90EF90DF90CF90BF90AF
:10770000AF909F908F907F906F905F904F903F9041
:107710002F9008950F931F93CF93DF93CDB7DEB7CC
:107720002D970FB6F894DEBF0FBECDBFE8E1E98319
:10773000E1E0EA835C834B8348E04D839E838F8343
:10774000788769873A872B871C870D87CE0101963A
:107750000E94CA3C2D960FB6F894DEBF0FBECDBF77
:10776000DF91CF911F910F910895229A239A259A24
:1077700024982A9A2B9A2D9A2C9A80E58CBD81E028
:107780008DBD08958EBD0DB407FEFDCF8EB5089555
:10779000CF93DF93D82FC62F2A9882E00E94C23B56
:1077A0008D2F0E94C23B8C2F0E94C23B2A9ADF91F0
:1077B000CF9108951F93CF93DF93182FD62FC42F07
:1077C0002A9885E00E94C23B812F0E94C23B8D2FE8
:1077D0000E94C23B8C2F0E94C23B2A9ADF91CF911C
:1077E0001F910895CF932A9880EB0E94C23B8FEFA0
:1077F0000E94C23BC82F8FEF0E94C23B2A9A8C2F57
:10780000CF9108950E94B53B2A9880EC0E94C23B1C
:107810008FE891E00197F1F700C000002A9A8FE904
:107820009FE00197F1F700C0000061E48AE20E9446
:10783000C83B61EF89E20E94C83B65E888E20E948C
:10784000C83B63E08BE20E94C83B60E680E60E9492
:10785000C83B60E680E70E94C83B60E080E20E948F
:10786000C83B60E081E20E94C83B60E082E20E9487
:10787000C83B60E083E20E94C83B60E084E20E9473
:10788000C83B60E085E20E94C83B60E086E20E945F
:10789000C83B60E087E20E94C83B60E08CE00E9449
:1078A000C83B60E08DE00E94C83B40E060EE8FE0A6
:1078B0000E94DA3B52985A9AE9E6F0E080818160B2
:1078C0008083E89A52985A9A0895CF92DF92EF9265
:1078D000FF92CF93DF93EC01C880D12CE12CF12CE7
:1078E00081E1CC0CDD1CEE1CFF1C8A95D1F789814F
:1078F000A7019601482BCA80DB80E12CF12CC22A1B
:10790000D32AE42AF52AF8942A9880E40E94C23BFC
:10791000D701C60125E1B695A795979587952A9534
:10792000D1F70E94C23BA70166277727842F8C716D
:10793000880F880F880F43704860842B0E94C23BD9
:107940008D2D0E94C23B8C2D0E94C23B8C810E94D7
:10795000C23B7E0135E0E30EF11C2D96F7018191CB
:107960007F010E94C23BCE15DF05C1F72A9A2A98F3
:1079700081E80E94C23B2A9A78948FE99FE00197A0
:10798000F1F700C00000DF91CF91FF90EF90DF9002
:10799000CF9008950C94653CCF92DF92EF92FF92C6
:1079A0000F931F93CF93DF93EC010E94F23B182FAC
:1079B000082F007486FF03C02A9880E904C087FF5F
:1079C00061C02A9884E90E94C23B8FEF0E94C23BAB
:1079D00028E0829FC00111246C01990FEE08FF0876
:1079E0008FEF0E94C23B982F929596959770C92A67
:1079F00092E0CC0CDD1CEE1CFF1C9A95D1F7837035
:107A0000C82AFE2CED2CDC2CCC248FEF0E94C23B2C
:107A1000C82AFE2CED2CDC2CCC248FEF0E94C23B1C
:107A2000B701A601482BDB01CA0171E1B695A79504
:107A3000979587957A95D1F78883862F817089836A
:107A40005B834A838FEF0E94C23B8F708C837E01E1
:107A500085E0E80EF11C2D968FEF0E94C23BF701E6
:107A600081937F01EC17FD07B9F72A9A40E00023C4
:107A700011F061E001C062E08CE20E94DA3B812FEC
:107A8000877001C08FEFDF91CF911F910F91FF9011
:107A9000EF90DF90CF900895CF9380911601C1E0D1
:107AA000C80FCF7090911701C91769F08F702DE042
:107AB000829FC0011124885E9E4F0E94CC3CC093DF
:107AC000160181E001C080E0CF910895DC01909122
:107AD0001701809116019817D1F0F894E0911701E1
:107AE0009DE09E9FF0011124E85EFE4F01900D92F3
:107AF0009A95E1F77894809117018F5F803118F49F
:107B00008093170102C01092170181E0089580E070
:107B100008950E94663D91E0813009F090E0892F40
:107B200008951F920F920FB60F9211242F933F9337
:107B30004F935F936F937F938F939F93AF93BF9375
:107B4000EF93FF930E944C3DFF91EF91BF91AF9156
:107B50009F918F917F916F915F914F913F912F9165
:107B60000F900FBE0F901F9018951F920F920FB697
:107B70000F9211242F938F939F93EF93FF938091F4
:107B8000C0009091C6008C71E091EA01EF5FEF7147
:107B90002091E901E21739F0E093EA01F0E0E351C6
:107BA000FE4F908301C082E09091E801892B809381
:107BB000E801FF91EF919F918F912F910F900FBE50
:107BC0000F901F9018951F920F920FB60F921124CD
:107BD0008F939F93EF93FF939091EC018091EB0132
:107BE000981769F0E091EB01EF5FEF71E093EB0123
:107BF000F0E0E35FFD4F80818093C60005C0809177
:107C0000C1008F7D8093C100FF91EF919F918F9173
:107C10000F900FBE0F901F901895DC0101C06D935F
:107C200041505040E0F70895F999FECF92BD81BDD3
:107C3000F89A992780B50895262FF999FECF92BD1D
:107C400081BDF89A019700B4021639F01FBA20BD21
:107C50000FB6F894FA9AF99A0FBE0895F894FFCFE8
:107C6000427573616E6B6F70706C65720042414B50
:047C70002D30310082
:040000050080011462
:00000001FF
