:020000021000EC
:10E000000C9472F00C949DF00C949DF00C9422F8FA
:10E010000C949DF00C949DF00C949DF00C949DF04C
:10E020000C949DF00C949DF00C949DF00C949DF03C
:10E030000C949DF00C949DF00C949DF00C949DF02C
:10E040000C949DF00C949DF00C949DF00C949DF01C
:10E050000C949DF00C9404F30C949DF00C949DF0A2
:10E060000C949DF00C94ECF80C941EF90C949DF01B
:10E070000C949DF00C949DF00C949DF00C949DF0EC
:10E080000C949DF00C949DF00C949DF00C949DF0DC
:10E090000C9498F90C94CAF90C949DF00C949DF092
:10E0A0000C949DF00C949DF00C949DF00C949DF0BC
:10E0B0000C949DF00C949DF00C949DF00C949DF0AC
:10E0C0000C949DF00C949DF00C949DF00C949DF09C
:10E0D0000C949DF00C949DF00C949DF00C949DF08C
:10E0E0000C949DF011241FBECFEFD1E2DEBFCDBF57
:10E0F00014BE0FB6F894A895809160008861809353
:10E100006000109260000FBE12E0A0E0B2E0E8E212
:10E11000F4EF01E00BBF02C007900D92AE36B107DD
:10E12000D9F725E0AEE6B2E001C01D92A931B207F1
:10E13000E1F70E940CF10C9412FA0C9400F0F894A0
:10E1400085B7982F916095BF8D7F85BF1CBEE091EC
:10E150006E02F0916F0209942FB7F894F999FECFEF
:10E1600033E0FB0180935B0030935700E89507B6DE
:10E1700000FCFDCF91E190935700E8952FBF0895E3
:10E18000CF92DF92EF92FF921F93CF93DF931FB74F
:10E19000F894F999FECF23E0FB0180935B00209374
:10E1A0005700E89507B600FCFDCFDA0153956B01E7
:10E1B0007C0121E0EC9111963C911197C32FD0E0A6
:10E1C000DC2FCC27CE0FD11D0E01F601E0925B00B3
:10E1D00020935700E8951124129632E0C30ED11C0B
:10E1E000E11CF11C4A175B0729F725E0FB0180932E
:10E1F0005B0020935700E89507B600FCFDCF81E156
:10E2000080935700E8951FBFDF91CF911F91FF903A
:10E21000EF90DF90CF90089581E2E6E1F0E0809307
:10E2200057009491E7E1F0E080935700E491F0E02B
:10E23000F92BF093FF03E093FE0385B7982F9160CD
:10E2400095BF826085BF6091FE037091FF03CB0193
:10E25000A0E0B0E0BC01CD018D5B924B0E94F2F4D6
:10E2600084B5826084BD89EF87BD80916E00826035
:10E2700080936E00789485B5836085BD80E480933B
:10E28000EB0381E08093EC038091E9039091EA0332
:10E290009093EE038093ED03D7E0D093EF0380914A
:10E2A00011059091120520911305309114053093BA
:10E2B000F0032093F1039093F2038093F303109201
:10E2C000F6031092F703539A5B9A8FEF93E00E9444
:10E2D000F8F9C82F813069F58093F40383E58093C2
:10E2E000F503C093F6038BEE93E00E94E1F5D09323
:10E2F000EF038091F4038F5F8093F403C093F503E1
:10E300001092F6038BEE93E00E94E1F58091F40306
:10E310008F5F8093F403C093F50380EF8093F6033F
:10E320008BEE93E00E94E1F560E08FEF93E00E94B6
:10E3300000FA35E0D32EC7E0CC24C394D8E082E0C5
:10E3400094E00E94EBF5882309F433C18091020424
:10E35000883159F480910304811130C063E570E085
:10E3600080E090E00E94EFF724C18D3139F5809173
:10E370000304811123C04091110550911205609151
:10E3800013057091140587E094E00E941CF7882320
:10E39000A9F080910B04811111C06091FE0370916E
:10E3A000FF0380E090E020E0E22E22E0F22E01E286
:10E3B00012E020E040E00E942BF7FBC080910204B5
:10E3C000803409F0F6C08091010481112FC0409182
:10E3D000110550911205609113057091140587E0A5
:10E3E00094E00E941CF7882309F4E3C0809106049E
:10E3F000873099F480910304813009F0DAC080916C
:10E400000B04813009F0D5C080910D04813009F0F2
:10E41000D0C08093010460E004C0843009F0C9C01A
:10E4200061E08FEF93E00E9400FAC3C08091060480
:10E430008830B1F4809100048F5F80930004A09134
:10E440000404A15028E0A29FD0011124A15FBB4F7A
:10E4500088E0E7E0F4E001900D928A95E1F7A9C029
:10E4600040911105509112056091130570911405AA
:10E4700087E094E00E941CF7882309F49AC08091F9
:10E480000B04863009F46DC028F4843059F08530CF
:10E4900069F07CC08431A1F18531F1F1873009F058
:10E4A00075C071C080910C0490E031C0C093EF033F
:10E4B0008093F40360910C046093F50370E0809105
:10E4C0000F05909110056817790721F480910004D9
:10E4D000803219F01092F6030CC0762F6627072EB3
:10E4E000000C880B990B4FE054E00E94C0F0C092E2
:10E4F000F6038BEE93E00E94E1F51092000459C000
:10E5000080910C0490910D04982789279827909367
:10E51000100580930F054DC08093F40380910C0487
:10E520008093F50360910D046093F60370E0782BFF
:10E5300080910F05909110056817790721F480915B
:10E540000004803219F0D092EF03D3CFC093EF03D1
:10E55000762F662780E090E04FE054E00E94C0F004
:10E56000C8CF812C912C5401C501B4010E94ACF09C
:10E570003FEF931AA30AB30A811480EF980681E053
:10E58000A806B10489F71092010413C0812C912CC4
:10E590005401C501B4010E94ACF02FEF921AA20AF7
:10E5A000B20A811430EF930631E0A306B10489F773
:10E5B000EACF8091150590911605A0911705B091AD
:10E5C0001805803D9740A105B10530F08091010408
:10E5D000813011F00E949FF0209101043CE9320348
:10E5E000C001112488539F4F2091E7033091E80325
:10E5F0002817390708F4A3CE1092E8031092E70316
:10E600008BB18D278BB99BCE1F920F920FB60F92B5
:10E6100011248F939F93AF93BF9380911505909191
:10E620001605A0911705B09118050196A11DB11D01
:10E630008093150590931605A0931705B0931805C0
:10E640008091E7039091E80301969093E80380930B
:10E65000E703BF91AF919F918F910F900FBE0F90E5
:10E660001F9018958EBD0DB407FEFDCF8EB5089591
:10E67000CF93DF93D82FC62F289882E00E9432F3E1
:10E680008D2F0E9432F38C2F0E9432F3289ADF9153
:10E69000CF9108958053873330F4E82FF0E0EA5D9E
:10E6A000FD4F8081089580E008958F929F92AF92F0
:10E6B000BF92CF92DF92EF92FF920F931F93CF936F
:10E6C000DF93CDB7DEB76A970FB6F894DEBF0FBE03
:10E6D000CDBF8C01DC018C9190E0A0E0B0E051E175
:10E6E000880F991FAA1FBB1F5A95D1F7F8012181E6
:10E6F000AC01BD01622B82819381A0E0B0E0842B4C
:10E70000952BA62BB72B24E5298320E32A834B2FB7
:10E71000552766277727FA01E35AFD4FA080AB8281
:10E72000AC01BD01E4E17695679557954795EA956B
:10E73000D1F74F70552766277727FA01E35AFD4F27
:10E74000B080BC82AD01662777274F7055276627BA
:10E750007727FA01E35AFD4FC080CD82AC01BD019D
:10E760002CE076956795579547952A95D1F74F7088
:10E77000552766277727FA01E35AFD4FD080DE82BE
:10E78000492F5A2F6B2F77274F70552766277727EA
:10E79000FA01E35AFD4FE080EF82AC01BD01E4E0F5
:10E7A0007695679557954795EA95D1F74F70552718
:10E7B00066277727FA01E35AFD4FF080F8868F70BD
:10E7C0009927AA27BB27FC01E35AFD4F8080898641
:10E7D000D8011496EC911497F0E0E35AFD4F908025
:10E7E0009A861596EC91AE2FA295AF70B0E0A35A21
:10E7F000BD4F8C918B87EF70F0E0E35AFD4F808125
:10E800008C87D8011696EC91AE2FA295AF70B0E030
:10E81000A35ABD4F8C918D87EF70F0E0E35AFD4F06
:10E8200080818E87D8011796EC91AE2FA295AF709C
:10E83000B0E0A35ABD4F8C918F87EF70F0E0E35AA0
:10E84000FD4F8081888BD8011896EC91AE2FA29550
:10E85000AF70B0E0A35ABD4F8C91898BEF70F0E0A0
:10E86000E35AFD4F80818A8BD8011996EC91AE2F27
:10E87000A295AF70B0E0A35ABD4F8C918B8BEF7017
:10E88000F0E0E35AFD4F80818C8BD8011A96EC9111
:10E89000AE2FA295AF70B0E0A35ABD4F8C918D8B77
:10E8A000EF70F0E0E35AFD4F80818E8BD8011B960C
:10E8B000EC91AE2FA295AF70B0E0A35ABD4F8C91F2
:10E8C0008F8BEF70F0E0E35AFD4F8081888FD80185
:10E8D0001C96EC91AE2FA295AF70B0E0A35ABD4F3D
:10E8E0008C91898FEF70F0E0E35AFD4F80818A8F21
:10E8F00084E50E9483F980E30E9483F98A2D0E94B7
:10E9000083F98B2D0E9483F98C2D0E9483F98D2D24
:10E910000E9483F98E2D0E9483F98F2D0E9483F926
:10E92000882D0E9483F9892D0E9483F9FAE0FF2E39
:10E930002F2D30E0F801848190E00596880F991F13
:10E94000281739075CF4E1E0F0E0EC0FFD1FE20F5F
:10E95000F31F80810E9483F9F394EACF8DE00E9437
:10E9600083F9809170028130A9F48AE06A960FB62B
:10E97000F894DEBF0FBECDBFDF91CF911F910F91F5
:10E98000FF90EF90DF90CF90BF90AF909F908F90CF
:10E990000C9483F96A960FB6F894DEBF0FBECDBF14
:10E9A000DF91CF911F910F91FF90EF90DF90CF906B
:10E9B000BF90AF909F908F900895CF93DF93D82F03
:10E9C000C62F289885E00E9432F38D2F0E9432F3E3
:10E9D0008C2F0E9432F380E00E9432F3289ADF915C
:10E9E000CF9108950F931F936093110570931205B3
:10E9F00080931305909314058C01222733276027F9
:10EA000071276F777C7F73607093EA036093E903EB
:10EA1000209A229A219A2398289A2A9A299A2B9AFC
:10EA200080E58CBD81E08DBD289880EC0E9432F39A
:10EA30008FE891E00197F1F700C00000289A8FE974
:10EA40009FE00197F1F700C0000061E48AE20E94B4
:10EA500038F361EF89E20E9438F365E888E20E94AA
:10EA600038F363E08BE20E9438F360E680E60E94B0
:10EA700038F360E680E70E9438F360E080E20E94AD
:10EA800038F360E081E20E9438F360E082E20E94A5
:10EA900038F360E083E20E9438F360E084E20E9491
:10EAA00038F360E085E20E9438F360E086E20E947D
:10EAB00038F360E087E20E9438F360E08CE00E9467
:10EAC00038F360E08DE00E9438F360EE8FE00E9442
:10EAD000DDF4E9E6F0E080818062808380818F7ED2
:10EAE0008083EA9A52985A9A52985A9A81E090E012
:10EAF0001F910F910C944CF9CF92DF92EF92FF92FD
:10EB0000CF93DF93EC01C880D12CE12CF12C81E173
:10EB1000CC0CDD1CEE1CFF1C8A95D1F78981A70166
:10EB20009601482BCA80DB80E12CF12CC22AD32A23
:10EB3000E42AF52AF894289880E40E9432F3D70159
:10EB4000C60125E1B695A795979587952A95D1F7A2
:10EB50000E9432F3A70166277727842F8C71880FD4
:10EB6000880F880F43704860842B0E9432F38D2DEC
:10EB70000E9432F38C2D0E9432F38C810E9432F37A
:10EB80007E0135E0E30EF11C2D96F70181917F01A6
:10EB90000E9432F3CE15DF05C1F7289A289881E844
:10EBA0000E9432F3289A78948FE99FE00197F1F759
:10EBB00000C00000DF91CF91FF90EF90DF90CF90E9
:10EBC0000895CF93DF93EC010E947CF5CE01DF9195
:10EBD000CF910C9455F34F925F926F927F928F92E8
:10EBE0009F92AF92BF92CF92DF92EF92FF920F93DC
:10EBF0001F93CF93DF93EC0190918C0280918B0255
:10EC00009817F1F0F894E0918C028DE08E9FF0015E
:10EC10001124E357FD4FDE0101900D928A95E1F733
:10EC2000789480918C028F5F803118F010928C0262
:10EC300002C080938C02CE010E9455F381E0EBC0AC
:10EC40000E9465F99C01832F9927892B19F524359A
:10EC5000310519F410927102DDC0909171022D30CE
:10EC6000310519F02A30310551F49A3140F49930C8
:10EC700010F089E101C08AE180937102CBC0993123
:10EC800048F4E92FF0E0EE58FD4F20839F5F90930A
:10EC90007102C0C080917102893109F0BBC08AE164
:10ECA00080937102809172020E944AF3882E8091B3
:10ECB00073020E944AF3912CA12CB12C9CE1880C88
:10ECC000991CAA1CBB1C9A95D1F790E0A0E0B0E07B
:10ECD000B82FAA2799278827880E991EAA1EBB1E1F
:10ECE000809174020E944AF3C82E809175020E949E
:10ECF0004AF3482E809176020E944AF3082F8091B1
:10ED000077020E944AF3F82E809178020E944AF31B
:10ED1000E82E809179020E944AF34C2D50E060E089
:10ED200070E034E1440F551F661F771F3A95D1F705
:10ED3000880E911CA11CB11C480D591D6A1D7B1D1C
:10ED4000512C612C712C320155244424440D551D45
:10ED5000661D771D10E020E030E0FCE0000F111F81
:10ED6000221F331FFA95D1F7400F511F621F731FE7
:10ED70008F2D90E0A0E0B0E0BA2FA92F982F882720
:10ED8000480F591F6A1F7B1FCE2CD12CE12CF12C70
:10ED900004E0CC0CDD1CEE1CFF1C0A95D1F7C40E60
:10EDA000D51EE61EF71E80917A020E944AF3B82E05
:10EDB0008C83D701C60121E1B695A79597958795D4
:10EDC0002A95D1F788838E2D81708983DB82CA8250
:10EDD00002E712E06E0185E0C80ED11CF12C0E5F37
:10EDE0001F4FBF1499F0F80187810E944AF3E82E63
:10EDF000F80180850E944AF38F70F0E1EF9E800D4C
:10EE00001124F60181936F01F394E9CFCE010E94A2
:10EE10007CF514CF80E0DF91CF911F910F91FF908F
:10EE2000EF90DF90CF90BF90AF909F908F907F90AA
:10EE30006F905F904F900895FC018081871309C007
:10EE40008181861306C08281851303C081E093818E
:10EE5000941380E008958F929F92AF92BF92CF92C9
:10EE6000DF92EF92FF920F931F93CF93DF93CDB773
:10EE7000DEB72D970FB6F894DEBF0FBECDBF3DE1D4
:10EE8000398331E03A83E1E0F3E0FC83EB8338E05F
:10EE90003D834E832F83188619869A878B877C87BC
:10EEA0006D87CE0101960E94E1F590E0F801E90F2F
:10EEB000F11D8081882311F09F5FF8CFF801DE01FA
:10EEC000119680E0891728F4208115962C931597C8
:10EED00003C015961C9215978F5F31961196883056
:10EEE00089F78B819C8101969C838B83CE0101964F
:10EEF0000E94E1F580E0C82ED12CF701EC0DFD1D3C
:10EF00009081992311F08F5FF6CF982F9770869597
:10EF100086958695992319F011E0180F01C0182FD6
:10EF200000E04E0189E0880E911CAA24A394B12C24
:10EF3000AC0EBD1EAE0CBF1C101719F1FE013196B0
:10EF4000D701C7018A199B099C012E0F3F1F2C1561
:10EF50003D051CF42C91258301C015821196319634
:10EF6000E815F90589F78B819C8101969C838B8339
:10EF7000CE0101960E94E1F50F5F88E0E80EF11CDA
:10EF8000DBCF8B812091E9033091EA033C832B8313
:10EF900096E09D8390911105209112053091130503
:10EFA000409114054E833F83288799871A868B8763
:10EFB000CE0101960E94E1F52D960FB6F894DEBFC2
:10EFC0000FBECDBFDF91CF911F910F91FF90EF90BA
:10EFD000DF90CF90BF90AF909F908F900895CF9388
:10EFE000DF93CDB7DEB72D970FB6F894DEBF0FBE17
:10EFF000CDBF28E1298321E02A832091E9033091C4
:10F00000EA033C832B8328E02D8320911105309166
:10F01000120540911305509114055E834F83388784
:10F0200029879A878B877C876D87CE0101960E94FE
:10F03000E1F52D960FB6F894DEBF0FBECDBFDF9180
:10F04000CF9108951F920F920FB60F9211240BB615
:10F050000F92BF92CF92DF92EF92FF920F931F9386
:10F060002F933F934F935F936F937F938F939F93D0
:10F07000AF93BF93CF93DF93EF93FF9310918B02E6
:10F0800001E0010F0F7080918C02081709F488C00D
:10F09000289880EB0E9432F38FEF0E9432F3C82F42
:10F0A0008FEF0E9432F3289A2C2F2074B22EC6FFC5
:10F0B00003C0289880E904C0C7FF70C0289884E97D
:10F0C0000E9432F31F70C12FD0E08FEF0E9432F305
:10F0D00038E0839FC00111246C01990FEE08FF08EE
:10F0E0008FEF0E9432F3982F929596959770C92AC8
:10F0F00092E0CC0CDD1CEE1CFF1C9A95D1F78370BE
:10F10000C82AFE2CED2CDC2CCC248FEF0E9432F38D
:10F11000C82AFE2CED2CDC2CCC248FEF0E9432F37D
:10F12000A7019601282BDA01C9014DE04C9F9001FF
:10F130004D9F300D1124E901C357DD4FAC01BD01D6
:10F14000E1E17695679557954795EA95D1F748831C
:10F150002A2F217029839B838A838FEF0E9432F3A9
:10F160008F708C833DE0139F70011124C0E0D0E0CC
:10F170008FEF0E9432F3F701EC0FFD1FE357FD4FB5
:10F1800085832196C830D10599F7289ABB2011F0C4
:10F1900061E001C062E08CE20E94DDF400938B022A
:10F1A000FF91EF91DF91CF91BF91AF919F918F919F
:10F1B0007F916F915F914F913F912F911F910F918F
:10F1C000FF90EF90DF90CF90BF900F900BBE0F900D
:10F1D0000FBE0F901F9018951F920F920FB60F92AF
:10F1E00011240BB60F922F938F939F93EF93FF935E
:10F1F0008091C0009091C6008C71E091A403EF5FF4
:10F20000EF712091A303E21739F0E093A403F0E03B
:10F21000E955FC4F908301C082E09091A203892BB5
:10F220008093A203FF91EF919F918F912F910F9067
:10F230000BBE0F900FBE0F901F9018951F920F924C
:10F240000FB60F9211240BB60F928F939F93EF93EB
:10F25000FF939091A6038091A503981769F0E09120
:10F26000A503EF5FEF71E093A503F0E0E953FC4FD6
:10F2700080818093C60005C08091C1008F7D8093FE
:10F28000C100FF91EF919F918F910F900BBE0F9056
:10F290000FBE0F901F9018951092A6031092A50311
:10F2A0001092A4031092A30397FF03C022E02093BF
:10F2B000C00090789093C5008093C40088E9809343
:10F2C000C10086E08093C20008959091A4038091CC
:10F2D000A3039817A9F09091A3039F5F9F71E92F53
:10F2E000F0E0E955FC4F20818091A2039093A303A5
:10F2F0001092A20390E0982F8827820F911D089505
:10F3000080E091E008959091A6039F5F9F71209106
:10F31000A5039217E1F3E92FF0E0E953FC4F808356
:10F320009093A6038091C10080628093C1000895EC
:10F330001F920F920FB60F9211240BB60F922F93BC
:10F340008F939F93EF93FF938091C8009091CE008D
:10F350008C71E0915F03EF5FEF7120915E03E21724
:10F3600039F0E0935F03F0E0EE59FC4F908301C069
:10F3700082E090915D03892B80935D03FF91EF9173
:10F380009F918F912F910F900BBE0F900FBE0F90FA
:10F390001F9018951F920F920FB60F9211240BB663
:10F3A0000F928F939F93EF93FF93909161038091BE
:10F3B0006003981769F0E0916003EF5FEF71E093ED
:10F3C0006003F0E0EE57FC4F80818093CE0005C0D3
:10F3D0008091C9008F7D8093C900FF91EF919F912B
:10F3E0008F910F900BBE0F900FBE0F901F9018952E
:10F3F000F999FECF92BD81BDF89A992780B50895FD
:10F40000262FF999FECF92BD81BDF89A019700B4DD
:10F41000021639F01FBA20BD0FB6F894FA9AF99A7D
:08F420000FBE0895F894FFCF20
:10F428004DC3A443414E2033322D666163682047A3
:10F438006C65697362656C6567746D656C6465722B
:10F448000044783332000001020304050607080966
:10F45800000000000000000A0B0C0D0E0F00000059
:10F468000000000000000000000000000000000094
:10F47800000000000000000A0B0C0D0E0F303132A6
:0EF48800333435363738394142434445460067
:040000050080026E07
:00000001FF
