:020000021000EC
:10E000000C9472F00C949DF00C949DF00C94FDF522
:10E010000C949DF00C949DF00C949DF00C949DF04C
:10E020000C949DF00C949DF00C949DF00C949DF03C
:10E030000C949DF00C949DF00C949DF00C949DF02C
:10E040000C949DF00C949DF00C949DF00C949DF01C
:10E050000C949DF00C94D0F20C949DF00C949DF0D7
:10E060000C949DF00C9425F60C9457F60C949DF0AE
:10E070000C949DF00C949DF00C949DF00C949DF0EC
:10E080000C949DF00C949DF00C949DF00C949DF0DC
:10E090000C94D1F60C9403F70C949DF00C949DF025
:10E0A0000C949DF00C949DF00C949DF00C949DF0BC
:10E0B0000C949DF00C949DF00C949DF00C949DF0AC
:10E0C0000C949DF00C949DF00C949DF00C949DF09C
:10E0D0000C949DF00C949DF00C949DF00C949DF08C
:10E0E0000C949DF011241FBECFEFD1E2DEBFCDBF57
:10E0F00014BE0FB6F894A895809160008861809353
:10E100006000109260000FBE12E0A0E0B2E0E6EA0C
:10E11000F3EF01E00BBF02C007900D92AE36B107DE
:10E12000D9F725E0AEE6B2E001C01D92A231B207F8
:10E13000E1F70E9407F10C94D1F90C9400F0FC0176
:10E140008081871309C08181861306C0828185136F
:10E1500003C081E09381941380E00895F89485B71B
:10E16000982F916095BF8D7F85BF1CBEE0916E0298
:10E17000F0916F020994CF92DF92EF92FF921F937A
:10E18000CF93DF931FB7F894F999FECF23E0FB01FB
:10E1900080935B0020935700E89507B600FCFDCF05
:10E1A000DA0153956B017C0121E0EC9111963C91D1
:10E1B0001197C32FD0E0DC2FCC27CE0FD11D0E013D
:10E1C000F601E0925B0020935700E8951124129627
:10E1D00032E0C30ED11CE11CF11C4A175B0729F782
:10E1E00025E0FB0180935B0020935700E89507B67C
:10E1F00000FCFDCF81E180935700E8951FBFDF91C0
:10E20000CF911F91FF90EF90DF90CF90089581E222
:10E21000E6E1F0E0809357009491E7E1F0E080932D
:10E220005700649170E0792B7093FB036093FA03BD
:10E23000CB01A0E0B0E0BC01CD018D5B924B6093BF
:10E24000F6037093F7038093F8039093F9030E9409
:10E25000FEF29093F5038093F40385B7982F9160B5
:10E2600095BF826085BF0E9449F484B5826084BDF9
:10E2700089EF87BD80916E00826080936E007894F4
:10E2800085B5836085BD80E48093E70381E080935A
:10E29000E8038091F4039091F5039093EA0380934F
:10E2A000E90386E08093EB038091F6039091F703F6
:10E2B0002091F8033091F9033093EC032093ED03A0
:10E2C0009093EE038093EF031092F2031092F30306
:10E2D000539A5B9A8FEF93E00E94B7F9C82F813071
:10E2E00061F58093F00383E58093F10387EE93E07B
:10E2F0000E9417F587E08093EB038091F0038F5F16
:10E300008093F003C093F1031092F20387EE93E041
:10E310000E9417F58091F0038F5F8093F003C09304
:10E32000F10380EF8093F20387EE93E00E9417F5EC
:10E3300060E08FEF93E00E94BFF977E0F72EC1E035
:10E34000D8E08FEF93E00E94DEF5882309F4FDC04A
:10E350008091FF038831B9F4809100048111F5C0E8
:10E360004091F4035091F5036091F6037091F70327
:10E370008091F8039091F90303E510E020E030E08C
:10E380000E94D1F3E2C08D3191F58091000481119A
:10E39000DCC04090F6035090F7036090F803709053
:10E3A000F903B301A20184E094E00E949FF0882366
:10E3B00009F4CBC0809108048111C7C00091FA0311
:10E3C0001091FB0320E030E04091F4035091F503FD
:10E3D00090E0892E92E0992E61E2A62E62E0B62EA0
:10E3E000C12CE12CC301B2010E940CF3AEC08034F9
:10E3F00009F0ABC08091FE0381112FC04091F6035C
:10E400005091F7036091F8037091F90384E094E070
:10E410000E949FF0882309F498C0809103048730FC
:10E4200099F480910004813009F08FC08091080434
:10E43000813009F08AC080910A04813009F085C0DA
:10E44000C093FE0360E004C0843009F07EC061E048
:10E450008FEF93E00E94BFF978C080910304883069
:10E46000B1F48091FC038F5F8093FC03A0910104C1
:10E47000A15028E0A29FD0011124A45FBB4F88E0E7
:10E48000E4E0F4E001900D928A95E1F75EC04091DE
:10E49000F6035091F7036091F8037091F90384E05B
:10E4A00094E00E949FF0882309F44FC080910804F3
:10E4B000853081F050F48430B9F58091090490E002
:10E4C00090930D0580930C0540C0863069F187302C
:10E4D000D1F12AC0F092EB038093F003609109041C
:10E4E0006093F10370E080910C0590910D05681721
:10E4F000790721F48091FC03803219F01092F20325
:10E500000CC0762F6627072E000C880B990B4CE069
:10E5100054E00E94BBF0C093F20387EE93E00E94A8
:10E5200017F51092FC0311C040E051E06FEF70E06E
:10E530008CE094E00E94B0F94CE054E060E070E0C0
:10E54000CB010E94BBF01092FE0380910E059091CA
:10E550000F05A0911005B0911105803D9740A105D0
:10E56000B10530F08091FE03813011F00E94AEF0D1
:10E570002091FE033CE93203C001112488539F4FD0
:10E580002091CC033091CD032817390708F4D9CE58
:10E590001092CD031092CC038BB18D278BB9D1CEC5
:10E5A0001F920F920FB60F9211248F939F93AF93E8
:10E5B000BF9380910E0590910F05A0911005B09129
:10E5C00011050196A11DB11D80930E0590930F05B5
:10E5D000A0931005B09311058091CC039091CD03C9
:10E5E00001969093CD038093CC03BF91AF919F91FF
:10E5F0008F910F900FBE0F901F9018950F931F9340
:10E600008C012227332760277127CB018F779C7FCE
:10E6100093601F910F9108952F923F924F925F92B6
:10E620006F927F928F929F92AF92BF92CF92DF9222
:10E63000EF92FF920F931F93CF93DF93CDB7DEB787
:10E640002D970FB6F894DEBF0FBECDBF362E472EE6
:10E65000582EF92E3A018DE1898381E08A8381E089
:10E6600093E09C838B8388E08D83EE82CF82188633
:10E6700019863A872B871C870D87CE0101960E9449
:10E6800017F590E0F501E90FF11D8081882311F065
:10E690009F5FF8CFF501DE01119680E0891728F41D
:10E6A000208115962C93159703C015961C921597EB
:10E6B0008F5F31961196883089F78B819C81019606
:10E6C0009C838B83CE0101960E9417F580E0A82ED3
:10E6D000B12CF401EA0DFB1D9081992311F08F5F9D
:10E6E000F6CF982F9770E82EE694E694E694911171
:10E6F000E394212C6E0189E0C80ED11C01E010E0EA
:10E700000C0F1D1F080D191DE21419F1FE013196A1
:10E71000D401C401801B910B9C012E0F3F1F2A15B1
:10E720003B051CF42C91258301C01582119631966E
:10E73000EC15FD0589F78B819C8101969C838B8369
:10E74000CE0101960E9417F5239488E0880E911C53
:10E75000DBCF8B817C826B8296E09D83FE825F8221
:10E76000488639861A868B87CE0101960E9417F556
:10E770002D960FB6F894DEBF0FBECDBFDF91CF91BF
:10E780001F910F91FF90EF90DF90CF90BF90AF90CF
:10E790009F908F907F906F905F904F903F902F90C1
:10E7A00008950F931F93CF93DF93CDB7DEB72D97C7
:10E7B0000FB6F894DEBF0FBECDBFE8E1E983E1E01C
:10E7C000EA835C834B8348E04D839E838F83788705
:10E7D00069873A872B871C870D87CE0101960E9497
:10E7E00017F52D960FB6F894DEBF0FBECDBFDF91A3
:10E7F000CF911F910F910895209A229A219A2398E0
:10E80000289A2A9A299A2B9A80E58CBD81E08DBDA1
:10E8100008958EBD0DB407FEFDCF8EB50895CF933C
:10E82000DF93D82FC62F289882E00E9409F48D2FFD
:10E830000E9409F48C2F0E9409F4289ADF91CF914D
:10E8400008951F93CF93DF93182FD62FC42F2898A6
:10E8500085E00E9409F4812F0E9409F48D2F0E9407
:10E8600009F48C2F0E9409F4289ADF91CF911F910F
:10E870000895CF93289880EB0E9409F48FEF0E94AF
:10E8800009F4C82F8FEF0E9409F4289A8C2FCF919A
:10E8900008950E94FCF3289880EC0E9409F48FE808
:10E8A00091E00197F1F700C00000289A8FE99FE0FE
:10E8B0000197F1F700C0000061E48AE20E940FF4C2
:10E8C00061EF89E20E940FF465E888E20E940FF48C
:10E8D00063E08BE20E940FF460E680E60E940FF492
:10E8E00060E680E70E940FF460E080E20E940FF48F
:10E8F00060E081E20E940FF460E082E20E940FF487
:10E9000060E083E20E940FF460E084E20E940FF472
:10E9100060E085E20E940FF460E086E20E940FF45E
:10E9200060E087E20E940FF460E08CE00E940FF448
:10E9300060E08DE00E940FF440E060EE8FE00E9406
:10E9400021F4E9E6F0E080818062808380818F7E1F
:10E950008083EA9A52985A9A52985A9A81E090E0A3
:10E960000C9485F6CF92DF92EF92FF92CF93DF93D4
:10E97000EC01C880D12CE12CF12C81E1CC0CDD1C08
:10E98000EE1CFF1C8A95D1F78981A7019601482BBF
:10E99000CA80DB80E12CF12CC22AD32AE42AF52A92
:10E9A000F894289880E40E9409F4D701C60125E173
:10E9B000B695A795979587952A95D1F70E9409F462
:10E9C000A70166277727842F8C71880F880F880FFF
:10E9D00043704860842B0E9409F48D2D0E9409F435
:10E9E0008C2D0E9409F48C810E9409F47E0135E08F
:10E9F000E30EF11C2D96F70181917F010E9409F42D
:10EA0000CE15DF05C1F7289A289881E80E9409F4FD
:10EA1000289A78948FE99FE00197F1F700C00000F1
:10EA2000DF91CF91FF90EF90DF90CF900895CF933B
:10EA3000DF93EC010E94B2F4CE01DF91CF910C94F0
:10EA400031F7CF92DF92EF92FF920F931F93CF9304
:10EA5000DF93EC010E9439F4182F082F007486FF11
:10EA600003C0289880E904C087FF61C0289884E922
:10EA70000E9409F48FEF0E9409F428E0829FC001F0
:10EA800011246C01990FEE08FF088FEF0E9409F422
:10EA9000982F929596959770C92A92E0CC0CDD1C20
:10EAA000EE1CFF1C9A95D1F78370C82AFE2CED2C22
:10EAB000DC2CCC248FEF0E9409F4C82AFE2CED2C0C
:10EAC000DC2CCC248FEF0E9409F4B701A601482B5F
:10EAD000DB01CA0171E1B695A795979587957A955F
:10EAE000D1F78883862F817089835B834A838FEF78
:10EAF0000E9409F48F708C837E0185E0E80EF11C82
:10EB00002D968FEF0E9409F4F70181937F01EC1796
:10EB1000FD07B9F7289A40E0002311F061E001C039
:10EB200062E08CE20E9421F4812F877001C08FEF98
:10EB3000DF91CF911F910F91FF90EF90DF90CF90D9
:10EB40000895CF9380917002C1E0C80FCF7090916B
:10EB50007102C91769F08F702DE0829FC0011124E6
:10EB60008E589D4F0E9421F5C093700281E001C034
:10EB700080E0CF910895DC01909171028091700244
:10EB80009817D1F0F894E09171029DE09E9FF001FA
:10EB90001124EE58FD4F01900D929A95E1F778946B
:10EBA000809171028F5F803118F48093710202C0EE
:10EBB0001092710281E0089580E008950F931F93F1
:10EBC000CF938C010E94BBF5C82F813021F4C8017E
:10EBD0000E9431F70DC00E947BF9C82F813039F4B3
:10EBE000C8010E94AAF8C8010E94B2F401C0C0E0A6
:10EBF0008C2FCF911F910F9108951F920F920FB6F6
:10EC00000F9211240BB60F922F933F934F935F9364
:10EC10006F937F938F939F93AF93BF93EF93FF93E4
:10EC20000E94A1F5FF91EF91BF91AF919F918F91BC
:10EC30007F916F915F914F913F912F910F900BBEFC
:10EC40000F900FBE0F901F9018951F920F920FB646
:10EC50000F9211240BB60F922F938F939F93EF93E4
:10EC6000FF938091C0009091C6008C71E091890360
:10EC7000EF5FEF7120918803E21739F0E093890389
:10EC8000F0E0E457FC4F908301C082E0909187034D
:10EC9000892B80938703FF91EF919F918F912F9103
:10ECA0000F900BBE0F900FBE0F901F9018951F92E4
:10ECB0000F920FB60F9211240BB60F928F939F9362
:10ECC000EF93FF9390918B0380918A03981769F0DB
:10ECD000E0918A03EF5FEF71E0938A03F0E0E4557F
:10ECE000FC4F80818093C60005C08091C1008F7D5C
:10ECF0008093C100FF91EF919F918F910F900BBE78
:10ED00000F900FBE0F901F90189510928B031092CA
:10ED10008A03109289031092880397FF03C022E0B0
:10ED20002093C00090789093C5008093C40088E938
:10ED30008093C10086E08093C2000895909189037A
:10ED4000809188039817A9F0909188039F5F9F7125
:10ED5000E92FF0E0E457FC4F2081809187039093E6
:10ED600088031092870390E0982F8827820F911DC7
:10ED7000089580E091E0089590918B039F5F9F71CB
:10ED800020918A039217E1F3E92FF0E0E455FC4F5C
:10ED9000808390938B038091C10080628093C10037
:10EDA00008951F920F920FB60F9211240BB60F9277
:10EDB0002F938F939F93EF93FF938091C80090912F
:10EDC000CE008C71E0914403EF5FEF71209143031B
:10EDD000E21739F0E0934403F0E0E95BFC4F9083E5
:10EDE00001C082E090914203892B80934203FF91FE
:10EDF000EF919F918F912F910F900BBE0F900FBEAF
:10EE00000F901F9018951F920F920FB60F9211241A
:10EE10000BB60F928F939F93EF93FF9390914603BE
:10EE200080914503981769F0E0914503EF5FEF711A
:10EE3000E0934503F0E0E959FC4F80818093CE00D8
:10EE400005C08091C9008F7D8093C900FF91EF912B
:10EE50009F918F910F900BBE0F900FBE0F901F9040
:10EE600018958F929F92AF92BF92CF92DF92EF92BE
:10EE7000FF920F931F93CF93DF93CDB7DEB76A97BF
:10EE80000FB6F894DEBF0FBECDBF8C01DC018C91B4
:10EE900090E0A0E0B0E051E1880F991FAA1FBB1FCE
:10EEA0005A95D1F7F8012181AC01BD01622B828115
:10EEB0009381A0E0B0E0842B952BA62BB72B24E503
:10EEC000298320E32A834B2F552766277727FA01CA
:10EED000E35AFD4FA080AB82AC01BD01E4E1769521
:10EEE000679557954795EA95D1F74F70552766274F
:10EEF0007727FA01E35AFD4FB080BC82AD01662747
:10EF000077274F70552766277727FA01E35AFD4F79
:10EF1000C080CD82AC01BD012CE0769567955795F8
:10EF200047952A95D1F74F70552766277727FA011D
:10EF3000E35AFD4FD080DE82492F5A2F6B2F77275F
:10EF40004F70552766277727FA01E35AFD4FE08077
:10EF5000EF82AC01BD01E4E0769567955795479542
:10EF6000EA95D1F74F70552766277727FA01E35ABC
:10EF7000FD4FF080F8868F709927AA27BB27FC01E8
:10EF8000E35AFD4F80808986D8011496EC9114973E
:10EF9000F0E0E35AFD4F90809A861596EC91AE2FE3
:10EFA000A295AF70B0E0A35ABD4F8C918B87EF70E4
:10EFB000F0E0E35AFD4F80818C87D8011696EC91E2
:10EFC000AE2FA295AF70B0E0A35ABD4F8C918D8744
:10EFD000EF70F0E0E35AFD4F80818E87D8011796DD
:10EFE000EC91AE2FA295AF70B0E0A35ABD4F8C91BB
:10EFF0008F87EF70F0E0E35AFD4F8081888BD80156
:10F000001896EC91AE2FA295AF70B0E0A35ABD4F09
:10F010008C91898BEF70F0E0E35AFD4F80818A8BF1
:10F02000D8011996EC91AE2FA295AF70B0E0A35A1B
:10F03000BD4F8C918B8BEF70F0E0E35AFD4F8081D8
:10F040008C8BD8011A96EC91AE2FA295AF70B0E0E0
:10F05000A35ABD4F8C918D8BEF70F0E0E35AFD4FBA
:10F0600080818E8BD8011B96EC91AE2FA295AF704C
:10F07000B0E0A35ABD4F8C918F8BEF70F0E0E35A54
:10F08000FD4F8081888FD8011C96EC91AE2FA29500
:10F09000AF70B0E0A35ABD4F8C91898FEF70F0E054
:10F0A000E35AFD4F80818A8F84E50E94BCF680E39D
:10F0B0000E94BCF68A2D0E94BCF68B2D0E94BCF6E5
:10F0C0008C2D0E94BCF68D2D0E94BCF68E2D0E94C8
:10F0D000BCF68F2D0E94BCF6882D0E94BCF6892DAF
:10F0E0000E94BCF6FAE0FF2E2F2D30E0F80184815B
:10F0F00090E00596880F991F281739075CF4E1E026
:10F10000F0E0EC0FFD1FE20FF31F80810E94BCF6C0
:10F11000F394EACF8DE06A960FB6F894DEBF0FBE87
:10F12000CDBFDF91CF911F910F91FF90EF90DF90B6
:10F13000CF90BF90AF909F908F900C94BCF680536F
:10F14000873330F4E82FF0E0EA5DFD4F80810895C9
:10F1500080E008954F925F926F927F928F929F927C
:10F16000AF92BF92CF92DF92EF92FF920F931F93D5
:10F17000CF93DF93EC018091CE030E949FF8882EFD
:10F180008091CF030E949FF8912CA12CB12C9CE17F
:10F19000880C991CAA1CBB1C9A95D1F790E0A0E0A2
:10F1A000B0E0B82FAA2799278827880E991EAA1E93
:10F1B000BB1E8091D0030E949FF8C82E8091D1037E
:10F1C0000E949FF8482E8091D2030E949FF8082F3A
:10F1D0008091D3030E949FF8F82E8091D4030E945F
:10F1E0009FF8E82E8091D5030E949FF84C2D50E0A7
:10F1F00060E070E034E1440F551F661F771F3A95B9
:10F20000D1F7880E911CA11CB11C480D591D6A1D17
:10F210007B1D512C612C712C320155244424440D4A
:10F22000551D661D771D10E020E030E0FCE0000F6A
:10F23000111F221F331FFA95D1F7400F511F621F74
:10F24000731F8F2D90E0A0E0B0E0BA2FA92F982F68
:10F250008827480F591F6A1F7B1FCE2CD12CE12C09
:10F26000F12C04E0CC0CDD1CEE1CFF1C0A95D1F740
:10F27000C40ED51EE61EF71E8091D6030E949FF88D
:10F28000B82E8C83D701C60121E1B695A795979535
:10F2900087952A95D1F788838E2D81708983DB82AB
:10F2A000CA820EEC13E02596F12C0E5F1F4FFB1463
:10F2B00089F0F80187810E949FF8E82EF801808587
:10F2C0000E949FF88F70F0E1EF9E800D11248993CA
:10F2D000F394EBCFDF91CF911F910F91FF90EF90BF
:10F2E000DF90CF90BF90AF909F908F907F906F9066
:10F2F0005F904F9008950E949EF69C01832F99275E
:10F30000892B19F52435310519F41092FD0326C017
:10F310009091FD032D30310519F02A30310551F45B
:10F320009A3140F4993010F089E101C08AE180936C
:10F33000FD0314C0993148F4E92FF0E0E253FC4F8B
:10F3400020839F5F9093FD0309C08091FD03893165
:10F3500029F48AE18093FD0381E0089580E0089517
:10F36000DC0101C06D9341505040E0F70895F999D8
:10F37000FECF92BD81BDF89A992780B50895262FBA
:10F38000F999FECF92BD81BDF89A019700B402169B
:10F3900039F01FBA20BD0FB6F894FA9AF99A0FBE49
:06F3A0000895F894FFCF70
:10F3A6004DC3A443414E2033322D66616368204726
:10F3B6006C65697362656C6567746D656C646572AE
:10F3C60000447833320000010203040506070809E9
:10F3D600000000000000000A0B0C0D0E0F000000DC
:10F3E6000000000000000000000000000000000017
:10F3F600000000000000000A0B0C0D0E0F30313229
:0EF406003334353637383941424344454600E9
:040000050080026E07
:00000001FF
