:107000000C9434380C94CB3C0C945D380C945D3863
:107010000C945D380C945D380C945D380C945D389C
:107020000C945D380C945D380C945D380C945D388C
:107030000C945D380C945D380C945C3A0C945D387B
:107040000C945D380C945D380C94913D0C94BF3DCC
:107050000C945D380C945D380C945D380C945D385C
:107060000C945D380C945D3811241FBECFEFD8E02E
:10707000DEBFCDBF14BE0FB6F894A8958091600016
:10708000886180936000109260000FBE11E0A0E064
:10709000B1E0E8E1FCE702C005900D92A831B1072C
:1070A000D9F722E0A8E1B1E001C01D92A33EB207EA
:1070B000E1F70E94AE380C940A3E0C940038F89424
:1070C00085B7982F916095BF8D7F85BFE09118019E
:1070D000F09119010994FF920F931F93CF93DF93BF
:1070E000CFB7F894F999FECF8B0123E0FB012093F1
:1070F0005700E89507B600FCFDCF9A0120583F4F96
:10710000DA01D1E0A8014A1B5B0BFC90FA01EA0FFF
:10711000FB1F11961C911197012F10E0102F0027D3
:107120000F0D111D0801D0935700E89511241296F8
:10713000A217B30751F725E0FB0120935700E8950C
:1071400007B600FCFDCF81E180935700E895CFBFE3
:10715000DF91CF911F910F91FF90089581E2E6E1B9
:10716000F0E0809357009491E7E1F0E080935700BE
:10717000E491F0E0F92BF0934902E093480285B7DF
:10718000982F916095BF826085BF60914802709191
:107190004902CB01A0E0B0E0BC01CD01975E0E94A6
:1071A000B73A84B5826084BD89EF87BD80916E0057
:1071B000826080936E00789485B5836085BD80E49D
:1071C0008093350281E08093360280913302909162
:1071D0003402909338028093370286E0809339021C
:1071E0008091DB029091DC022091DD023091DE0281
:1071F00030933A0220933B0290933C0280933D02ED
:107200001092400210924102219A299A8FEF93E046
:107210000E94F03D813069F580933E0280E78093C3
:107220003F0285E392E00E94A03B87E08093390211
:1072300080913E028F5F80933E0210923F0280E871
:107240008093400285E392E00E94A03B80913E0241
:107250008F5F80933E0210923F0280EE8093400247
:1072600085E392E00E94A03B60E08FEF93E00E94F4
:10727000F83DDCE937E0D32ECC24C394C2E08CE4A3
:1072800092E00E94A23B882309F4EBC080914C025B
:10729000883159F480914D02811130C060E770E06F
:1072A00080E090E00E94983CDCC08D3139F58091FF
:1072B0004D02811123C04091DB025091DC026091AC
:1072C000DD027091DE0281E592E00E94C53B8823D9
:1072D000A9F080915502811111C06091480270910E
:1072E000490280E090E020E0E22E21E0F22E02E16F
:1072F00011E020E040E00E94D43BB3C080914C02FA
:10730000803409F0AEC080914B0281112FC04091B2
:10731000DB025091DC026091DD027091DE0281E5BA
:1073200092E00E94C53B882309F49BC080915002E3
:10733000873099F480914D02813009F092C080919C
:107340005502813009F08DC080915702813009F0DB
:1073500088C080934B0260E004C0843009F081C093
:1073600061E08FEF93E00E94F83D7BC08091500276
:107370008830B1F480914A028F5F80934A02A091D5
:107380004E02A15028E0A29FD0011124A75ABD4F60
:1073900088E0E1E5F2E001900D928A95E1F761C0A5
:1073A0004091DB025091DC026091DD027091DE02BF
:1073B00081E592E00E94C53B882309F452C0809188
:1073C0005502853081F050F48430D1F58091560219
:1073D00090E09093DA028093D90243C0863081F125
:1073E0008730E9F12DC0D092390280933E0260913E
:1073F000560260933F0270E08091D9029091DA02C8
:107400006817790721F480914A02803119F01092AF
:1074100040020FC07695762F662777956795072EE1
:10742000000C880B990B49E552E00E946B38C09222
:10743000400285E392E00E94A03B10924A0211C0F4
:1074400040E850E06FEF70E089E592E00E94E93D8E
:1074500049E552E060E070E0CB010E946B38109289
:107460004B028091DF029091E002A091E102B09185
:10747000E202803D9740A105B10530F080914B02BA
:10748000813011F00E945F3820914B023D2F320372
:10749000C001112488539F4F209131023091320254
:1074A0002817390708F4EBCE1092320210923102FD
:1074B00085B18C2785B9E3CE1F920F920FB60F923C
:1074C00011248F939F93AF93BF938091DF0290918C
:1074D000E002A091E102B091E2020196A11DB11D6E
:1074E0008093DF029093E002A093E102B093E20266
:1074F00080913102909132020196909332028093F2
:107500003102BF91AF919F918F910F900FBE0F905D
:107510001F9018958EBD0DB407FEFDCF8EB5089552
:10752000CF93DF93D82FC62F2A9882E00E948A3A01
:107530008D2F0E948A3A8C2F0E948A3A2A9ADF91D4
:10754000CF910895CF93DF93D82FC62F2A9885E047
:107550000E948A3A8D2F0E948A3A8C2F0E948A3A82
:1075600080E00E948A3A2A9ADF91CF9108950F9382
:107570001F936093DB027093DC028093DD02909393
:10758000DE028C0122273327602771276F777C7FEB
:1075900073607093340260933302229A239A259A7F
:1075A00024982A9A2B9A2D9A2C9A80E58CBD81E0FA
:1075B0008DBD2A9880EC0E948A3A8FE891E001976D
:1075C000F1F700C000002A9A8FE99FE00197F1F7D8
:1075D00000C0000061E48AE20E94903A61EF89E213
:1075E0000E94903A65E888E20E94903A63E08BE25C
:1075F0000E94903A60E680E60E94903A60E680E75A
:107600000E94903A60E080E20E94903A60E081E25D
:107610000E94903A60E082E20E94903A60E083E249
:107620000E94903A60E084E20E94903A60E085E235
:107630000E94903A60E086E20E94903A60E087E221
:107640000E94903A60E08CE00E94903A60E08DE009
:107650000E94903A60EE8FE00E94A23A52985A9AA5
:10766000E9E6F0E0808181608083E89A52985A9A36
:107670001F910F910895CF92DF92EF92FF92CF93D7
:10768000DF93EC01C880D12CE12CF12C81E1CC0CF2
:10769000DD1CEE1CFF1C8A95D1F78981A70196019C
:1076A000482BCA80DB80E12CF12CC22AD32AE42AA1
:1076B000F52AF8942A9880E40E948A3AD701C601F4
:1076C00025E1B695A795979587952A95D1F70E94BC
:1076D0008A3AA70166277727842F8C71880F880F35
:1076E000880F43704860842B0E948A3A8D2D0E9437
:1076F0008A3A8C2D0E948A3A8C810E948A3A7E01B5
:1077000035E0E30EF11C2D96F70181917F010E9477
:107710008A3ACE15DF05C1F72A9A2A9881E80E9495
:107720008A3A2A9A78948FE99FE00197F1F700C08E
:107730000000DF91CF91FF90EF90DF90CF90089500
:107740000C943B3BDC0190911B0180911A0198172E
:10775000B1F0F894E0911B019DE09E9FF00111248F
:10776000E45EFE4F01900D929A95E1F77894809136
:107770001B018F5F803128F010921B0104C080E054
:10778000089580931B0181E00895FC018081871397
:1077900009C08181861306C08281851303C081E000
:1077A0009381941380E008958F929F92AF92BF923D
:1077B000CF92DF92EF92FF920F931F93CF93DF93BD
:1077C000CDB7DEB72D970FB6F894DEBF0FBECDBF95
:1077D0003DE1398331E03A83E1E0F3E0FC83EB8380
:1077E00038E03D834E832F83188619869A878B87CE
:1077F0007C876D87CE0101960E943B3B90E0F801AB
:10780000E90FF11D8081882311F09F5FF8CFF80107
:10781000DE01119680E0891728F4208115962C93BB
:10782000159703C015961C9215978F5F3196119688
:10783000883089F78B819C8101969C838B83CE0154
:1078400001960E943B3B80E0C82ED12CF701EC0D45
:10785000FD1D9081992311F08F5FF6CF982F9770BF
:10786000869586958695992319F011E0180F01C029
:10787000182F00E04E0189E0880E911CAA24A394E1
:10788000B12CAC0EBD1EAE0CBF1C101719F1FE01C1
:107890003196D701C7018A199B099C012E0F3F1F02
:1078A0002C153D051CF42C91258301C015821196E1
:1078B0003196E815F90589F78B819C8101969C83A7
:1078C0008B83CE0101960E943B3B0F5F88E0E80E60
:1078D000F11CDBCF8B8120913302309134023C8349
:1078E0002B8396E09D839091DB022091DC02309106
:1078F000DD024091DE024E833F83288799871A86F6
:107900008B87CE0101960E943B3B2D960FB6F894D3
:10791000DEBF0FBECDBFDF91CF911F910F91FF90C2
:10792000EF90DF90CF90BF90AF909F908F90089591
:10793000CF93DF93CDB7DEB72D970FB6F894DEBFA8
:107940000FBECDBF28E1298321E02A832091330295
:10795000309134023C832B8328E02D832091DB027D
:107960003091DC024091DD025091DE025E834F8354
:10797000388729879A878B877C876D87CE01019608
:107980000E943B3B2D960FB6F894DEBF0FBECDBFD5
:10799000DF91CF9108951F920F920FB60F9211248D
:1079A000BF92CF92DF92EF92FF920F931F932F938C
:1079B0003F934F935F936F937F938F939F93AF9377
:1079C000BF93CF93DF93EF93FF9310911A0101E0E0
:1079D000010F0F7080911B01081709F488C02A98C5
:1079E00080EB0E948A3A8FEF0E948A3AC82F8FEF6D
:1079F0000E948A3A2A9A2C2F2074B22EC6FF03C006
:107A00002A9880E904C0C7FF70C02A9884E90E94C0
:107A10008A3A1F70C12FD0E08FEF0E948A3A38E077
:107A2000839FC00111246C01990FEE08FF088FEFAE
:107A30000E948A3A982F929596959770C92A92E05B
:107A4000CC0CDD1CEE1CFF1C9A95D1F78370C82A64
:107A5000FE2CED2CDC2CCC248FEF0E948A3AC82A15
:107A6000FE2CED2CDC2CCC248FEF0E948A3AA7014F
:107A70009601282BDA01C9014DE04C9F90014D9FE2
:107A8000300D1124E901C45EDE4FAC01BD01E1E11E
:107A90007695679557954795EA95D1F748832A2FAC
:107AA000217029839B838A838FEF0E948A3A8F708B
:107AB0008C833DE0139F70011124C0E0D0E08FEF74
:107AC0000E948A3AF701EC0FFD1FE45EFE4F8583AA
:107AD0002196C830D10599F72A9ABB2011F061E0B0
:107AE00001C062E08CE20E94A23A00931A01FF9169
:107AF000EF91DF91CF91BF91AF919F918F917F9146
:107B00006F915F914F913F912F911F910F91FF9036
:107B1000EF90DF90CF90BF900F900FBE0F901F900F
:107B200018951F920F920FB60F9211242F938F93D7
:107B30009F93EF93FF938091C0009091C6008C714A
:107B4000E091EE01EF5FEF712091ED01E21739F066
:107B5000E093EE01F0E0EF50FE4F908301C082E031
:107B60009091EC01892B8093EC01FF91EF919F9113
:107B70008F912F910F900FBE0F901F9018951F920D
:107B80000F920FB60F9211248F939F93EF93FF9351
:107B90009091F0018091EF01981769F0E091EF0169
:107BA000EF5FEF71E093EF01F0E0EF5EFD4F80815A
:107BB0008093C60005C08091C1008F7D8093C10075
:107BC000FF91EF919F918F910F900FBE0F901F909B
:107BD0001895DC0101C06D9341505040E0F70895C5
:107BE000F999FECF92BD81BDF89A992780B5089585
:107BF000262FF999FECF92BD81BDF89A019700B466
:107C0000021639F01FBA20BD0FB6F894FA9AF99A05
:087C10000FBE0895F894FFCFA8
:107C18004E5363616C65204772756E646D6F647551
:087C28006C004E53474D0000B3
:04000005008001185E
:00000001FF
