:107000000C9434380C94F63C0C945D380C945D3838
:107010000C945D380C945D380C945D380C945D389C
:107020000C945D380C945D380C945D380C945D388C
:107030000C945D380C945D380C94873A0C945D3850
:107040000C945D380C945D380C94BC3D0C94EA3D76
:107050000C945D380C945D380C945D380C945D385C
:107060000C945D380C945D3811241FBECFEFD8E02E
:10707000DEBFCDBF14BE0FB6F894A8958091600016
:10708000886180936000109260000FBE11E0A0E064
:10709000B1E0E0E6FCE702C005900D92A831B1072F
:1070A000D9F722E0A8E1B1E001C01D92A33EB207EA
:1070B000E1F70E94C0380C942E3E0C940038F894EE
:1070C00085B7982F916095BF8D7F85BFE09118019E
:1070D000F091190109942FB7F894F999FECF33E094
:1070E000FB0130935700E89507B600FCFDCF91E116
:1070F00090935700E8952FBF0895FF920F931F9329
:10710000CF93DF93CFB7F894F999FECF8B0123E0AB
:10711000FB0120935700E89507B600FCFDCF9A01CC
:1071200020583F4FDA01D1E0A8014A1B5B0BFC90CD
:10713000FA01EA0FFB1F11961C911197012F10E025
:10714000102F00270F0D111D0801D0935700E8954F
:1071500011241296A217B30751F725E0FB012093E3
:107160005700E89507B600FCFDCF81E180935700FA
:10717000E895CFBFDF91CF911F910F91FF900895B8
:1071800081E2E6E1F0E0809357009491E7E1F0E0DE
:1071900080935700E491F0E0F92BF0934902E093DB
:1071A000480285B7982F916095BF826085BF609136
:1071B000480270914902CB01A0E0B0E0BC01CD01D2
:1071C000975E0E94E23A84B5826084BD89EF87BDF4
:1071D00080916E00826080936E00789485B58360A4
:1071E00085BD80E48093350281E0809336028091F2
:1071F000330290913402909338028093370286E0F4
:10720000809339028091DB029091DC022091DD02B3
:107210003091DE0230933A0220933B0290933C027D
:1072200080933D021092400210924102219A299AC5
:107230008FEF93E00E94143E813069F580933E0207
:1072400080E780933F0285E392E00E94CB3B87E09A
:107250008093390280913E028F5F80933E021092AC
:107260003F0280E88093400285E392E00E94CB3B9E
:1072700080913E028F5F80933E0210923F0280EE2B
:107280008093400285E392E00E94CB3B60E08FEF69
:1072900093E00E941C3EDCE937E0D32ECC24C3945B
:1072A000C2E08CE492E00E94CD3B882309F404C143
:1072B00080914C02883159F480914D02811130C087
:1072C00060E770E080E090E00E94C33CF5C08D3143
:1072D00039F580914D02811123C04091DB0250911C
:1072E000DC026091DD027091DE0281E592E00E9495
:1072F000F03B8823A9F080915502811111C0609163
:1073000048027091490280E090E020E0E22E21E006
:10731000F22E02E111E020E040E00E94FF3BCCC0F1
:1073200080914C02803409F0C7C080914B028111DA
:107330002FC04091DB025091DC026091DD02709120
:10734000DE0281E592E00E94F03B882309F4B4C09C
:1073500080915002873099F480914D02813009F07C
:10736000ABC080915502813009F0A6C080915702D0
:10737000813009F0A1C080934B0260E004C08430EA
:1073800009F09AC061E08FEF93E00E941C3E94C028
:10739000809150028830B1F480914A028F5F8093CF
:1073A0004A02A0914E02A15028E0A29FD0011124D0
:1073B000A75ABD4F88E0E1E5F2E001900D928A9571
:1073C000E1F77AC04091DB025091DC026091DD026E
:1073D0007091DE0281E592E00E94F03B882309F47F
:1073E0006BC080915502853091F058F4843009F0DB
:1073F00050C08091560290E09093DA028093D902B7
:107400005BC0863089F1873009F440C042C0D09219
:10741000390280933E026091560260933F0270E011
:107420008091D9029091DA026817790721F480914E
:107430004A02803119F0109240020FC07695762FE3
:10744000662777956795072E000C880B990B49E501
:1074500052E00E947D38C092400285E392E00E9493
:10746000CB3B10924A0228C0812C912C5401C501BB
:10747000B4010E946B3830E8830E911CA11CB11C32
:10748000811480E79806A104B10489F710924B0299
:1074900013C0812C912C5401C501B4010E946B389A
:1074A00020E8820E911CA11CB11C811430E79306C8
:1074B000A104B10489F7EACF8091DF029091E00244
:1074C000A091E102B091E202803D9740A105B10593
:1074D00030F080914B02813011F00E945F38209192
:1074E0004B023D2F3203C001112488539F4F20913E
:1074F0003102309132022817390708F4D2CE1092A7
:1075000032021092310285B18C2785B9CACE1F9202
:107510000F920FB60F9211248F939F93AF93BF9347
:107520008091DF029091E002A091E102B091E2022D
:107530000196A11DB11D8093DF029093E002A093FC
:10754000E102B093E2028091310290913202019601
:107550009093320280933102BF91AF919F918F91AE
:107560000F900FBE0F901F9018958EBD0DB407FEA3
:10757000FDCF8EB50895CF93DF93D82FC62F2A98CD
:1075800082E00E94B53A8D2F0E94B53A8C2F0E945E
:10759000B53A2A9ADF91CF910895CF93DF93D82FF0
:1075A000C62F2A9885E00E94B53A8D2F0E94B53AE1
:1075B0008C2F0E94B53A80E00E94B53A2A9ADF915A
:1075C000CF9108950F931F936093DB027093DC02B9
:1075D0008093DD029093DE028C01222733276027FF
:1075E00071276F777C7F73607093340260933302EE
:1075F000229A239A259A24982A9A2B9A2D9A2C9A81
:1076000080E58CBD81E08DBD2A9880EC0E94B53A62
:107610008FE891E00197F1F700C000002A9A8FE906
:107620009FE00197F1F700C0000061E48AE20E9448
:10763000BB3A61EF89E20E94BB3A65E888E20E94AA
:10764000BB3A63E08BE20E94BB3A60E680E60E94B0
:10765000BB3A60E680E70E94BB3A60E080E20E94AD
:10766000BB3A60E081E20E94BB3A60E082E20E94A5
:10767000BB3A60E083E20E94BB3A60E084E20E9491
:10768000BB3A60E085E20E94BB3A60E086E20E947D
:10769000BB3A60E087E20E94BB3A60E08CE00E9467
:1076A000BB3A60E08DE00E94BB3A60EE8FE00E9442
:1076B000CD3A52985A9AE9E6F0E080818160808361
:1076C000E89A52985A9A1F910F910895CF92DF929B
:1076D000EF92FF92CF93DF93EC01C880D12CE12C85
:1076E000F12C81E1CC0CDD1CEE1CFF1C8A95D1F73E
:1076F0008981A7019601482BCA80DB80E12CF12CFF
:10770000C22AD32AE42AF52AF8942A9880E40E940F
:10771000B53AD701C60125E1B695A7959795879506
:107720002A95D1F70E94B53AA70166277727842FBB
:107730008C71880F880F880F43704860842B0E94DB
:10774000B53A8D2D0E94B53A8C2D0E94B53A8C81A8
:107750000E94B53A7E0135E0E30EF11C2D96F7014B
:1077600081917F010E94B53ACE15DF05C1F72A9AB3
:107770002A9881E80E94B53A2A9A78948FE99FE086
:107780000197F1F700C00000DF91CF91FF90EF90DB
:10779000DF90CF9008950C94663BDC0190911B0123
:1077A00080911A019817B1F0F894E0911B019DE0C7
:1077B0009E9FF0011124E45EFE4F01900D929A9578
:1077C000E1F7789480911B018F5F803128F010924F
:1077D0001B0104C080E0089580931B0181E008959F
:1077E000FC018081871309C08181861306C08281D4
:1077F000851303C081E09381941380E008958F92F4
:107800009F92AF92BF92CF92DF92EF92FF920F932F
:107810001F93CF93DF93CDB7DEB72D970FB6F894B4
:10782000DEBF0FBECDBF3DE1398331E03A83E1E0F9
:10783000F3E0FC83EB8338E03D834E832F8318868F
:1078400019869A878B877C876D87CE0101960E9467
:10785000663B90E0F801E90FF11D8081882311F06B
:107860009F5FF8CFF801DE01119680E0891728F4B8
:10787000208115962C93159703C015961C92159789
:107880008F5F31961196883089F78B819C810196A4
:107890009C838B83CE0101960E94663B80E0C82EBC
:1078A000D12CF701EC0DFD1D9081992311F08F5F14
:1078B000F6CF982F9770869586958695992319F01F
:1078C00011E0180F01C0182F00E04E0189E0880E6A
:1078D000911CAA24A394B12CAC0EBD1EAE0CBF1CEF
:1078E000101719F1FE013196D701C7018A199B09BA
:1078F0009C012E0F3F1F2C153D051CF42C91258358
:1079000001C0158211963196E815F90589F78B812A
:107910009C8101969C838B83CE0101960E94663BDD
:107920000F5F88E0E80EF11CDBCF8B8120913302E2
:10793000309134023C832B8396E09D839091DB024F
:107940002091DC023091DD024091DE024E833F83C4
:10795000288799871A868B87CE0101960E94663BFD
:107960002D960FB6F894DEBF0FBECDBFDF91CF913D
:107970001F910F91FF90EF90DF90CF90BF90AF904D
:107980009F908F900895CF93DF93CDB7DEB72D975B
:107990000FB6F894DEBF0FBECDBF28E1298321E0EA
:1079A0002A8320913302309134023C832B8328E0D8
:1079B0002D832091DB023091DC024091DD02509159
:1079C000DE025E834F83388729879A878B877C877F
:1079D0006D87CE0101960E94663B2D960FB6F894F6
:1079E000DEBF0FBECDBFDF91CF9108951F920F92E2
:1079F0000FB60F921124BF92CF92DF92EF92FF92B7
:107A00000F931F932F933F934F935F936F937F93A6
:107A10008F939F93AF93BF93CF93DF93EF93FF9396
:107A200010911A0101E0010F0F7080911B010817DE
:107A300009F488C02A9880EB0E94B53A8FEF0E9423
:107A4000B53AC82F8FEF0E94B53A2A9A2C2F20748E
:107A5000B22EC6FF03C02A9880E904C0C7FF70C0D9
:107A60002A9884E90E94B53A1F70C12FD0E08FEFA9
:107A70000E94B53A38E0839FC00111246C01990F30
:107A8000EE08FF088FEF0E94B53A982F92959695D1
:107A90009770C92A92E0CC0CDD1CEE1CFF1C9A9555
:107AA000D1F78370C82AFE2CED2CDC2CCC248FEF70
:107AB0000E94B53AC82AFE2CED2CDC2CCC248FEF8A
:107AC0000E94B53AA7019601282BDA01C9014DE0C1
:107AD0004C9F90014D9F300D1124E901C45EDE4F93
:107AE000AC01BD01E1E17695679557954795EA951B
:107AF000D1F748832A2F217029839B838A838FEFB4
:107B00000E94B53A8F708C833DE0139F7001112461
:107B1000C0E0D0E08FEF0E94B53AF701EC0FFD1FF7
:107B2000E45EFE4F85832196C830D10599F72A9AE5
:107B3000BB2011F061E001C062E08CE20E94CD3A0E
:107B400000931A01FF91EF91DF91CF91BF91AF9117
:107B50009F918F917F916F915F914F913F912F9165
:107B60001F910F91FF90EF90DF90CF90BF900F90FB
:107B70000FBE0F901F9018951F920F920FB60F9285
:107B800011242F938F939F93EF93FF938091C000C5
:107B90009091C6008C71E091EE01EF5FEF71209142
:107BA000ED01E21739F0E093EE01F0E0EF50FE4F07
:107BB000908301C082E09091EC01892B8093EC01CD
:107BC000FF91EF919F918F912F910F900FBE0F908A
:107BD0001F9018951F920F920FB60F9211248F933A
:107BE0009F93EF93FF939091F0018091EF0198178D
:107BF00069F0E091EF01EF5FEF71E093EF01F0E0EA
:107C0000EF5EFD4F80818093C60005C08091C1006A
:107C10008F7D8093C100FF91EF919F918F910F9085
:107C20000FBE0F901F901895F999FECF92BD81BDA0
:107C3000F89A992780B50895262FF999FECF92BD1D
:107C400081BDF89A019700B4021639F01FBA20BD21
:107C50000FB6F894FA9AF99A0FBE0895F894FFCFE8
:107C60004E5363616C65204772756E646D6F647509
:087C70006C004E53474D00006B
:04000005008001185E
:00000001FF
