:107000000C9434380C94563D0C945D380C945D38D7
:107010000C945D380C945D380C945D380C945D389C
:107020000C945D380C945D380C945D380C945D388C
:107030000C945D380C945D380C94E83A0C945D38EF
:107040000C945D380C945D380C94323E0C94603E88
:107050000C945D380C945D380C945D380C945D385C
:107060000C945D380C945D3811241FBECFEFD8E02E
:10707000DEBFCDBF14BE0FB6F894A8958091600016
:10708000886180936000109260000FBE11E0A0E064
:10709000B1E0ECE4FDE702C005900D92A831B10724
:1070A000D9F722E0A8E1B1E001C01D92A43EB207E9
:1070B000E1F70E94C0380C94A43E0C940038F89478
:1070C00085B7982F916095BF8D7F85BFE09118019E
:1070D000F091190109942FB7F894F999FECF33E094
:1070E000FB0130935700E89507B600FCFDCF91E116
:1070F00090935700E8952FBF0895FF920F931F9329
:10710000CF93DF93CFB7F894F999FECF8B0123E0AB
:10711000FB0120935700E89507B600FCFDCF9A01CC
:1071200020583F4FDA01D1E0A8014A1B5B0BFC90CD
:10713000FA01EA0FFB1F11961C911197012F10E025
:10714000102F00270F0D111D0801D0935700E8954F
:1071500011241296A217B30751F725E0FB012093E3
:107160005700E89507B600FCFDCF81E180935700FA
:10717000E895CFBFDF91CF911F910F91FF900895B8
:1071800081E2E6E1F0E0809357009491E7E1F0E0DE
:1071900080935700E491F0E0F92BF0934A02E093DA
:1071A000490285B7982F916095BF826085BF609135
:1071B000490270914A02CB01A0E0B0E0BC01CD01D0
:1071C000975E0E94433B84B5826084BD89EF87BD92
:1071D00080916E00826080936E00789485B58360A4
:1071E00085BD80E48093360281E0809337028091F0
:1071F0003402909135029093390280933802C7E0AF
:10720000C0933A028091DC029091DD022091DE026F
:107210003091DF0230933B0220933C0290933D0279
:1072200080933E021092410210924202219A299AC2
:107230008FEF93E00E948A3E813071F580933F0288
:1072400090E7909340028093410286E392E00E948F
:107250002C3CC0933A0280913F028F5F80933F02A3
:107260001092400280E88093410286E392E00E94FF
:107270002C3C80913F028F5F80933F02109240022E
:1072800080EE8093410286E392E00E942C3C60E015
:107290008FEF93E00E94923E35E0D32EC7E0D1E01D
:1072A00040E7C42E50E8B52E60EEA62E8DE492E0A5
:1072B0000E942E3C882309F45FC180914D028831E1
:1072C00059F480914E02811130C060E770E080E097
:1072D00090E00E94233D50C18D3139F580914E02DE
:1072E000811123C04091DC025091DD026091DE02E9
:1072F0007091DF0282E592E00E94503C8823A9F061
:1073000080915602811111C06091490270914A0228
:1073100080E090E020E0E22E21E0F22E02E111E098
:1073200020E040E00E945F3C27C180914D02803404
:1073300009F022C180914C02811154C04091DC02BD
:107340005091DD026091DE027091DF0282E592E0F1
:107350000E94503C882309F40FC18091510287306C
:10736000B9F480914E02813009F006C18091560235
:10737000813009F001C180915802813009F0FCC0D0
:1073800080934C0260E08FEF93E00E94923EF4C045
:10739000843009F0F1C0D0933F02C0924002D093F4
:1073A000410286E392E00E942C3CC0933A02809115
:1073B0003F028F5F80933F0210924002B0924102E1
:1073C00086E392E00E942C3C80913F028F5F809385
:1073D0003F0210924002A092410286E392E00E9496
:1073E0002C3CCAC0809151028830B1F480914B028C
:1073F0008F5F80934B02A0914F02A15028E0A29F83
:10740000D0011124A65ABD4F88E0E2E5F2E00190D8
:107410000D928A95E1F7B0C04091DC025091DD02F7
:107420006091DE027091DF0282E592E00E94503CA2
:10743000882309F4A1C080915602863009F474C0F3
:1074400028F4843061F0853071F083C08431C1F15B
:10745000853109F441C0873009F07BC077C0809145
:10746000570290E034C0C0933A0280933F0260918B
:1074700057026093400270E08091DA029091DB0243
:107480006817790721F480914B02803119F010922E
:1074900041020FC07695762F662777956795072E60
:1074A000000C880B990B4AE552E00E947D38D0937E
:1074B000410286E392E00E942C3C10924B025CC099
:1074C0008091570290915802982789279827909386
:1074D000DB028093DA0250C080933F028091570212
:1074E00080934002609158026093410270E0782BD3
:1074F0008091DA029091DB026817790721F480917C
:107500004B02803119F0D0923A02D3CFC0933A02A5
:107510007695762F66277795679580E090E04AE527
:1075200052E00E947D38C5CF412C512C3201C3015D
:10753000B2010E946B3830E8430E511C611C711C73
:10754000411480E758066104710489F710924C02D7
:1075500013C0412C512C3201C301B2010E946B387F
:1075600020E8420E511C611C711C411430E7530687
:107570006104710489F7EACF8091E0029091E10201
:10758000A091E202B091E302803D9740A105B105D0
:1075900030F080914C02813011F00E945F382091D0
:1075A0004C023CE93203C001112488539F4F2091C3
:1075B0003202309133022817390708F477CE10923F
:1075C00033021092320295B182E0892785B96ECEDE
:1075D0001F920F920FB60F9211248F939F93AF9328
:1075E000BF938091E0029091E102A091E202B091FC
:1075F000E3020196A11DB11D8093E0029093E10288
:10760000A093E202B093E3028091320290913302A0
:1076100001969093330280933202BF91AF919F9174
:107620008F910F900FBE0F901F9018958EBD0DB4C7
:1076300007FEFDCF8EB50895CF93DF93D82FC62FC9
:107640002A9882E00E94163B8D2F0E94163B8C2FB9
:107650000E94163B2A9ADF91CF910895CF93DF9332
:10766000D82FC62F2A9885E00E94163B8D2F0E94A6
:10767000163B8C2F0E94163B80E00E94163B2A9AF4
:10768000DF91CF9108950F931F936093DC02709365
:10769000DD028093DE029093DF028C0122273327E4
:1076A000602771276F777C7F7360709335026093DA
:1076B0003402229A239A259A24982A9A2B9A2D9A50
:1076C0002C9A80E58CBD81E08DBD2A9880EC0E94CB
:1076D000163B8FE891E00197F1F700C000002A9A6D
:1076E0008FE99FE00197F1F700C0000061E48AE2B2
:1076F0000E941C3B61EF89E20E941C3B65E888E226
:107700000E941C3B63E08BE20E941C3B60E680E62B
:107710000E941C3B60E680E70E941C3B60E080E228
:107720000E941C3B60E081E20E941C3B60E082E220
:107730000E941C3B60E083E20E941C3B60E084E20C
:107740000E941C3B60E085E20E941C3B60E086E2F8
:107750000E941C3B60E087E20E941C3B60E08CE0E2
:107760000E941C3B60E08DE00E941C3B60EE8FE0BD
:107770000E942E3B52985A9AE9E6F0E0808181609F
:107780008083E89A52985A9A1F910F910895CF9248
:10779000DF92EF92FF92CF93DF93EC01C880D12C60
:1077A000E12CF12C81E1CC0CDD1CEE1CFF1C8A9538
:1077B000D1F78981A7019601482BCA80DB80E12C93
:1077C000F12CC22AD32AE42AF52AF8942A9880E4D4
:1077D0000E94163BD701C60125E1B695A79597955E
:1077E00087952A95D1F70E94163BA7016627772730
:1077F000842F8C71880F880F880F43704860842B0A
:107800000E94163B8D2D0E94163B8C2D0E94163B2C
:107810008C810E94163B7E0135E0E30EF11C2D9613
:10782000F70181917F010E94163BCE15DF05C1F75C
:107830002A9A2A9881E80E94163B2A9A78948FE91E
:107840009FE00197F1F700C00000DF91CF91FF901A
:10785000EF90DF90CF9008950C94C73BDC01F89433
:107860003DE020911A012223B1F090911C01399F33
:10787000F0011124E35EFE4F01900D923A95E1F77D
:10788000215020931A019F5F90931C01903128F0A2
:1078900010921C0102C080E001C081E0789408953C
:1078A000FC018081871309C08181861306C0828113
:1078B000851303C081E09381941380E008958F9233
:1078C0009F92AF92BF92CF92DF92EF92FF920F936F
:1078D0001F93CF93DF93CDB7DEB72D970FB6F894F4
:1078E000DEBF0FBECDBF3DE1398331E03A83E1E039
:1078F000F3E0FC83EB8338E03D834E832F831886CF
:1079000019869A878B877C876D87CE0101960E94A6
:10791000C73B90E0F801E90FF11D8081882311F049
:107920009F5FF8CFF801DE01119680E0891728F4F7
:10793000208115962C93159703C015961C921597C8
:107940008F5F31961196883089F78B819C810196E3
:107950009C838B83CE0101960E94C73B80E0C82E9A
:10796000D12CF701EC0DFD1D9081992311F08F5F53
:10797000F6CF982F9770869586958695992319F05E
:1079800011E0180F01C0182F00E04E0189E0880EA9
:10799000911CAA24A394B12CAC0EBD1EAE0CBF1C2E
:1079A000101719F1FE013196D701C7018A199B09F9
:1079B0009C012E0F3F1F2C153D051CF42C91258397
:1079C00001C0158211963196E815F90589F78B816A
:1079D0009C8101969C838B83CE0101960E94C73BBC
:1079E0000F5F88E0E80EF11CDBCF8B812091340221
:1079F000309135023C832B8396E09D839091DC028D
:107A00002091DD023091DE024091DF024E833F8300
:107A1000288799871A868B87CE0101960E94C73BDB
:107A20002D960FB6F894DEBF0FBECDBFDF91CF917C
:107A30001F910F91FF90EF90DF90CF90BF90AF908C
:107A40009F908F900895CF93DF93CDB7DEB72D979A
:107A50000FB6F894DEBF0FBECDBF28E1298321E029
:107A60002A8320913402309135023C832B8328E015
:107A70002D832091DC023091DD024091DE02509195
:107A8000DF025E834F83388729879A878B877C87BD
:107A90006D87CE0101960E94C73B2D960FB6F894D4
:107AA000DEBF0FBECDBFDF91CF9108951F920F9221
:107AB0000FB60F921124CF92DF92EF92FF920F93A5
:107AC0001F932F933F934F935F936F937F938F9366
:107AD0009F93AF93BF93CF93DF93EF93FF93F8946C
:107AE00080911B018F5F803118F480931B0102C0CD
:107AF00010921B0110911B012A9880EB0E94163BEB
:107B00008FEF0E94163BC82F8FEF0E94163B2A9AD8
:107B10000C2F0074C6FF03C02A9880E904C0C7FF79
:107B200072C02A9884E90E94163BC12FD0E08FEFE3
:107B30000E94163B28E0829FC00111246C01990F1E
:107B4000EE08FF088FEF0E94163B982F92959695AE
:107B50009770C92A92E0CC0CDD1CEE1CFF1C9A9594
:107B6000D1F78370C82AFE2CED2CDC2CCC248FEFAF
:107B70000E94163BC82AFE2CED2CDC2CCC248FEF67
:107B80000E94163BA7019601282BDA01C9014DE09E
:107B90004C9F90014D9F300D1124E901C35EDE4FD3
:107BA000AC01BD01E1E17695679557954795EA955A
:107BB000D1F7FE0141932A2F21702083FE013296D6
:107BC000918380838FEF0E94163B8F708C833DE002
:107BD000139F70011124C0E0D0E08FEF0E94163B8C
:107BE000FE01EE0DFF1DE35EFE4F85832196C8303A
:107BF000D10599F72A9A002311F061E001C062E0F3
:107C00008CE20E942E3B80911A01803118F48F5F24
:107C100080931A0180911A018031D0F47894FF91F9
:107C2000EF91DF91CF91BF91AF919F918F917F9114
:107C30006F915F914F913F912F911F910F91FF9005
:107C4000EF90DF90CF900F900FBE0F901F90189580
:107C500080911C018F5F80931C018031F8F210929B
:107C60001C01DCCF1F920F920FB60F9211242F939D
:107C70008F939F93EF93FF938091C0009091C600E4
:107C80008C71E091EF01EF5FEF712091EE01E2174F
:107C900039F0E093EF01F0E0EE50FE4F908301C029
:107CA00082E09091ED01892B8093ED01FF91EF919E
:107CB0009F918F912F910F900FBE0F901F9018954D
:107CC0001F920F920FB60F9211248F939F93EF93F1
:107CD000FF939091F1018091F001981769F0E09184
:107CE000F001EF5FEF71E093F001F0E0EE5EFD4F29
:107CF00080818093C60005C08091C1008F7D8093F4
:107D0000C100FF91EF919F918F910F900FBE0F9047
:107D10001F901895F999FECF92BD81BDF89A9927C9
:107D200080B50895262FF999FECF92BD81BDF89AAE
:107D3000019700B4021639F01FBA20BD0FB6F894AF
:0C7D4000FA9AF99A0FBE0895F894FFCF4C
:107D4C004E5363616C65204772756E646D6F64751C
:087D5C006C004E53474D00007E
:04000005008001185E
:00000001FF
